{
	"solidGames.sol": {
		"solidGames": {
			"abi": [
				{
					"inputs": [],
					"stateMutability": "nonpayable",
					"type": "constructor"
				},
				{
					"inputs": [
						{
							"internalType": "string",
							"name": "name",
							"type": "string"
						}
					],
					"name": "CreateProfile",
					"outputs": [],
					"stateMutability": "nonpayable",
					"type": "function"
				},
				{
					"inputs": [
						{
							"internalType": "bool",
							"name": "isWinner",
							"type": "bool"
						}
					],
					"name": "InGame",
					"outputs": [],
					"stateMutability": "nonpayable",
					"type": "function"
				},
				{
					"inputs": [
						{
							"internalType": "address",
							"name": "",
							"type": "address"
						},
						{
							"internalType": "uint256",
							"name": "",
							"type": "uint256"
						}
					],
					"name": "addressToCollectionCreated",
					"outputs": [
						{
							"internalType": "uint256",
							"name": "id",
							"type": "uint256"
						},
						{
							"internalType": "address",
							"name": "user",
							"type": "address"
						},
						{
							"internalType": "string",
							"name": "cid",
							"type": "string"
						},
						{
							"internalType": "string",
							"name": "twitter",
							"type": "string"
						},
						{
							"internalType": "string",
							"name": "discord",
							"type": "string"
						},
						{
							"internalType": "string",
							"name": "mediumURL",
							"type": "string"
						},
						{
							"internalType": "string",
							"name": "collectionURL",
							"type": "string"
						},
						{
							"internalType": "bool",
							"name": "isGame1",
							"type": "bool"
						},
						{
							"internalType": "bool",
							"name": "isGame2",
							"type": "bool"
						},
						{
							"internalType": "uint256",
							"name": "giveAways",
							"type": "uint256"
						}
					],
					"stateMutability": "view",
					"type": "function"
				},
				{
					"inputs": [
						{
							"internalType": "address",
							"name": "",
							"type": "address"
						},
						{
							"internalType": "uint256",
							"name": "",
							"type": "uint256"
						}
					],
					"name": "addressToGame1",
					"outputs": [
						{
							"internalType": "uint256",
							"name": "id",
							"type": "uint256"
						},
						{
							"internalType": "bool",
							"name": "isWinner",
							"type": "bool"
						}
					],
					"stateMutability": "view",
					"type": "function"
				},
				{
					"inputs": [
						{
							"internalType": "address",
							"name": "",
							"type": "address"
						},
						{
							"internalType": "uint256",
							"name": "",
							"type": "uint256"
						}
					],
					"name": "addressToGame2",
					"outputs": [
						{
							"internalType": "uint256",
							"name": "id",
							"type": "uint256"
						},
						{
							"internalType": "bool",
							"name": "isWinner",
							"type": "bool"
						}
					],
					"stateMutability": "view",
					"type": "function"
				},
				{
					"inputs": [
						{
							"internalType": "address",
							"name": "",
							"type": "address"
						}
					],
					"name": "addressToUser",
					"outputs": [
						{
							"internalType": "address",
							"name": "user",
							"type": "address"
						},
						{
							"internalType": "string",
							"name": "name",
							"type": "string"
						},
						{
							"internalType": "uint256",
							"name": "noGame1",
							"type": "uint256"
						},
						{
							"internalType": "uint256",
							"name": "noGame2",
							"type": "uint256"
						},
						{
							"internalType": "uint256",
							"name": "noOfWinnerInGame1",
							"type": "uint256"
						},
						{
							"internalType": "uint256",
							"name": "noOfWinnerInGame2",
							"type": "uint256"
						}
					],
					"stateMutability": "view",
					"type": "function"
				},
				{
					"inputs": [
						{
							"internalType": "string",
							"name": "cid",
							"type": "string"
						},
						{
							"internalType": "string",
							"name": "t",
							"type": "string"
						},
						{
							"internalType": "string",
							"name": "d",
							"type": "string"
						},
						{
							"internalType": "string",
							"name": "mu",
							"type": "string"
						},
						{
							"internalType": "string",
							"name": "cu",
							"type": "string"
						},
						{
							"internalType": "bool",
							"name": "g1",
							"type": "bool"
						},
						{
							"internalType": "bool",
							"name": "g2",
							"type": "bool"
						},
						{
							"internalType": "uint256",
							"name": "giveaway",
							"type": "uint256"
						}
					],
					"name": "createCollection",
					"outputs": [],
					"stateMutability": "nonpayable",
					"type": "function"
				},
				{
					"inputs": [
						{
							"internalType": "uint256",
							"name": "id",
							"type": "uint256"
						}
					],
					"name": "getAllCollection",
					"outputs": [
						{
							"components": [
								{
									"internalType": "uint256",
									"name": "id",
									"type": "uint256"
								},
								{
									"internalType": "address",
									"name": "user",
									"type": "address"
								},
								{
									"internalType": "string",
									"name": "cid",
									"type": "string"
								},
								{
									"internalType": "string",
									"name": "twitter",
									"type": "string"
								},
								{
									"internalType": "string",
									"name": "discord",
									"type": "string"
								},
								{
									"internalType": "string",
									"name": "mediumURL",
									"type": "string"
								},
								{
									"internalType": "string",
									"name": "collectionURL",
									"type": "string"
								},
								{
									"internalType": "bool",
									"name": "isGame1",
									"type": "bool"
								},
								{
									"internalType": "bool",
									"name": "isGame2",
									"type": "bool"
								},
								{
									"internalType": "uint256",
									"name": "giveAways",
									"type": "uint256"
								}
							],
							"internalType": "struct solidGames.Collection",
							"name": "",
							"type": "tuple"
						}
					],
					"stateMutability": "view",
					"type": "function"
				},
				{
					"inputs": [],
					"name": "getCollectionId",
					"outputs": [
						{
							"internalType": "uint256",
							"name": "",
							"type": "uint256"
						}
					],
					"stateMutability": "view",
					"type": "function"
				},
				{
					"inputs": [
						{
							"internalType": "address",
							"name": "user",
							"type": "address"
						}
					],
					"name": "getCollections",
					"outputs": [
						{
							"components": [
								{
									"internalType": "uint256",
									"name": "id",
									"type": "uint256"
								},
								{
									"internalType": "address",
									"name": "user",
									"type": "address"
								},
								{
									"internalType": "string",
									"name": "cid",
									"type": "string"
								},
								{
									"internalType": "string",
									"name": "twitter",
									"type": "string"
								},
								{
									"internalType": "string",
									"name": "discord",
									"type": "string"
								},
								{
									"internalType": "string",
									"name": "mediumURL",
									"type": "string"
								},
								{
									"internalType": "string",
									"name": "collectionURL",
									"type": "string"
								},
								{
									"internalType": "bool",
									"name": "isGame1",
									"type": "bool"
								},
								{
									"internalType": "bool",
									"name": "isGame2",
									"type": "bool"
								},
								{
									"internalType": "uint256",
									"name": "giveAways",
									"type": "uint256"
								}
							],
							"internalType": "struct solidGames.Collection",
							"name": "",
							"type": "tuple"
						}
					],
					"stateMutability": "view",
					"type": "function"
				},
				{
					"inputs": [
						{
							"internalType": "address",
							"name": "user",
							"type": "address"
						}
					],
					"name": "getLengthOfUserCollections",
					"outputs": [
						{
							"internalType": "uint256",
							"name": "",
							"type": "uint256"
						}
					],
					"stateMutability": "view",
					"type": "function"
				},
				{
					"inputs": [],
					"name": "getUserInfo",
					"outputs": [
						{
							"components": [
								{
									"internalType": "address",
									"name": "user",
									"type": "address"
								},
								{
									"internalType": "string",
									"name": "name",
									"type": "string"
								},
								{
									"internalType": "uint256[]",
									"name": "collection_id",
									"type": "uint256[]"
								},
								{
									"internalType": "uint256",
									"name": "noGame1",
									"type": "uint256"
								},
								{
									"internalType": "uint256",
									"name": "noGame2",
									"type": "uint256"
								},
								{
									"internalType": "uint256",
									"name": "noOfWinnerInGame1",
									"type": "uint256"
								},
								{
									"internalType": "uint256",
									"name": "noOfWinnerInGame2",
									"type": "uint256"
								}
							],
							"internalType": "struct solidGames.UserInfo",
							"name": "",
							"type": "tuple"
						}
					],
					"stateMutability": "view",
					"type": "function"
				},
				{
					"inputs": [
						{
							"internalType": "uint256",
							"name": "",
							"type": "uint256"
						}
					],
					"name": "idToCollection",
					"outputs": [
						{
							"internalType": "uint256",
							"name": "id",
							"type": "uint256"
						},
						{
							"internalType": "address",
							"name": "user",
							"type": "address"
						},
						{
							"internalType": "string",
							"name": "cid",
							"type": "string"
						},
						{
							"internalType": "string",
							"name": "twitter",
							"type": "string"
						},
						{
							"internalType": "string",
							"name": "discord",
							"type": "string"
						},
						{
							"internalType": "string",
							"name": "mediumURL",
							"type": "string"
						},
						{
							"internalType": "string",
							"name": "collectionURL",
							"type": "string"
						},
						{
							"internalType": "bool",
							"name": "isGame1",
							"type": "bool"
						},
						{
							"internalType": "bool",
							"name": "isGame2",
							"type": "bool"
						},
						{
							"internalType": "uint256",
							"name": "giveAways",
							"type": "uint256"
						}
					],
					"stateMutability": "view",
					"type": "function"
				},
				{
					"inputs": [
						{
							"internalType": "uint256",
							"name": "coll_id",
							"type": "uint256"
						}
					],
					"name": "participate",
					"outputs": [],
					"stateMutability": "nonpayable",
					"type": "function"
				},
				{
					"inputs": [
						{
							"internalType": "uint256",
							"name": "",
							"type": "uint256"
						},
						{
							"internalType": "uint256",
							"name": "",
							"type": "uint256"
						}
					],
					"name": "usersInCollection",
					"outputs": [
						{
							"internalType": "address",
							"name": "",
							"type": "address"
						}
					],
					"stateMutability": "view",
					"type": "function"
				}
			],
			"devdoc": {
				"kind": "dev",
				"methods": {},
				"version": 1
			},
			"evm": {
				"assembly": "    /* \"solidGames.sol\":56:3315  contract solidGames{... */\n  mstore(0x40, 0x80)\n    /* \"solidGames.sol\":100:146  constructor(){... */\n  callvalue\n  dup1\n  iszero\n  tag_1\n  jumpi\n  0x00\n  dup1\n  revert\ntag_1:\n  pop\n    /* \"solidGames.sol\":129:139  msg.sender */\n  caller\n    /* \"solidGames.sol\":123:128  owner */\n  0x00\n  dup1\n    /* \"solidGames.sol\":123:139  owner=msg.sender */\n  0x0100\n  exp\n  dup2\n  sload\n  dup2\n  0xffffffffffffffffffffffffffffffffffffffff\n  mul\n  not\n  and\n  swap1\n  dup4\n  0xffffffffffffffffffffffffffffffffffffffff\n  and\n  mul\n  or\n  swap1\n  sstore\n  pop\n    /* \"solidGames.sol\":56:3315  contract solidGames{... */\n  dataSize(sub_0)\n  dup1\n  dataOffset(sub_0)\n  0x00\n  codecopy\n  0x00\n  return\nstop\n\nsub_0: assembly {\n        /* \"solidGames.sol\":56:3315  contract solidGames{... */\n      mstore(0x40, 0x80)\n      callvalue\n      dup1\n      iszero\n      tag_1\n      jumpi\n      0x00\n      dup1\n      revert\n    tag_1:\n      pop\n      jumpi(tag_2, lt(calldatasize, 0x04))\n      shr(0xe0, calldataload(0x00))\n      dup1\n      0x7298def0\n      gt\n      tag_18\n      jumpi\n      dup1\n      0xe4649d99\n      gt\n      tag_19\n      jumpi\n      dup1\n      0xe4649d99\n      eq\n      tag_14\n      jumpi\n      dup1\n      0xe93b7b7d\n      eq\n      tag_15\n      jumpi\n      dup1\n      0xedf53886\n      eq\n      tag_16\n      jumpi\n      dup1\n      0xf37420d2\n      eq\n      tag_17\n      jumpi\n      jump(tag_2)\n    tag_19:\n      dup1\n      0x7298def0\n      eq\n      tag_10\n      jumpi\n      dup1\n      0x7c8e7bfe\n      eq\n      tag_11\n      jumpi\n      dup1\n      0x845c9306\n      eq\n      tag_12\n      jumpi\n      dup1\n      0xd7da3c46\n      eq\n      tag_13\n      jumpi\n      jump(tag_2)\n    tag_18:\n      dup1\n      0x1cc2ee61\n      gt\n      tag_20\n      jumpi\n      dup1\n      0x1cc2ee61\n      eq\n      tag_6\n      jumpi\n      dup1\n      0x3cf11fda\n      eq\n      tag_7\n      jumpi\n      dup1\n      0x5d8d1585\n      eq\n      tag_8\n      jumpi\n      dup1\n      0x6e5c0a09\n      eq\n      tag_9\n      jumpi\n      jump(tag_2)\n    tag_20:\n      dup1\n      0x085566fe\n      eq\n      tag_3\n      jumpi\n      dup1\n      0x127f1498\n      eq\n      tag_4\n      jumpi\n      dup1\n      0x1bcde54f\n      eq\n      tag_5\n      jumpi\n    tag_2:\n      0x00\n      dup1\n      revert\n        /* \"solidGames.sol\":2764:2907  function getLengthOfUserCollections(address user) public view returns (uint256) {... */\n    tag_3:\n      tag_21\n      0x04\n      dup1\n      calldatasize\n      sub\n      dup2\n      add\n      swap1\n      tag_22\n      swap2\n      swap1\n      tag_23\n      jump\t// in\n    tag_22:\n      tag_24\n      jump\t// in\n    tag_21:\n      mload(0x40)\n      tag_25\n      swap2\n      swap1\n      tag_26\n      jump\t// in\n    tag_25:\n      mload(0x40)\n      dup1\n      swap2\n      sub\n      swap1\n      return\n        /* \"solidGames.sol\":2917:3109  function getCollections(address user) public view returns(Collection memory){... */\n    tag_4:\n      tag_27\n      0x04\n      dup1\n      calldatasize\n      sub\n      dup2\n      add\n      swap1\n      tag_28\n      swap2\n      swap1\n      tag_23\n      jump\t// in\n    tag_28:\n      tag_29\n      jump\t// in\n    tag_27:\n      mload(0x40)\n      tag_30\n      swap2\n      swap1\n      tag_31\n      jump\t// in\n    tag_30:\n      mload(0x40)\n      dup1\n      swap2\n      sub\n      swap1\n      return\n        /* \"solidGames.sol\":1357:1732  function createCollection(string memory cid,string memory t,string memory d,string memory mu,... */\n    tag_5:\n      tag_32\n      0x04\n      dup1\n      calldatasize\n      sub\n      dup2\n      add\n      swap1\n      tag_33\n      swap2\n      swap1\n      tag_34\n      jump\t// in\n    tag_33:\n      tag_35\n      jump\t// in\n    tag_32:\n      stop\n        /* \"solidGames.sol\":1016:1080  mapping(address=>Collection[]) public addressToCollectionCreated */\n    tag_6:\n      tag_36\n      0x04\n      dup1\n      calldatasize\n      sub\n      dup2\n      add\n      swap1\n      tag_37\n      swap2\n      swap1\n      tag_38\n      jump\t// in\n    tag_37:\n      tag_39\n      jump\t// in\n    tag_36:\n      mload(0x40)\n      tag_40\n      swap11\n      swap10\n      swap9\n      swap8\n      swap7\n      swap6\n      swap5\n      swap4\n      swap3\n      swap2\n      swap1\n      tag_41\n      jump\t// in\n    tag_40:\n      mload(0x40)\n      dup1\n      swap2\n      sub\n      swap1\n      return\n        /* \"solidGames.sol\":1924:2638  function InGame(bool isWinner) public {... */\n    tag_7:\n      tag_42\n      0x04\n      dup1\n      calldatasize\n      sub\n      dup2\n      add\n      swap1\n      tag_43\n      swap2\n      swap1\n      tag_44\n      jump\t// in\n    tag_43:\n      tag_45\n      jump\t// in\n    tag_42:\n      stop\n        /* \"solidGames.sol\":3119:3227  function getUserInfo() public view returns(UserInfo memory){... */\n    tag_8:\n      tag_46\n      tag_47\n      jump\t// in\n    tag_46:\n      mload(0x40)\n      tag_48\n      swap2\n      swap1\n      tag_49\n      jump\t// in\n    tag_48:\n      mload(0x40)\n      dup1\n      swap2\n      sub\n      swap1\n      return\n        /* \"solidGames.sol\":1141:1190  mapping(uint=>address[]) public usersInCollection */\n    tag_9:\n      tag_50\n      0x04\n      dup1\n      calldatasize\n      sub\n      dup2\n      add\n      swap1\n      tag_51\n      swap2\n      swap1\n      tag_52\n      jump\t// in\n    tag_51:\n      tag_53\n      jump\t// in\n    tag_50:\n      mload(0x40)\n      tag_54\n      swap2\n      swap1\n      tag_55\n      jump\t// in\n    tag_54:\n      mload(0x40)\n      dup1\n      swap2\n      sub\n      swap1\n      return\n        /* \"solidGames.sol\":910:957  mapping(address=>Game1[]) public addressToGame1 */\n    tag_10:\n      tag_56\n      0x04\n      dup1\n      calldatasize\n      sub\n      dup2\n      add\n      swap1\n      tag_57\n      swap2\n      swap1\n      tag_38\n      jump\t// in\n    tag_57:\n      tag_58\n      jump\t// in\n    tag_56:\n      mload(0x40)\n      tag_59\n      swap3\n      swap2\n      swap1\n      tag_60\n      jump\t// in\n    tag_59:\n      mload(0x40)\n      dup1\n      swap2\n      sub\n      swap1\n      return\n        /* \"solidGames.sol\":3233:3313  function getCollectionId() public view returns(uint){... */\n    tag_11:\n      tag_61\n      tag_62\n      jump\t// in\n    tag_61:\n      mload(0x40)\n      tag_63\n      swap2\n      swap1\n      tag_26\n      jump\t// in\n    tag_63:\n      mload(0x40)\n      dup1\n      swap2\n      sub\n      swap1\n      return\n        /* \"solidGames.sol\":1738:1918  function participate(uint coll_id) public{        ... */\n    tag_12:\n      tag_64\n      0x04\n      dup1\n      calldatasize\n      sub\n      dup2\n      add\n      swap1\n      tag_65\n      swap2\n      swap1\n      tag_66\n      jump\t// in\n    tag_65:\n      tag_67\n      jump\t// in\n    tag_64:\n      stop\n        /* \"solidGames.sol\":1197:1351  function CreateProfile(string memory name) public{... */\n    tag_13:\n      tag_68\n      0x04\n      dup1\n      calldatasize\n      sub\n      dup2\n      add\n      swap1\n      tag_69\n      swap2\n      swap1\n      tag_70\n      jump\t// in\n    tag_69:\n      tag_71\n      jump\t// in\n    tag_68:\n      stop\n        /* \"solidGames.sol\":963:1010  mapping(address=>Game2[]) public addressToGame2 */\n    tag_14:\n      tag_72\n      0x04\n      dup1\n      calldatasize\n      sub\n      dup2\n      add\n      swap1\n      tag_73\n      swap2\n      swap1\n      tag_38\n      jump\t// in\n    tag_73:\n      tag_74\n      jump\t// in\n    tag_72:\n      mload(0x40)\n      tag_75\n      swap3\n      swap2\n      swap1\n      tag_60\n      jump\t// in\n    tag_75:\n      mload(0x40)\n      dup1\n      swap2\n      sub\n      swap1\n      return\n        /* \"solidGames.sol\":1086:1135  mapping(uint => Collection) public idToCollection */\n    tag_15:\n      tag_76\n      0x04\n      dup1\n      calldatasize\n      sub\n      dup2\n      add\n      swap1\n      tag_77\n      swap2\n      swap1\n      tag_66\n      jump\t// in\n    tag_77:\n      tag_78\n      jump\t// in\n    tag_76:\n      mload(0x40)\n      tag_79\n      swap11\n      swap10\n      swap9\n      swap8\n      swap7\n      swap6\n      swap5\n      swap4\n      swap3\n      swap2\n      swap1\n      tag_41\n      jump\t// in\n    tag_79:\n      mload(0x40)\n      dup1\n      swap2\n      sub\n      swap1\n      return\n        /* \"solidGames.sol\":857:904  mapping(address=>UserInfo) public addressToUser */\n    tag_16:\n      tag_80\n      0x04\n      dup1\n      calldatasize\n      sub\n      dup2\n      add\n      swap1\n      tag_81\n      swap2\n      swap1\n      tag_23\n      jump\t// in\n    tag_81:\n      tag_82\n      jump\t// in\n    tag_80:\n      mload(0x40)\n      tag_83\n      swap7\n      swap6\n      swap5\n      swap4\n      swap3\n      swap2\n      swap1\n      tag_84\n      jump\t// in\n    tag_83:\n      mload(0x40)\n      dup1\n      swap2\n      sub\n      swap1\n      return\n        /* \"solidGames.sol\":2644:2759  function getAllCollection(uint id) public view returns(Collection memory){... */\n    tag_17:\n      tag_85\n      0x04\n      dup1\n      calldatasize\n      sub\n      dup2\n      add\n      swap1\n      tag_86\n      swap2\n      swap1\n      tag_66\n      jump\t// in\n    tag_86:\n      tag_87\n      jump\t// in\n    tag_85:\n      mload(0x40)\n      tag_88\n      swap2\n      swap1\n      tag_31\n      jump\t// in\n    tag_88:\n      mload(0x40)\n      dup1\n      swap2\n      sub\n      swap1\n      return\n        /* \"solidGames.sol\":2764:2907  function getLengthOfUserCollections(address user) public view returns (uint256) {... */\n    tag_24:\n        /* \"solidGames.sol\":2835:2842  uint256 */\n      0x00\n        /* \"solidGames.sol\":2861:2887  addressToCollectionCreated */\n      0x09\n        /* \"solidGames.sol\":2861:2893  addressToCollectionCreated[user] */\n      0x00\n        /* \"solidGames.sol\":2888:2892  user */\n      dup4\n        /* \"solidGames.sol\":2861:2893  addressToCollectionCreated[user] */\n      0xffffffffffffffffffffffffffffffffffffffff\n      and\n      0xffffffffffffffffffffffffffffffffffffffff\n      and\n      dup2\n      mstore\n      0x20\n      add\n      swap1\n      dup2\n      mstore\n      0x20\n      add\n      0x00\n      keccak256\n        /* \"solidGames.sol\":2861:2900  addressToCollectionCreated[user].length */\n      dup1\n      sload\n      swap1\n      pop\n        /* \"solidGames.sol\":2854:2900  return addressToCollectionCreated[user].length */\n      swap1\n      pop\n        /* \"solidGames.sol\":2764:2907  function getLengthOfUserCollections(address user) public view returns (uint256) {... */\n      swap2\n      swap1\n      pop\n      jump\t// out\n        /* \"solidGames.sol\":2917:3109  function getCollections(address user) public view returns(Collection memory){... */\n    tag_29:\n        /* \"solidGames.sol\":2975:2992  Collection memory */\n      tag_90\n      tag_91\n      jump\t// in\n    tag_90:\n        /* \"solidGames.sol\":3003:3011  uint len */\n      0x00\n        /* \"solidGames.sol\":3014:3046  getLengthOfUserCollections(user) */\n      tag_93\n        /* \"solidGames.sol\":3041:3045  user */\n      dup4\n        /* \"solidGames.sol\":3014:3040  getLengthOfUserCollections */\n      tag_24\n        /* \"solidGames.sol\":3014:3046  getLengthOfUserCollections(user) */\n      jump\t// in\n    tag_93:\n        /* \"solidGames.sol\":3003:3046  uint len = getLengthOfUserCollections(user) */\n      swap1\n      pop\n        /* \"solidGames.sol\":3063:3089  addressToCollectionCreated */\n      0x09\n        /* \"solidGames.sol\":3063:3095  addressToCollectionCreated[user] */\n      0x00\n        /* \"solidGames.sol\":3090:3094  user */\n      dup5\n        /* \"solidGames.sol\":3063:3095  addressToCollectionCreated[user] */\n      0xffffffffffffffffffffffffffffffffffffffff\n      and\n      0xffffffffffffffffffffffffffffffffffffffff\n      and\n      dup2\n      mstore\n      0x20\n      add\n      swap1\n      dup2\n      mstore\n      0x20\n      add\n      0x00\n      keccak256\n        /* \"solidGames.sol\":3100:3101  1 */\n      0x01\n        /* \"solidGames.sol\":3096:3099  len */\n      dup3\n        /* \"solidGames.sol\":3096:3101  len-1 */\n      tag_94\n      swap2\n      swap1\n      tag_95\n      jump\t// in\n    tag_94:\n        /* \"solidGames.sol\":3063:3102  addressToCollectionCreated[user][len-1] */\n      dup2\n      sload\n      dup2\n      lt\n      tag_96\n      jumpi\n      tag_97\n      tag_98\n      jump\t// in\n    tag_97:\n    tag_96:\n      swap1\n      0x00\n      mstore\n      keccak256(0x00, 0x20)\n      swap1\n      0x09\n      mul\n      add\n        /* \"solidGames.sol\":3056:3102  return addressToCollectionCreated[user][len-1] */\n      mload(0x40)\n      dup1\n      0x0140\n      add\n      0x40\n      mstore\n      swap1\n      dup2\n      0x00\n      dup3\n      add\n      sload\n      dup2\n      mstore\n      0x20\n      add\n      0x01\n      dup3\n      add\n      0x00\n      swap1\n      sload\n      swap1\n      0x0100\n      exp\n      swap1\n      div\n      0xffffffffffffffffffffffffffffffffffffffff\n      and\n      0xffffffffffffffffffffffffffffffffffffffff\n      and\n      0xffffffffffffffffffffffffffffffffffffffff\n      and\n      dup2\n      mstore\n      0x20\n      add\n      0x02\n      dup3\n      add\n      dup1\n      sload\n      tag_100\n      swap1\n      tag_101\n      jump\t// in\n    tag_100:\n      dup1\n      0x1f\n      add\n      0x20\n      dup1\n      swap2\n      div\n      mul\n      0x20\n      add\n      mload(0x40)\n      swap1\n      dup2\n      add\n      0x40\n      mstore\n      dup1\n      swap3\n      swap2\n      swap1\n      dup2\n      dup2\n      mstore\n      0x20\n      add\n      dup3\n      dup1\n      sload\n      tag_102\n      swap1\n      tag_101\n      jump\t// in\n    tag_102:\n      dup1\n      iszero\n      tag_103\n      jumpi\n      dup1\n      0x1f\n      lt\n      tag_104\n      jumpi\n      0x0100\n      dup1\n      dup4\n      sload\n      div\n      mul\n      dup4\n      mstore\n      swap2\n      0x20\n      add\n      swap2\n      jump(tag_103)\n    tag_104:\n      dup3\n      add\n      swap2\n      swap1\n      0x00\n      mstore\n      keccak256(0x00, 0x20)\n      swap1\n    tag_105:\n      dup2\n      sload\n      dup2\n      mstore\n      swap1\n      0x01\n      add\n      swap1\n      0x20\n      add\n      dup1\n      dup4\n      gt\n      tag_105\n      jumpi\n      dup3\n      swap1\n      sub\n      0x1f\n      and\n      dup3\n      add\n      swap2\n    tag_103:\n      pop\n      pop\n      pop\n      pop\n      pop\n      dup2\n      mstore\n      0x20\n      add\n      0x03\n      dup3\n      add\n      dup1\n      sload\n      tag_106\n      swap1\n      tag_101\n      jump\t// in\n    tag_106:\n      dup1\n      0x1f\n      add\n      0x20\n      dup1\n      swap2\n      div\n      mul\n      0x20\n      add\n      mload(0x40)\n      swap1\n      dup2\n      add\n      0x40\n      mstore\n      dup1\n      swap3\n      swap2\n      swap1\n      dup2\n      dup2\n      mstore\n      0x20\n      add\n      dup3\n      dup1\n      sload\n      tag_107\n      swap1\n      tag_101\n      jump\t// in\n    tag_107:\n      dup1\n      iszero\n      tag_108\n      jumpi\n      dup1\n      0x1f\n      lt\n      tag_109\n      jumpi\n      0x0100\n      dup1\n      dup4\n      sload\n      div\n      mul\n      dup4\n      mstore\n      swap2\n      0x20\n      add\n      swap2\n      jump(tag_108)\n    tag_109:\n      dup3\n      add\n      swap2\n      swap1\n      0x00\n      mstore\n      keccak256(0x00, 0x20)\n      swap1\n    tag_110:\n      dup2\n      sload\n      dup2\n      mstore\n      swap1\n      0x01\n      add\n      swap1\n      0x20\n      add\n      dup1\n      dup4\n      gt\n      tag_110\n      jumpi\n      dup3\n      swap1\n      sub\n      0x1f\n      and\n      dup3\n      add\n      swap2\n    tag_108:\n      pop\n      pop\n      pop\n      pop\n      pop\n      dup2\n      mstore\n      0x20\n      add\n      0x04\n      dup3\n      add\n      dup1\n      sload\n      tag_111\n      swap1\n      tag_101\n      jump\t// in\n    tag_111:\n      dup1\n      0x1f\n      add\n      0x20\n      dup1\n      swap2\n      div\n      mul\n      0x20\n      add\n      mload(0x40)\n      swap1\n      dup2\n      add\n      0x40\n      mstore\n      dup1\n      swap3\n      swap2\n      swap1\n      dup2\n      dup2\n      mstore\n      0x20\n      add\n      dup3\n      dup1\n      sload\n      tag_112\n      swap1\n      tag_101\n      jump\t// in\n    tag_112:\n      dup1\n      iszero\n      tag_113\n      jumpi\n      dup1\n      0x1f\n      lt\n      tag_114\n      jumpi\n      0x0100\n      dup1\n      dup4\n      sload\n      div\n      mul\n      dup4\n      mstore\n      swap2\n      0x20\n      add\n      swap2\n      jump(tag_113)\n    tag_114:\n      dup3\n      add\n      swap2\n      swap1\n      0x00\n      mstore\n      keccak256(0x00, 0x20)\n      swap1\n    tag_115:\n      dup2\n      sload\n      dup2\n      mstore\n      swap1\n      0x01\n      add\n      swap1\n      0x20\n      add\n      dup1\n      dup4\n      gt\n      tag_115\n      jumpi\n      dup3\n      swap1\n      sub\n      0x1f\n      and\n      dup3\n      add\n      swap2\n    tag_113:\n      pop\n      pop\n      pop\n      pop\n      pop\n      dup2\n      mstore\n      0x20\n      add\n      0x05\n      dup3\n      add\n      dup1\n      sload\n      tag_116\n      swap1\n      tag_101\n      jump\t// in\n    tag_116:\n      dup1\n      0x1f\n      add\n      0x20\n      dup1\n      swap2\n      div\n      mul\n      0x20\n      add\n      mload(0x40)\n      swap1\n      dup2\n      add\n      0x40\n      mstore\n      dup1\n      swap3\n      swap2\n      swap1\n      dup2\n      dup2\n      mstore\n      0x20\n      add\n      dup3\n      dup1\n      sload\n      tag_117\n      swap1\n      tag_101\n      jump\t// in\n    tag_117:\n      dup1\n      iszero\n      tag_118\n      jumpi\n      dup1\n      0x1f\n      lt\n      tag_119\n      jumpi\n      0x0100\n      dup1\n      dup4\n      sload\n      div\n      mul\n      dup4\n      mstore\n      swap2\n      0x20\n      add\n      swap2\n      jump(tag_118)\n    tag_119:\n      dup3\n      add\n      swap2\n      swap1\n      0x00\n      mstore\n      keccak256(0x00, 0x20)\n      swap1\n    tag_120:\n      dup2\n      sload\n      dup2\n      mstore\n      swap1\n      0x01\n      add\n      swap1\n      0x20\n      add\n      dup1\n      dup4\n      gt\n      tag_120\n      jumpi\n      dup3\n      swap1\n      sub\n      0x1f\n      and\n      dup3\n      add\n      swap2\n    tag_118:\n      pop\n      pop\n      pop\n      pop\n      pop\n      dup2\n      mstore\n      0x20\n      add\n      0x06\n      dup3\n      add\n      dup1\n      sload\n      tag_121\n      swap1\n      tag_101\n      jump\t// in\n    tag_121:\n      dup1\n      0x1f\n      add\n      0x20\n      dup1\n      swap2\n      div\n      mul\n      0x20\n      add\n      mload(0x40)\n      swap1\n      dup2\n      add\n      0x40\n      mstore\n      dup1\n      swap3\n      swap2\n      swap1\n      dup2\n      dup2\n      mstore\n      0x20\n      add\n      dup3\n      dup1\n      sload\n      tag_122\n      swap1\n      tag_101\n      jump\t// in\n    tag_122:\n      dup1\n      iszero\n      tag_123\n      jumpi\n      dup1\n      0x1f\n      lt\n      tag_124\n      jumpi\n      0x0100\n      dup1\n      dup4\n      sload\n      div\n      mul\n      dup4\n      mstore\n      swap2\n      0x20\n      add\n      swap2\n      jump(tag_123)\n    tag_124:\n      dup3\n      add\n      swap2\n      swap1\n      0x00\n      mstore\n      keccak256(0x00, 0x20)\n      swap1\n    tag_125:\n      dup2\n      sload\n      dup2\n      mstore\n      swap1\n      0x01\n      add\n      swap1\n      0x20\n      add\n      dup1\n      dup4\n      gt\n      tag_125\n      jumpi\n      dup3\n      swap1\n      sub\n      0x1f\n      and\n      dup3\n      add\n      swap2\n    tag_123:\n      pop\n      pop\n      pop\n      pop\n      pop\n      dup2\n      mstore\n      0x20\n      add\n      0x07\n      dup3\n      add\n      0x00\n      swap1\n      sload\n      swap1\n      0x0100\n      exp\n      swap1\n      div\n      0xff\n      and\n      iszero\n      iszero\n      iszero\n      iszero\n      dup2\n      mstore\n      0x20\n      add\n      0x07\n      dup3\n      add\n      0x01\n      swap1\n      sload\n      swap1\n      0x0100\n      exp\n      swap1\n      div\n      0xff\n      and\n      iszero\n      iszero\n      iszero\n      iszero\n      dup2\n      mstore\n      0x20\n      add\n      0x08\n      dup3\n      add\n      sload\n      dup2\n      mstore\n      pop\n      pop\n      swap2\n      pop\n      pop\n        /* \"solidGames.sol\":2917:3109  function getCollections(address user) public view returns(Collection memory){... */\n      swap2\n      swap1\n      pop\n      jump\t// out\n        /* \"solidGames.sol\":1357:1732  function createCollection(string memory cid,string memory t,string memory d,string memory mu,... */\n    tag_35:\n        /* \"solidGames.sol\":1526:1527  1 */\n      0x01\n        /* \"solidGames.sol\":1519:1523  c_id */\n      0x05\n      0x00\n        /* \"solidGames.sol\":1519:1527  c_id +=1 */\n      dup3\n      dup3\n      sload\n      tag_127\n      swap2\n      swap1\n      tag_128\n      jump\t// in\n    tag_127:\n      swap3\n      pop\n      pop\n      dup2\n      swap1\n      sstore\n      pop\n        /* \"solidGames.sol\":1537:1563  addressToCollectionCreated */\n      0x09\n        /* \"solidGames.sol\":1537:1575  addressToCollectionCreated[msg.sender] */\n      0x00\n        /* \"solidGames.sol\":1564:1574  msg.sender */\n      caller\n        /* \"solidGames.sol\":1537:1575  addressToCollectionCreated[msg.sender] */\n      0xffffffffffffffffffffffffffffffffffffffff\n      and\n      0xffffffffffffffffffffffffffffffffffffffff\n      and\n      dup2\n      mstore\n      0x20\n      add\n      swap1\n      dup2\n      mstore\n      0x20\n      add\n      0x00\n      keccak256\n        /* \"solidGames.sol\":1581:1637  Collection(c_id,msg.sender,cid,t,d,mu,cu,g1,g2,giveaway) */\n      mload(0x40)\n      dup1\n      0x0140\n      add\n      0x40\n      mstore\n      dup1\n        /* \"solidGames.sol\":1592:1596  c_id */\n      sload(0x05)\n        /* \"solidGames.sol\":1581:1637  Collection(c_id,msg.sender,cid,t,d,mu,cu,g1,g2,giveaway) */\n      dup2\n      mstore\n      0x20\n      add\n        /* \"solidGames.sol\":1597:1607  msg.sender */\n      caller\n        /* \"solidGames.sol\":1581:1637  Collection(c_id,msg.sender,cid,t,d,mu,cu,g1,g2,giveaway) */\n      0xffffffffffffffffffffffffffffffffffffffff\n      and\n      dup2\n      mstore\n      0x20\n      add\n        /* \"solidGames.sol\":1608:1611  cid */\n      dup11\n        /* \"solidGames.sol\":1581:1637  Collection(c_id,msg.sender,cid,t,d,mu,cu,g1,g2,giveaway) */\n      dup2\n      mstore\n      0x20\n      add\n        /* \"solidGames.sol\":1612:1613  t */\n      dup10\n        /* \"solidGames.sol\":1581:1637  Collection(c_id,msg.sender,cid,t,d,mu,cu,g1,g2,giveaway) */\n      dup2\n      mstore\n      0x20\n      add\n        /* \"solidGames.sol\":1614:1615  d */\n      dup9\n        /* \"solidGames.sol\":1581:1637  Collection(c_id,msg.sender,cid,t,d,mu,cu,g1,g2,giveaway) */\n      dup2\n      mstore\n      0x20\n      add\n        /* \"solidGames.sol\":1616:1618  mu */\n      dup8\n        /* \"solidGames.sol\":1581:1637  Collection(c_id,msg.sender,cid,t,d,mu,cu,g1,g2,giveaway) */\n      dup2\n      mstore\n      0x20\n      add\n        /* \"solidGames.sol\":1619:1621  cu */\n      dup7\n        /* \"solidGames.sol\":1581:1637  Collection(c_id,msg.sender,cid,t,d,mu,cu,g1,g2,giveaway) */\n      dup2\n      mstore\n      0x20\n      add\n        /* \"solidGames.sol\":1622:1624  g1 */\n      dup6\n        /* \"solidGames.sol\":1581:1637  Collection(c_id,msg.sender,cid,t,d,mu,cu,g1,g2,giveaway) */\n      iszero\n      iszero\n      dup2\n      mstore\n      0x20\n      add\n        /* \"solidGames.sol\":1625:1627  g2 */\n      dup5\n        /* \"solidGames.sol\":1581:1637  Collection(c_id,msg.sender,cid,t,d,mu,cu,g1,g2,giveaway) */\n      iszero\n      iszero\n      dup2\n      mstore\n      0x20\n      add\n        /* \"solidGames.sol\":1628:1636  giveaway */\n      dup4\n        /* \"solidGames.sol\":1581:1637  Collection(c_id,msg.sender,cid,t,d,mu,cu,g1,g2,giveaway) */\n      dup2\n      mstore\n      pop\n        /* \"solidGames.sol\":1537:1638  addressToCollectionCreated[msg.sender].push(Collection(c_id,msg.sender,cid,t,d,mu,cu,g1,g2,giveaway)) */\n      swap1\n      dup1\n      0x01\n      dup2\n      sload\n      add\n      dup1\n      dup3\n      sstore\n      dup1\n      swap2\n      pop\n      pop\n      0x01\n      swap1\n      sub\n      swap1\n      0x00\n      mstore\n      keccak256(0x00, 0x20)\n      swap1\n      0x09\n      mul\n      add\n      0x00\n      swap1\n      swap2\n      swap1\n      swap2\n      swap1\n      swap2\n      pop\n      0x00\n      dup3\n      add\n      mload\n      dup2\n      0x00\n      add\n      sstore\n      0x20\n      dup3\n      add\n      mload\n      dup2\n      0x01\n      add\n      exp(0x0100, 0x00)\n      dup2\n      sload\n      dup2\n      0xffffffffffffffffffffffffffffffffffffffff\n      mul\n      not\n      and\n      swap1\n      dup4\n      0xffffffffffffffffffffffffffffffffffffffff\n      and\n      mul\n      or\n      swap1\n      sstore\n      pop\n      0x40\n      dup3\n      add\n      mload\n      dup2\n      0x02\n      add\n      swap1\n      dup1\n      mload\n      swap1\n      0x20\n      add\n      swap1\n      tag_130\n      swap3\n      swap2\n      swap1\n      tag_131\n      jump\t// in\n    tag_130:\n      pop\n      0x60\n      dup3\n      add\n      mload\n      dup2\n      0x03\n      add\n      swap1\n      dup1\n      mload\n      swap1\n      0x20\n      add\n      swap1\n      tag_132\n      swap3\n      swap2\n      swap1\n      tag_131\n      jump\t// in\n    tag_132:\n      pop\n      0x80\n      dup3\n      add\n      mload\n      dup2\n      0x04\n      add\n      swap1\n      dup1\n      mload\n      swap1\n      0x20\n      add\n      swap1\n      tag_133\n      swap3\n      swap2\n      swap1\n      tag_131\n      jump\t// in\n    tag_133:\n      pop\n      0xa0\n      dup3\n      add\n      mload\n      dup2\n      0x05\n      add\n      swap1\n      dup1\n      mload\n      swap1\n      0x20\n      add\n      swap1\n      tag_134\n      swap3\n      swap2\n      swap1\n      tag_131\n      jump\t// in\n    tag_134:\n      pop\n      0xc0\n      dup3\n      add\n      mload\n      dup2\n      0x06\n      add\n      swap1\n      dup1\n      mload\n      swap1\n      0x20\n      add\n      swap1\n      tag_135\n      swap3\n      swap2\n      swap1\n      tag_131\n      jump\t// in\n    tag_135:\n      pop\n      0xe0\n      dup3\n      add\n      mload\n      dup2\n      0x07\n      add\n      exp(0x0100, 0x00)\n      dup2\n      sload\n      dup2\n      0xff\n      mul\n      not\n      and\n      swap1\n      dup4\n      iszero\n      iszero\n      mul\n      or\n      swap1\n      sstore\n      pop\n      0x0100\n      dup3\n      add\n      mload\n      dup2\n      0x07\n      add\n      exp(0x0100, 0x01)\n      dup2\n      sload\n      dup2\n      0xff\n      mul\n      not\n      and\n      swap1\n      dup4\n      iszero\n      iszero\n      mul\n      or\n      swap1\n      sstore\n      pop\n      0x0120\n      dup3\n      add\n      mload\n      dup2\n      0x08\n      add\n      sstore\n      pop\n      pop\n        /* \"solidGames.sol\":1669:1725  Collection(c_id,msg.sender,cid,t,d,mu,cu,g1,g2,giveaway) */\n      mload(0x40)\n      dup1\n      0x0140\n      add\n      0x40\n      mstore\n      dup1\n        /* \"solidGames.sol\":1680:1684  c_id */\n      sload(0x05)\n        /* \"solidGames.sol\":1669:1725  Collection(c_id,msg.sender,cid,t,d,mu,cu,g1,g2,giveaway) */\n      dup2\n      mstore\n      0x20\n      add\n        /* \"solidGames.sol\":1685:1695  msg.sender */\n      caller\n        /* \"solidGames.sol\":1669:1725  Collection(c_id,msg.sender,cid,t,d,mu,cu,g1,g2,giveaway) */\n      0xffffffffffffffffffffffffffffffffffffffff\n      and\n      dup2\n      mstore\n      0x20\n      add\n        /* \"solidGames.sol\":1696:1699  cid */\n      dup10\n        /* \"solidGames.sol\":1669:1725  Collection(c_id,msg.sender,cid,t,d,mu,cu,g1,g2,giveaway) */\n      dup2\n      mstore\n      0x20\n      add\n        /* \"solidGames.sol\":1700:1701  t */\n      dup9\n        /* \"solidGames.sol\":1669:1725  Collection(c_id,msg.sender,cid,t,d,mu,cu,g1,g2,giveaway) */\n      dup2\n      mstore\n      0x20\n      add\n        /* \"solidGames.sol\":1702:1703  d */\n      dup8\n        /* \"solidGames.sol\":1669:1725  Collection(c_id,msg.sender,cid,t,d,mu,cu,g1,g2,giveaway) */\n      dup2\n      mstore\n      0x20\n      add\n        /* \"solidGames.sol\":1704:1706  mu */\n      dup7\n        /* \"solidGames.sol\":1669:1725  Collection(c_id,msg.sender,cid,t,d,mu,cu,g1,g2,giveaway) */\n      dup2\n      mstore\n      0x20\n      add\n        /* \"solidGames.sol\":1707:1709  cu */\n      dup6\n        /* \"solidGames.sol\":1669:1725  Collection(c_id,msg.sender,cid,t,d,mu,cu,g1,g2,giveaway) */\n      dup2\n      mstore\n      0x20\n      add\n        /* \"solidGames.sol\":1710:1712  g1 */\n      dup5\n        /* \"solidGames.sol\":1669:1725  Collection(c_id,msg.sender,cid,t,d,mu,cu,g1,g2,giveaway) */\n      iszero\n      iszero\n      dup2\n      mstore\n      0x20\n      add\n        /* \"solidGames.sol\":1713:1715  g2 */\n      dup4\n        /* \"solidGames.sol\":1669:1725  Collection(c_id,msg.sender,cid,t,d,mu,cu,g1,g2,giveaway) */\n      iszero\n      iszero\n      dup2\n      mstore\n      0x20\n      add\n        /* \"solidGames.sol\":1716:1724  giveaway */\n      dup3\n        /* \"solidGames.sol\":1669:1725  Collection(c_id,msg.sender,cid,t,d,mu,cu,g1,g2,giveaway) */\n      dup2\n      mstore\n      pop\n        /* \"solidGames.sol\":1648:1662  idToCollection */\n      0x0a\n        /* \"solidGames.sol\":1648:1668  idToCollection[c_id] */\n      0x00\n        /* \"solidGames.sol\":1663:1667  c_id */\n      sload(0x05)\n        /* \"solidGames.sol\":1648:1668  idToCollection[c_id] */\n      dup2\n      mstore\n      0x20\n      add\n      swap1\n      dup2\n      mstore\n      0x20\n      add\n      0x00\n      keccak256\n        /* \"solidGames.sol\":1648:1725  idToCollection[c_id]=Collection(c_id,msg.sender,cid,t,d,mu,cu,g1,g2,giveaway) */\n      0x00\n      dup3\n      add\n      mload\n      dup2\n      0x00\n      add\n      sstore\n      0x20\n      dup3\n      add\n      mload\n      dup2\n      0x01\n      add\n      exp(0x0100, 0x00)\n      dup2\n      sload\n      dup2\n      0xffffffffffffffffffffffffffffffffffffffff\n      mul\n      not\n      and\n      swap1\n      dup4\n      0xffffffffffffffffffffffffffffffffffffffff\n      and\n      mul\n      or\n      swap1\n      sstore\n      pop\n      0x40\n      dup3\n      add\n      mload\n      dup2\n      0x02\n      add\n      swap1\n      dup1\n      mload\n      swap1\n      0x20\n      add\n      swap1\n      tag_136\n      swap3\n      swap2\n      swap1\n      tag_131\n      jump\t// in\n    tag_136:\n      pop\n      0x60\n      dup3\n      add\n      mload\n      dup2\n      0x03\n      add\n      swap1\n      dup1\n      mload\n      swap1\n      0x20\n      add\n      swap1\n      tag_137\n      swap3\n      swap2\n      swap1\n      tag_131\n      jump\t// in\n    tag_137:\n      pop\n      0x80\n      dup3\n      add\n      mload\n      dup2\n      0x04\n      add\n      swap1\n      dup1\n      mload\n      swap1\n      0x20\n      add\n      swap1\n      tag_138\n      swap3\n      swap2\n      swap1\n      tag_131\n      jump\t// in\n    tag_138:\n      pop\n      0xa0\n      dup3\n      add\n      mload\n      dup2\n      0x05\n      add\n      swap1\n      dup1\n      mload\n      swap1\n      0x20\n      add\n      swap1\n      tag_139\n      swap3\n      swap2\n      swap1\n      tag_131\n      jump\t// in\n    tag_139:\n      pop\n      0xc0\n      dup3\n      add\n      mload\n      dup2\n      0x06\n      add\n      swap1\n      dup1\n      mload\n      swap1\n      0x20\n      add\n      swap1\n      tag_140\n      swap3\n      swap2\n      swap1\n      tag_131\n      jump\t// in\n    tag_140:\n      pop\n      0xe0\n      dup3\n      add\n      mload\n      dup2\n      0x07\n      add\n      exp(0x0100, 0x00)\n      dup2\n      sload\n      dup2\n      0xff\n      mul\n      not\n      and\n      swap1\n      dup4\n      iszero\n      iszero\n      mul\n      or\n      swap1\n      sstore\n      pop\n      0x0100\n      dup3\n      add\n      mload\n      dup2\n      0x07\n      add\n      exp(0x0100, 0x01)\n      dup2\n      sload\n      dup2\n      0xff\n      mul\n      not\n      and\n      swap1\n      dup4\n      iszero\n      iszero\n      mul\n      or\n      swap1\n      sstore\n      pop\n      0x0120\n      dup3\n      add\n      mload\n      dup2\n      0x08\n      add\n      sstore\n      swap1\n      pop\n      pop\n        /* \"solidGames.sol\":1357:1732  function createCollection(string memory cid,string memory t,string memory d,string memory mu,... */\n      pop\n      pop\n      pop\n      pop\n      pop\n      pop\n      pop\n      pop\n      jump\t// out\n        /* \"solidGames.sol\":1016:1080  mapping(address=>Collection[]) public addressToCollectionCreated */\n    tag_39:\n      mstore(0x20, 0x09)\n      dup2\n      0x00\n      mstore\n      keccak256(0x00, 0x40)\n      dup2\n      dup2\n      sload\n      dup2\n      lt\n      tag_141\n      jumpi\n      0x00\n      dup1\n      revert\n    tag_141:\n      swap1\n      0x00\n      mstore\n      keccak256(0x00, 0x20)\n      swap1\n      0x09\n      mul\n      add\n      0x00\n      swap2\n      pop\n      swap2\n      pop\n      pop\n      dup1\n      0x00\n      add\n      sload\n      swap1\n      dup1\n      0x01\n      add\n      0x00\n      swap1\n      sload\n      swap1\n      0x0100\n      exp\n      swap1\n      div\n      0xffffffffffffffffffffffffffffffffffffffff\n      and\n      swap1\n      dup1\n      0x02\n      add\n      dup1\n      sload\n      tag_143\n      swap1\n      tag_101\n      jump\t// in\n    tag_143:\n      dup1\n      0x1f\n      add\n      0x20\n      dup1\n      swap2\n      div\n      mul\n      0x20\n      add\n      mload(0x40)\n      swap1\n      dup2\n      add\n      0x40\n      mstore\n      dup1\n      swap3\n      swap2\n      swap1\n      dup2\n      dup2\n      mstore\n      0x20\n      add\n      dup3\n      dup1\n      sload\n      tag_144\n      swap1\n      tag_101\n      jump\t// in\n    tag_144:\n      dup1\n      iszero\n      tag_145\n      jumpi\n      dup1\n      0x1f\n      lt\n      tag_146\n      jumpi\n      0x0100\n      dup1\n      dup4\n      sload\n      div\n      mul\n      dup4\n      mstore\n      swap2\n      0x20\n      add\n      swap2\n      jump(tag_145)\n    tag_146:\n      dup3\n      add\n      swap2\n      swap1\n      0x00\n      mstore\n      keccak256(0x00, 0x20)\n      swap1\n    tag_147:\n      dup2\n      sload\n      dup2\n      mstore\n      swap1\n      0x01\n      add\n      swap1\n      0x20\n      add\n      dup1\n      dup4\n      gt\n      tag_147\n      jumpi\n      dup3\n      swap1\n      sub\n      0x1f\n      and\n      dup3\n      add\n      swap2\n    tag_145:\n      pop\n      pop\n      pop\n      pop\n      pop\n      swap1\n      dup1\n      0x03\n      add\n      dup1\n      sload\n      tag_148\n      swap1\n      tag_101\n      jump\t// in\n    tag_148:\n      dup1\n      0x1f\n      add\n      0x20\n      dup1\n      swap2\n      div\n      mul\n      0x20\n      add\n      mload(0x40)\n      swap1\n      dup2\n      add\n      0x40\n      mstore\n      dup1\n      swap3\n      swap2\n      swap1\n      dup2\n      dup2\n      mstore\n      0x20\n      add\n      dup3\n      dup1\n      sload\n      tag_149\n      swap1\n      tag_101\n      jump\t// in\n    tag_149:\n      dup1\n      iszero\n      tag_150\n      jumpi\n      dup1\n      0x1f\n      lt\n      tag_151\n      jumpi\n      0x0100\n      dup1\n      dup4\n      sload\n      div\n      mul\n      dup4\n      mstore\n      swap2\n      0x20\n      add\n      swap2\n      jump(tag_150)\n    tag_151:\n      dup3\n      add\n      swap2\n      swap1\n      0x00\n      mstore\n      keccak256(0x00, 0x20)\n      swap1\n    tag_152:\n      dup2\n      sload\n      dup2\n      mstore\n      swap1\n      0x01\n      add\n      swap1\n      0x20\n      add\n      dup1\n      dup4\n      gt\n      tag_152\n      jumpi\n      dup3\n      swap1\n      sub\n      0x1f\n      and\n      dup3\n      add\n      swap2\n    tag_150:\n      pop\n      pop\n      pop\n      pop\n      pop\n      swap1\n      dup1\n      0x04\n      add\n      dup1\n      sload\n      tag_153\n      swap1\n      tag_101\n      jump\t// in\n    tag_153:\n      dup1\n      0x1f\n      add\n      0x20\n      dup1\n      swap2\n      div\n      mul\n      0x20\n      add\n      mload(0x40)\n      swap1\n      dup2\n      add\n      0x40\n      mstore\n      dup1\n      swap3\n      swap2\n      swap1\n      dup2\n      dup2\n      mstore\n      0x20\n      add\n      dup3\n      dup1\n      sload\n      tag_154\n      swap1\n      tag_101\n      jump\t// in\n    tag_154:\n      dup1\n      iszero\n      tag_155\n      jumpi\n      dup1\n      0x1f\n      lt\n      tag_156\n      jumpi\n      0x0100\n      dup1\n      dup4\n      sload\n      div\n      mul\n      dup4\n      mstore\n      swap2\n      0x20\n      add\n      swap2\n      jump(tag_155)\n    tag_156:\n      dup3\n      add\n      swap2\n      swap1\n      0x00\n      mstore\n      keccak256(0x00, 0x20)\n      swap1\n    tag_157:\n      dup2\n      sload\n      dup2\n      mstore\n      swap1\n      0x01\n      add\n      swap1\n      0x20\n      add\n      dup1\n      dup4\n      gt\n      tag_157\n      jumpi\n      dup3\n      swap1\n      sub\n      0x1f\n      and\n      dup3\n      add\n      swap2\n    tag_155:\n      pop\n      pop\n      pop\n      pop\n      pop\n      swap1\n      dup1\n      0x05\n      add\n      dup1\n      sload\n      tag_158\n      swap1\n      tag_101\n      jump\t// in\n    tag_158:\n      dup1\n      0x1f\n      add\n      0x20\n      dup1\n      swap2\n      div\n      mul\n      0x20\n      add\n      mload(0x40)\n      swap1\n      dup2\n      add\n      0x40\n      mstore\n      dup1\n      swap3\n      swap2\n      swap1\n      dup2\n      dup2\n      mstore\n      0x20\n      add\n      dup3\n      dup1\n      sload\n      tag_159\n      swap1\n      tag_101\n      jump\t// in\n    tag_159:\n      dup1\n      iszero\n      tag_160\n      jumpi\n      dup1\n      0x1f\n      lt\n      tag_161\n      jumpi\n      0x0100\n      dup1\n      dup4\n      sload\n      div\n      mul\n      dup4\n      mstore\n      swap2\n      0x20\n      add\n      swap2\n      jump(tag_160)\n    tag_161:\n      dup3\n      add\n      swap2\n      swap1\n      0x00\n      mstore\n      keccak256(0x00, 0x20)\n      swap1\n    tag_162:\n      dup2\n      sload\n      dup2\n      mstore\n      swap1\n      0x01\n      add\n      swap1\n      0x20\n      add\n      dup1\n      dup4\n      gt\n      tag_162\n      jumpi\n      dup3\n      swap1\n      sub\n      0x1f\n      and\n      dup3\n      add\n      swap2\n    tag_160:\n      pop\n      pop\n      pop\n      pop\n      pop\n      swap1\n      dup1\n      0x06\n      add\n      dup1\n      sload\n      tag_163\n      swap1\n      tag_101\n      jump\t// in\n    tag_163:\n      dup1\n      0x1f\n      add\n      0x20\n      dup1\n      swap2\n      div\n      mul\n      0x20\n      add\n      mload(0x40)\n      swap1\n      dup2\n      add\n      0x40\n      mstore\n      dup1\n      swap3\n      swap2\n      swap1\n      dup2\n      dup2\n      mstore\n      0x20\n      add\n      dup3\n      dup1\n      sload\n      tag_164\n      swap1\n      tag_101\n      jump\t// in\n    tag_164:\n      dup1\n      iszero\n      tag_165\n      jumpi\n      dup1\n      0x1f\n      lt\n      tag_166\n      jumpi\n      0x0100\n      dup1\n      dup4\n      sload\n      div\n      mul\n      dup4\n      mstore\n      swap2\n      0x20\n      add\n      swap2\n      jump(tag_165)\n    tag_166:\n      dup3\n      add\n      swap2\n      swap1\n      0x00\n      mstore\n      keccak256(0x00, 0x20)\n      swap1\n    tag_167:\n      dup2\n      sload\n      dup2\n      mstore\n      swap1\n      0x01\n      add\n      swap1\n      0x20\n      add\n      dup1\n      dup4\n      gt\n      tag_167\n      jumpi\n      dup3\n      swap1\n      sub\n      0x1f\n      and\n      dup3\n      add\n      swap2\n    tag_165:\n      pop\n      pop\n      pop\n      pop\n      pop\n      swap1\n      dup1\n      0x07\n      add\n      0x00\n      swap1\n      sload\n      swap1\n      0x0100\n      exp\n      swap1\n      div\n      0xff\n      and\n      swap1\n      dup1\n      0x07\n      add\n      0x01\n      swap1\n      sload\n      swap1\n      0x0100\n      exp\n      swap1\n      div\n      0xff\n      and\n      swap1\n      dup1\n      0x08\n      add\n      sload\n      swap1\n      pop\n      dup11\n      jump\t// out\n        /* \"solidGames.sol\":1924:2638  function InGame(bool isWinner) public {... */\n    tag_45:\n        /* \"solidGames.sol\":1972:1980  uint len */\n      0x00\n        /* \"solidGames.sol\":1983:2021  getLengthOfUserCollections(msg.sender) */\n      tag_169\n        /* \"solidGames.sol\":2010:2020  msg.sender */\n      caller\n        /* \"solidGames.sol\":1983:2009  getLengthOfUserCollections */\n      tag_24\n        /* \"solidGames.sol\":1983:2021  getLengthOfUserCollections(msg.sender) */\n      jump\t// in\n    tag_169:\n        /* \"solidGames.sol\":1972:2021  uint len = getLengthOfUserCollections(msg.sender) */\n      swap1\n      pop\n        /* \"solidGames.sol\":2043:2069  addressToCollectionCreated */\n      0x09\n        /* \"solidGames.sol\":2043:2081  addressToCollectionCreated[msg.sender] */\n      0x00\n        /* \"solidGames.sol\":2070:2080  msg.sender */\n      caller\n        /* \"solidGames.sol\":2043:2081  addressToCollectionCreated[msg.sender] */\n      0xffffffffffffffffffffffffffffffffffffffff\n      and\n      0xffffffffffffffffffffffffffffffffffffffff\n      and\n      dup2\n      mstore\n      0x20\n      add\n      swap1\n      dup2\n      mstore\n      0x20\n      add\n      0x00\n      keccak256\n        /* \"solidGames.sol\":2086:2087  1 */\n      0x01\n        /* \"solidGames.sol\":2082:2085  len */\n      dup3\n        /* \"solidGames.sol\":2082:2087  len-1 */\n      tag_170\n      swap2\n      swap1\n      tag_95\n      jump\t// in\n    tag_170:\n        /* \"solidGames.sol\":2043:2088  addressToCollectionCreated[msg.sender][len-1] */\n      dup2\n      sload\n      dup2\n      lt\n      tag_171\n      jumpi\n      tag_172\n      tag_98\n      jump\t// in\n    tag_172:\n    tag_171:\n      swap1\n      0x00\n      mstore\n      keccak256(0x00, 0x20)\n      swap1\n      0x09\n      mul\n      add\n        /* \"solidGames.sol\":2043:2096  addressToCollectionCreated[msg.sender][len-1].isGame1 */\n      0x07\n      add\n      0x00\n      swap1\n      sload\n      swap1\n      0x0100\n      exp\n      swap1\n      div\n      0xff\n      and\n        /* \"solidGames.sol\":2040:2632  if(addressToCollectionCreated[msg.sender][len-1].isGame1){... */\n      iszero\n      tag_174\n      jumpi\n        /* \"solidGames.sol\":2120:2121  1 */\n      0x01\n        /* \"solidGames.sol\":2111:2116  g1_id */\n      0x03\n      0x00\n        /* \"solidGames.sol\":2111:2121  g1_id += 1 */\n      dup3\n      dup3\n      sload\n      tag_175\n      swap2\n      swap1\n      tag_128\n      jump\t// in\n    tag_175:\n      swap3\n      pop\n      pop\n      dup2\n      swap1\n      sstore\n      pop\n        /* \"solidGames.sol\":2135:2149  addressToGame1 */\n      0x07\n        /* \"solidGames.sol\":2135:2161  addressToGame1[msg.sender] */\n      0x00\n        /* \"solidGames.sol\":2150:2160  msg.sender */\n      caller\n        /* \"solidGames.sol\":2135:2161  addressToGame1[msg.sender] */\n      0xffffffffffffffffffffffffffffffffffffffff\n      and\n      0xffffffffffffffffffffffffffffffffffffffff\n      and\n      dup2\n      mstore\n      0x20\n      add\n      swap1\n      dup2\n      mstore\n      0x20\n      add\n      0x00\n      keccak256\n        /* \"solidGames.sol\":2167:2188  Game1(g1_id,isWinner) */\n      mload(0x40)\n      dup1\n      0x40\n      add\n      0x40\n      mstore\n      dup1\n        /* \"solidGames.sol\":2173:2178  g1_id */\n      sload(0x03)\n        /* \"solidGames.sol\":2167:2188  Game1(g1_id,isWinner) */\n      dup2\n      mstore\n      0x20\n      add\n        /* \"solidGames.sol\":2179:2187  isWinner */\n      dup5\n        /* \"solidGames.sol\":2167:2188  Game1(g1_id,isWinner) */\n      iszero\n      iszero\n      dup2\n      mstore\n      pop\n        /* \"solidGames.sol\":2135:2189  addressToGame1[msg.sender].push(Game1(g1_id,isWinner)) */\n      swap1\n      dup1\n      0x01\n      dup2\n      sload\n      add\n      dup1\n      dup3\n      sstore\n      dup1\n      swap2\n      pop\n      pop\n      0x01\n      swap1\n      sub\n      swap1\n      0x00\n      mstore\n      keccak256(0x00, 0x20)\n      swap1\n      0x02\n      mul\n      add\n      0x00\n      swap1\n      swap2\n      swap1\n      swap2\n      swap1\n      swap2\n      pop\n      0x00\n      dup3\n      add\n      mload\n      dup2\n      0x00\n      add\n      sstore\n      0x20\n      dup3\n      add\n      mload\n      dup2\n      0x01\n      add\n      exp(0x0100, 0x00)\n      dup2\n      sload\n      dup2\n      0xff\n      mul\n      not\n      and\n      swap1\n      dup4\n      iszero\n      iszero\n      mul\n      or\n      swap1\n      sstore\n      pop\n      pop\n      pop\n        /* \"solidGames.sol\":2240:2241  1 */\n      0x01\n        /* \"solidGames.sol\":2203:2216  addressToUser */\n      0x06\n        /* \"solidGames.sol\":2203:2228  addressToUser[msg.sender] */\n      0x00\n        /* \"solidGames.sol\":2217:2227  msg.sender */\n      caller\n        /* \"solidGames.sol\":2203:2228  addressToUser[msg.sender] */\n      0xffffffffffffffffffffffffffffffffffffffff\n      and\n      0xffffffffffffffffffffffffffffffffffffffff\n      and\n      dup2\n      mstore\n      0x20\n      add\n      swap1\n      dup2\n      mstore\n      0x20\n      add\n      0x00\n      keccak256\n        /* \"solidGames.sol\":2203:2236  addressToUser[msg.sender].noGame1 */\n      0x03\n      add\n      0x00\n        /* \"solidGames.sol\":2203:2241  addressToUser[msg.sender].noGame1 += 1 */\n      dup3\n      dup3\n      sload\n      tag_177\n      swap2\n      swap1\n      tag_128\n      jump\t// in\n    tag_177:\n      swap3\n      pop\n      pop\n      dup2\n      swap1\n      sstore\n      pop\n        /* \"solidGames.sol\":2258:2266  isWinner */\n      dup2\n        /* \"solidGames.sol\":2255:2348  if(isWinner){... */\n      iszero\n      tag_178\n      jumpi\n        /* \"solidGames.sol\":2332:2333  1 */\n      0x01\n        /* \"solidGames.sol\":2285:2298  addressToUser */\n      0x06\n        /* \"solidGames.sol\":2285:2310  addressToUser[msg.sender] */\n      0x00\n        /* \"solidGames.sol\":2299:2309  msg.sender */\n      caller\n        /* \"solidGames.sol\":2285:2310  addressToUser[msg.sender] */\n      0xffffffffffffffffffffffffffffffffffffffff\n      and\n      0xffffffffffffffffffffffffffffffffffffffff\n      and\n      dup2\n      mstore\n      0x20\n      add\n      swap1\n      dup2\n      mstore\n      0x20\n      add\n      0x00\n      keccak256\n        /* \"solidGames.sol\":2285:2328  addressToUser[msg.sender].noOfWinnerInGame1 */\n      0x05\n      add\n      0x00\n        /* \"solidGames.sol\":2285:2333  addressToUser[msg.sender].noOfWinnerInGame1 += 1 */\n      dup3\n      dup3\n      sload\n      tag_179\n      swap2\n      swap1\n      tag_128\n      jump\t// in\n    tag_179:\n      swap3\n      pop\n      pop\n      dup2\n      swap1\n      sstore\n      pop\n        /* \"solidGames.sol\":2255:2348  if(isWinner){... */\n    tag_178:\n        /* \"solidGames.sol\":2040:2632  if(addressToCollectionCreated[msg.sender][len-1].isGame1){... */\n      jump(tag_180)\n    tag_174:\n        /* \"solidGames.sol\":2394:2395  1 */\n      0x01\n        /* \"solidGames.sol\":2385:2390  g2_id */\n      0x04\n      0x00\n        /* \"solidGames.sol\":2385:2395  g2_id += 1 */\n      dup3\n      dup3\n      sload\n      tag_181\n      swap2\n      swap1\n      tag_128\n      jump\t// in\n    tag_181:\n      swap3\n      pop\n      pop\n      dup2\n      swap1\n      sstore\n      pop\n        /* \"solidGames.sol\":2409:2423  addressToGame1 */\n      0x07\n        /* \"solidGames.sol\":2409:2435  addressToGame1[msg.sender] */\n      0x00\n        /* \"solidGames.sol\":2424:2434  msg.sender */\n      caller\n        /* \"solidGames.sol\":2409:2435  addressToGame1[msg.sender] */\n      0xffffffffffffffffffffffffffffffffffffffff\n      and\n      0xffffffffffffffffffffffffffffffffffffffff\n      and\n      dup2\n      mstore\n      0x20\n      add\n      swap1\n      dup2\n      mstore\n      0x20\n      add\n      0x00\n      keccak256\n        /* \"solidGames.sol\":2441:2462  Game1(g2_id,isWinner) */\n      mload(0x40)\n      dup1\n      0x40\n      add\n      0x40\n      mstore\n      dup1\n        /* \"solidGames.sol\":2447:2452  g2_id */\n      sload(0x04)\n        /* \"solidGames.sol\":2441:2462  Game1(g2_id,isWinner) */\n      dup2\n      mstore\n      0x20\n      add\n        /* \"solidGames.sol\":2453:2461  isWinner */\n      dup5\n        /* \"solidGames.sol\":2441:2462  Game1(g2_id,isWinner) */\n      iszero\n      iszero\n      dup2\n      mstore\n      pop\n        /* \"solidGames.sol\":2409:2463  addressToGame1[msg.sender].push(Game1(g2_id,isWinner)) */\n      swap1\n      dup1\n      0x01\n      dup2\n      sload\n      add\n      dup1\n      dup3\n      sstore\n      dup1\n      swap2\n      pop\n      pop\n      0x01\n      swap1\n      sub\n      swap1\n      0x00\n      mstore\n      keccak256(0x00, 0x20)\n      swap1\n      0x02\n      mul\n      add\n      0x00\n      swap1\n      swap2\n      swap1\n      swap2\n      swap1\n      swap2\n      pop\n      0x00\n      dup3\n      add\n      mload\n      dup2\n      0x00\n      add\n      sstore\n      0x20\n      dup3\n      add\n      mload\n      dup2\n      0x01\n      add\n      exp(0x0100, 0x00)\n      dup2\n      sload\n      dup2\n      0xff\n      mul\n      not\n      and\n      swap1\n      dup4\n      iszero\n      iszero\n      mul\n      or\n      swap1\n      sstore\n      pop\n      pop\n      pop\n        /* \"solidGames.sol\":2514:2515  1 */\n      0x01\n        /* \"solidGames.sol\":2477:2490  addressToUser */\n      0x06\n        /* \"solidGames.sol\":2477:2502  addressToUser[msg.sender] */\n      0x00\n        /* \"solidGames.sol\":2491:2501  msg.sender */\n      caller\n        /* \"solidGames.sol\":2477:2502  addressToUser[msg.sender] */\n      0xffffffffffffffffffffffffffffffffffffffff\n      and\n      0xffffffffffffffffffffffffffffffffffffffff\n      and\n      dup2\n      mstore\n      0x20\n      add\n      swap1\n      dup2\n      mstore\n      0x20\n      add\n      0x00\n      keccak256\n        /* \"solidGames.sol\":2477:2510  addressToUser[msg.sender].noGame2 */\n      0x04\n      add\n      0x00\n        /* \"solidGames.sol\":2477:2515  addressToUser[msg.sender].noGame2 += 1 */\n      dup3\n      dup3\n      sload\n      tag_183\n      swap2\n      swap1\n      tag_128\n      jump\t// in\n    tag_183:\n      swap3\n      pop\n      pop\n      dup2\n      swap1\n      sstore\n      pop\n        /* \"solidGames.sol\":2532:2540  isWinner */\n      dup2\n        /* \"solidGames.sol\":2529:2622  if(isWinner){... */\n      iszero\n      tag_184\n      jumpi\n        /* \"solidGames.sol\":2606:2607  1 */\n      0x01\n        /* \"solidGames.sol\":2559:2572  addressToUser */\n      0x06\n        /* \"solidGames.sol\":2559:2584  addressToUser[msg.sender] */\n      0x00\n        /* \"solidGames.sol\":2573:2583  msg.sender */\n      caller\n        /* \"solidGames.sol\":2559:2584  addressToUser[msg.sender] */\n      0xffffffffffffffffffffffffffffffffffffffff\n      and\n      0xffffffffffffffffffffffffffffffffffffffff\n      and\n      dup2\n      mstore\n      0x20\n      add\n      swap1\n      dup2\n      mstore\n      0x20\n      add\n      0x00\n      keccak256\n        /* \"solidGames.sol\":2559:2602  addressToUser[msg.sender].noOfWinnerInGame2 */\n      0x06\n      add\n      0x00\n        /* \"solidGames.sol\":2559:2607  addressToUser[msg.sender].noOfWinnerInGame2 += 1 */\n      dup3\n      dup3\n      sload\n      tag_185\n      swap2\n      swap1\n      tag_128\n      jump\t// in\n    tag_185:\n      swap3\n      pop\n      pop\n      dup2\n      swap1\n      sstore\n      pop\n        /* \"solidGames.sol\":2529:2622  if(isWinner){... */\n    tag_184:\n        /* \"solidGames.sol\":2040:2632  if(addressToCollectionCreated[msg.sender][len-1].isGame1){... */\n    tag_180:\n        /* \"solidGames.sol\":1962:2638  {... */\n      pop\n        /* \"solidGames.sol\":1924:2638  function InGame(bool isWinner) public {... */\n      pop\n      jump\t// out\n        /* \"solidGames.sol\":3119:3227  function getUserInfo() public view returns(UserInfo memory){... */\n    tag_47:\n        /* \"solidGames.sol\":3162:3177  UserInfo memory */\n      tag_186\n      tag_187\n      jump\t// in\n    tag_186:\n        /* \"solidGames.sol\":3195:3208  addressToUser */\n      0x06\n        /* \"solidGames.sol\":3195:3220  addressToUser[msg.sender] */\n      0x00\n        /* \"solidGames.sol\":3209:3219  msg.sender */\n      caller\n        /* \"solidGames.sol\":3195:3220  addressToUser[msg.sender] */\n      0xffffffffffffffffffffffffffffffffffffffff\n      and\n      0xffffffffffffffffffffffffffffffffffffffff\n      and\n      dup2\n      mstore\n      0x20\n      add\n      swap1\n      dup2\n      mstore\n      0x20\n      add\n      0x00\n      keccak256\n        /* \"solidGames.sol\":3188:3220  return addressToUser[msg.sender] */\n      mload(0x40)\n      dup1\n      0xe0\n      add\n      0x40\n      mstore\n      swap1\n      dup2\n      0x00\n      dup3\n      add\n      0x00\n      swap1\n      sload\n      swap1\n      0x0100\n      exp\n      swap1\n      div\n      0xffffffffffffffffffffffffffffffffffffffff\n      and\n      0xffffffffffffffffffffffffffffffffffffffff\n      and\n      0xffffffffffffffffffffffffffffffffffffffff\n      and\n      dup2\n      mstore\n      0x20\n      add\n      0x01\n      dup3\n      add\n      dup1\n      sload\n      tag_189\n      swap1\n      tag_101\n      jump\t// in\n    tag_189:\n      dup1\n      0x1f\n      add\n      0x20\n      dup1\n      swap2\n      div\n      mul\n      0x20\n      add\n      mload(0x40)\n      swap1\n      dup2\n      add\n      0x40\n      mstore\n      dup1\n      swap3\n      swap2\n      swap1\n      dup2\n      dup2\n      mstore\n      0x20\n      add\n      dup3\n      dup1\n      sload\n      tag_190\n      swap1\n      tag_101\n      jump\t// in\n    tag_190:\n      dup1\n      iszero\n      tag_191\n      jumpi\n      dup1\n      0x1f\n      lt\n      tag_192\n      jumpi\n      0x0100\n      dup1\n      dup4\n      sload\n      div\n      mul\n      dup4\n      mstore\n      swap2\n      0x20\n      add\n      swap2\n      jump(tag_191)\n    tag_192:\n      dup3\n      add\n      swap2\n      swap1\n      0x00\n      mstore\n      keccak256(0x00, 0x20)\n      swap1\n    tag_193:\n      dup2\n      sload\n      dup2\n      mstore\n      swap1\n      0x01\n      add\n      swap1\n      0x20\n      add\n      dup1\n      dup4\n      gt\n      tag_193\n      jumpi\n      dup3\n      swap1\n      sub\n      0x1f\n      and\n      dup3\n      add\n      swap2\n    tag_191:\n      pop\n      pop\n      pop\n      pop\n      pop\n      dup2\n      mstore\n      0x20\n      add\n      0x02\n      dup3\n      add\n      dup1\n      sload\n      dup1\n      0x20\n      mul\n      0x20\n      add\n      mload(0x40)\n      swap1\n      dup2\n      add\n      0x40\n      mstore\n      dup1\n      swap3\n      swap2\n      swap1\n      dup2\n      dup2\n      mstore\n      0x20\n      add\n      dup3\n      dup1\n      sload\n      dup1\n      iszero\n      tag_194\n      jumpi\n      0x20\n      mul\n      dup3\n      add\n      swap2\n      swap1\n      0x00\n      mstore\n      keccak256(0x00, 0x20)\n      swap1\n    tag_195:\n      dup2\n      sload\n      dup2\n      mstore\n      0x20\n      add\n      swap1\n      0x01\n      add\n      swap1\n      dup1\n      dup4\n      gt\n      tag_195\n      jumpi\n    tag_194:\n      pop\n      pop\n      pop\n      pop\n      pop\n      dup2\n      mstore\n      0x20\n      add\n      0x03\n      dup3\n      add\n      sload\n      dup2\n      mstore\n      0x20\n      add\n      0x04\n      dup3\n      add\n      sload\n      dup2\n      mstore\n      0x20\n      add\n      0x05\n      dup3\n      add\n      sload\n      dup2\n      mstore\n      0x20\n      add\n      0x06\n      dup3\n      add\n      sload\n      dup2\n      mstore\n      pop\n      pop\n      swap1\n      pop\n        /* \"solidGames.sol\":3119:3227  function getUserInfo() public view returns(UserInfo memory){... */\n      swap1\n      jump\t// out\n        /* \"solidGames.sol\":1141:1190  mapping(uint=>address[]) public usersInCollection */\n    tag_53:\n      mstore(0x20, 0x0b)\n      dup2\n      0x00\n      mstore\n      keccak256(0x00, 0x40)\n      dup2\n      dup2\n      sload\n      dup2\n      lt\n      tag_196\n      jumpi\n      0x00\n      dup1\n      revert\n    tag_196:\n      swap1\n      0x00\n      mstore\n      keccak256(0x00, 0x20)\n      add\n      0x00\n      swap2\n      pop\n      swap2\n      pop\n      swap1\n      sload\n      swap1\n      0x0100\n      exp\n      swap1\n      div\n      0xffffffffffffffffffffffffffffffffffffffff\n      and\n      dup2\n      jump\t// out\n        /* \"solidGames.sol\":910:957  mapping(address=>Game1[]) public addressToGame1 */\n    tag_58:\n      mstore(0x20, 0x07)\n      dup2\n      0x00\n      mstore\n      keccak256(0x00, 0x40)\n      dup2\n      dup2\n      sload\n      dup2\n      lt\n      tag_198\n      jumpi\n      0x00\n      dup1\n      revert\n    tag_198:\n      swap1\n      0x00\n      mstore\n      keccak256(0x00, 0x20)\n      swap1\n      0x02\n      mul\n      add\n      0x00\n      swap2\n      pop\n      swap2\n      pop\n      pop\n      dup1\n      0x00\n      add\n      sload\n      swap1\n      dup1\n      0x01\n      add\n      0x00\n      swap1\n      sload\n      swap1\n      0x0100\n      exp\n      swap1\n      div\n      0xff\n      and\n      swap1\n      pop\n      dup3\n      jump\t// out\n        /* \"solidGames.sol\":3233:3313  function getCollectionId() public view returns(uint){... */\n    tag_62:\n        /* \"solidGames.sol\":3280:3284  uint */\n      0x00\n        /* \"solidGames.sol\":3302:3306  c_id */\n      sload(0x05)\n        /* \"solidGames.sol\":3295:3306  return c_id */\n      swap1\n      pop\n        /* \"solidGames.sol\":3233:3313  function getCollectionId() public view returns(uint){... */\n      swap1\n      jump\t// out\n        /* \"solidGames.sol\":1738:1918  function participate(uint coll_id) public{        ... */\n    tag_67:\n        /* \"solidGames.sol\":1797:1810  addressToUser */\n      0x06\n        /* \"solidGames.sol\":1797:1822  addressToUser[msg.sender] */\n      0x00\n        /* \"solidGames.sol\":1811:1821  msg.sender */\n      caller\n        /* \"solidGames.sol\":1797:1822  addressToUser[msg.sender] */\n      0xffffffffffffffffffffffffffffffffffffffff\n      and\n      0xffffffffffffffffffffffffffffffffffffffff\n      and\n      dup2\n      mstore\n      0x20\n      add\n      swap1\n      dup2\n      mstore\n      0x20\n      add\n      0x00\n      keccak256\n        /* \"solidGames.sol\":1797:1836  addressToUser[msg.sender].collection_id */\n      0x02\n      add\n        /* \"solidGames.sol\":1842:1849  coll_id */\n      dup2\n        /* \"solidGames.sol\":1797:1850  addressToUser[msg.sender].collection_id.push(coll_id) */\n      swap1\n      dup1\n      0x01\n      dup2\n      sload\n      add\n      dup1\n      dup3\n      sstore\n      dup1\n      swap2\n      pop\n      pop\n      0x01\n      swap1\n      sub\n      swap1\n      0x00\n      mstore\n      keccak256(0x00, 0x20)\n      add\n      0x00\n      swap1\n      swap2\n      swap1\n      swap2\n      swap1\n      swap2\n      pop\n      sstore\n        /* \"solidGames.sol\":1864:1881  usersInCollection */\n      0x0b\n        /* \"solidGames.sol\":1864:1890  usersInCollection[coll_id] */\n      0x00\n        /* \"solidGames.sol\":1882:1889  coll_id */\n      dup3\n        /* \"solidGames.sol\":1864:1890  usersInCollection[coll_id] */\n      dup2\n      mstore\n      0x20\n      add\n      swap1\n      dup2\n      mstore\n      0x20\n      add\n      0x00\n      keccak256\n        /* \"solidGames.sol\":1896:1906  msg.sender */\n      caller\n        /* \"solidGames.sol\":1864:1907  usersInCollection[coll_id].push(msg.sender) */\n      swap1\n      dup1\n      0x01\n      dup2\n      sload\n      add\n      dup1\n      dup3\n      sstore\n      dup1\n      swap2\n      pop\n      pop\n      0x01\n      swap1\n      sub\n      swap1\n      0x00\n      mstore\n      keccak256(0x00, 0x20)\n      add\n      0x00\n      swap1\n      swap2\n      swap1\n      swap2\n      swap1\n      swap2\n      0x0100\n      exp\n      dup2\n      sload\n      dup2\n      0xffffffffffffffffffffffffffffffffffffffff\n      mul\n      not\n      and\n      swap1\n      dup4\n      0xffffffffffffffffffffffffffffffffffffffff\n      and\n      mul\n      or\n      swap1\n      sstore\n      pop\n        /* \"solidGames.sol\":1738:1918  function participate(uint coll_id) public{        ... */\n      pop\n      jump\t// out\n        /* \"solidGames.sol\":1197:1351  function CreateProfile(string memory name) public{... */\n    tag_71:\n        /* \"solidGames.sol\":1289:1299  msg.sender */\n      caller\n        /* \"solidGames.sol\":1256:1269  addressToUser */\n      0x06\n        /* \"solidGames.sol\":1256:1281  addressToUser[msg.sender] */\n      0x00\n        /* \"solidGames.sol\":1270:1280  msg.sender */\n      caller\n        /* \"solidGames.sol\":1256:1281  addressToUser[msg.sender] */\n      0xffffffffffffffffffffffffffffffffffffffff\n      and\n      0xffffffffffffffffffffffffffffffffffffffff\n      and\n      dup2\n      mstore\n      0x20\n      add\n      swap1\n      dup2\n      mstore\n      0x20\n      add\n      0x00\n      keccak256\n        /* \"solidGames.sol\":1256:1286  addressToUser[msg.sender].user */\n      0x00\n      add\n      0x00\n        /* \"solidGames.sol\":1256:1299  addressToUser[msg.sender].user = msg.sender */\n      0x0100\n      exp\n      dup2\n      sload\n      dup2\n      0xffffffffffffffffffffffffffffffffffffffff\n      mul\n      not\n      and\n      swap1\n      dup4\n      0xffffffffffffffffffffffffffffffffffffffff\n      and\n      mul\n      or\n      swap1\n      sstore\n      pop\n        /* \"solidGames.sol\":1340:1344  name */\n      dup1\n        /* \"solidGames.sol\":1309:1322  addressToUser */\n      0x06\n        /* \"solidGames.sol\":1309:1334  addressToUser[msg.sender] */\n      0x00\n        /* \"solidGames.sol\":1323:1333  msg.sender */\n      caller\n        /* \"solidGames.sol\":1309:1334  addressToUser[msg.sender] */\n      0xffffffffffffffffffffffffffffffffffffffff\n      and\n      0xffffffffffffffffffffffffffffffffffffffff\n      and\n      dup2\n      mstore\n      0x20\n      add\n      swap1\n      dup2\n      mstore\n      0x20\n      add\n      0x00\n      keccak256\n        /* \"solidGames.sol\":1309:1339  addressToUser[msg.sender].name */\n      0x01\n      add\n        /* \"solidGames.sol\":1309:1344  addressToUser[msg.sender].name=name */\n      swap1\n      dup1\n      mload\n      swap1\n      0x20\n      add\n      swap1\n      tag_205\n      swap3\n      swap2\n      swap1\n      tag_131\n      jump\t// in\n    tag_205:\n      pop\n        /* \"solidGames.sol\":1197:1351  function CreateProfile(string memory name) public{... */\n      pop\n      jump\t// out\n        /* \"solidGames.sol\":963:1010  mapping(address=>Game2[]) public addressToGame2 */\n    tag_74:\n      mstore(0x20, 0x08)\n      dup2\n      0x00\n      mstore\n      keccak256(0x00, 0x40)\n      dup2\n      dup2\n      sload\n      dup2\n      lt\n      tag_206\n      jumpi\n      0x00\n      dup1\n      revert\n    tag_206:\n      swap1\n      0x00\n      mstore\n      keccak256(0x00, 0x20)\n      swap1\n      0x02\n      mul\n      add\n      0x00\n      swap2\n      pop\n      swap2\n      pop\n      pop\n      dup1\n      0x00\n      add\n      sload\n      swap1\n      dup1\n      0x01\n      add\n      0x00\n      swap1\n      sload\n      swap1\n      0x0100\n      exp\n      swap1\n      div\n      0xff\n      and\n      swap1\n      pop\n      dup3\n      jump\t// out\n        /* \"solidGames.sol\":1086:1135  mapping(uint => Collection) public idToCollection */\n    tag_78:\n      mstore(0x20, 0x0a)\n      dup1\n      0x00\n      mstore\n      keccak256(0x00, 0x40)\n      0x00\n      swap2\n      pop\n      swap1\n      pop\n      dup1\n      0x00\n      add\n      sload\n      swap1\n      dup1\n      0x01\n      add\n      0x00\n      swap1\n      sload\n      swap1\n      0x0100\n      exp\n      swap1\n      div\n      0xffffffffffffffffffffffffffffffffffffffff\n      and\n      swap1\n      dup1\n      0x02\n      add\n      dup1\n      sload\n      tag_208\n      swap1\n      tag_101\n      jump\t// in\n    tag_208:\n      dup1\n      0x1f\n      add\n      0x20\n      dup1\n      swap2\n      div\n      mul\n      0x20\n      add\n      mload(0x40)\n      swap1\n      dup2\n      add\n      0x40\n      mstore\n      dup1\n      swap3\n      swap2\n      swap1\n      dup2\n      dup2\n      mstore\n      0x20\n      add\n      dup3\n      dup1\n      sload\n      tag_209\n      swap1\n      tag_101\n      jump\t// in\n    tag_209:\n      dup1\n      iszero\n      tag_210\n      jumpi\n      dup1\n      0x1f\n      lt\n      tag_211\n      jumpi\n      0x0100\n      dup1\n      dup4\n      sload\n      div\n      mul\n      dup4\n      mstore\n      swap2\n      0x20\n      add\n      swap2\n      jump(tag_210)\n    tag_211:\n      dup3\n      add\n      swap2\n      swap1\n      0x00\n      mstore\n      keccak256(0x00, 0x20)\n      swap1\n    tag_212:\n      dup2\n      sload\n      dup2\n      mstore\n      swap1\n      0x01\n      add\n      swap1\n      0x20\n      add\n      dup1\n      dup4\n      gt\n      tag_212\n      jumpi\n      dup3\n      swap1\n      sub\n      0x1f\n      and\n      dup3\n      add\n      swap2\n    tag_210:\n      pop\n      pop\n      pop\n      pop\n      pop\n      swap1\n      dup1\n      0x03\n      add\n      dup1\n      sload\n      tag_213\n      swap1\n      tag_101\n      jump\t// in\n    tag_213:\n      dup1\n      0x1f\n      add\n      0x20\n      dup1\n      swap2\n      div\n      mul\n      0x20\n      add\n      mload(0x40)\n      swap1\n      dup2\n      add\n      0x40\n      mstore\n      dup1\n      swap3\n      swap2\n      swap1\n      dup2\n      dup2\n      mstore\n      0x20\n      add\n      dup3\n      dup1\n      sload\n      tag_214\n      swap1\n      tag_101\n      jump\t// in\n    tag_214:\n      dup1\n      iszero\n      tag_215\n      jumpi\n      dup1\n      0x1f\n      lt\n      tag_216\n      jumpi\n      0x0100\n      dup1\n      dup4\n      sload\n      div\n      mul\n      dup4\n      mstore\n      swap2\n      0x20\n      add\n      swap2\n      jump(tag_215)\n    tag_216:\n      dup3\n      add\n      swap2\n      swap1\n      0x00\n      mstore\n      keccak256(0x00, 0x20)\n      swap1\n    tag_217:\n      dup2\n      sload\n      dup2\n      mstore\n      swap1\n      0x01\n      add\n      swap1\n      0x20\n      add\n      dup1\n      dup4\n      gt\n      tag_217\n      jumpi\n      dup3\n      swap1\n      sub\n      0x1f\n      and\n      dup3\n      add\n      swap2\n    tag_215:\n      pop\n      pop\n      pop\n      pop\n      pop\n      swap1\n      dup1\n      0x04\n      add\n      dup1\n      sload\n      tag_218\n      swap1\n      tag_101\n      jump\t// in\n    tag_218:\n      dup1\n      0x1f\n      add\n      0x20\n      dup1\n      swap2\n      div\n      mul\n      0x20\n      add\n      mload(0x40)\n      swap1\n      dup2\n      add\n      0x40\n      mstore\n      dup1\n      swap3\n      swap2\n      swap1\n      dup2\n      dup2\n      mstore\n      0x20\n      add\n      dup3\n      dup1\n      sload\n      tag_219\n      swap1\n      tag_101\n      jump\t// in\n    tag_219:\n      dup1\n      iszero\n      tag_220\n      jumpi\n      dup1\n      0x1f\n      lt\n      tag_221\n      jumpi\n      0x0100\n      dup1\n      dup4\n      sload\n      div\n      mul\n      dup4\n      mstore\n      swap2\n      0x20\n      add\n      swap2\n      jump(tag_220)\n    tag_221:\n      dup3\n      add\n      swap2\n      swap1\n      0x00\n      mstore\n      keccak256(0x00, 0x20)\n      swap1\n    tag_222:\n      dup2\n      sload\n      dup2\n      mstore\n      swap1\n      0x01\n      add\n      swap1\n      0x20\n      add\n      dup1\n      dup4\n      gt\n      tag_222\n      jumpi\n      dup3\n      swap1\n      sub\n      0x1f\n      and\n      dup3\n      add\n      swap2\n    tag_220:\n      pop\n      pop\n      pop\n      pop\n      pop\n      swap1\n      dup1\n      0x05\n      add\n      dup1\n      sload\n      tag_223\n      swap1\n      tag_101\n      jump\t// in\n    tag_223:\n      dup1\n      0x1f\n      add\n      0x20\n      dup1\n      swap2\n      div\n      mul\n      0x20\n      add\n      mload(0x40)\n      swap1\n      dup2\n      add\n      0x40\n      mstore\n      dup1\n      swap3\n      swap2\n      swap1\n      dup2\n      dup2\n      mstore\n      0x20\n      add\n      dup3\n      dup1\n      sload\n      tag_224\n      swap1\n      tag_101\n      jump\t// in\n    tag_224:\n      dup1\n      iszero\n      tag_225\n      jumpi\n      dup1\n      0x1f\n      lt\n      tag_226\n      jumpi\n      0x0100\n      dup1\n      dup4\n      sload\n      div\n      mul\n      dup4\n      mstore\n      swap2\n      0x20\n      add\n      swap2\n      jump(tag_225)\n    tag_226:\n      dup3\n      add\n      swap2\n      swap1\n      0x00\n      mstore\n      keccak256(0x00, 0x20)\n      swap1\n    tag_227:\n      dup2\n      sload\n      dup2\n      mstore\n      swap1\n      0x01\n      add\n      swap1\n      0x20\n      add\n      dup1\n      dup4\n      gt\n      tag_227\n      jumpi\n      dup3\n      swap1\n      sub\n      0x1f\n      and\n      dup3\n      add\n      swap2\n    tag_225:\n      pop\n      pop\n      pop\n      pop\n      pop\n      swap1\n      dup1\n      0x06\n      add\n      dup1\n      sload\n      tag_228\n      swap1\n      tag_101\n      jump\t// in\n    tag_228:\n      dup1\n      0x1f\n      add\n      0x20\n      dup1\n      swap2\n      div\n      mul\n      0x20\n      add\n      mload(0x40)\n      swap1\n      dup2\n      add\n      0x40\n      mstore\n      dup1\n      swap3\n      swap2\n      swap1\n      dup2\n      dup2\n      mstore\n      0x20\n      add\n      dup3\n      dup1\n      sload\n      tag_229\n      swap1\n      tag_101\n      jump\t// in\n    tag_229:\n      dup1\n      iszero\n      tag_230\n      jumpi\n      dup1\n      0x1f\n      lt\n      tag_231\n      jumpi\n      0x0100\n      dup1\n      dup4\n      sload\n      div\n      mul\n      dup4\n      mstore\n      swap2\n      0x20\n      add\n      swap2\n      jump(tag_230)\n    tag_231:\n      dup3\n      add\n      swap2\n      swap1\n      0x00\n      mstore\n      keccak256(0x00, 0x20)\n      swap1\n    tag_232:\n      dup2\n      sload\n      dup2\n      mstore\n      swap1\n      0x01\n      add\n      swap1\n      0x20\n      add\n      dup1\n      dup4\n      gt\n      tag_232\n      jumpi\n      dup3\n      swap1\n      sub\n      0x1f\n      and\n      dup3\n      add\n      swap2\n    tag_230:\n      pop\n      pop\n      pop\n      pop\n      pop\n      swap1\n      dup1\n      0x07\n      add\n      0x00\n      swap1\n      sload\n      swap1\n      0x0100\n      exp\n      swap1\n      div\n      0xff\n      and\n      swap1\n      dup1\n      0x07\n      add\n      0x01\n      swap1\n      sload\n      swap1\n      0x0100\n      exp\n      swap1\n      div\n      0xff\n      and\n      swap1\n      dup1\n      0x08\n      add\n      sload\n      swap1\n      pop\n      dup11\n      jump\t// out\n        /* \"solidGames.sol\":857:904  mapping(address=>UserInfo) public addressToUser */\n    tag_82:\n      mstore(0x20, 0x06)\n      dup1\n      0x00\n      mstore\n      keccak256(0x00, 0x40)\n      0x00\n      swap2\n      pop\n      swap1\n      pop\n      dup1\n      0x00\n      add\n      0x00\n      swap1\n      sload\n      swap1\n      0x0100\n      exp\n      swap1\n      div\n      0xffffffffffffffffffffffffffffffffffffffff\n      and\n      swap1\n      dup1\n      0x01\n      add\n      dup1\n      sload\n      tag_233\n      swap1\n      tag_101\n      jump\t// in\n    tag_233:\n      dup1\n      0x1f\n      add\n      0x20\n      dup1\n      swap2\n      div\n      mul\n      0x20\n      add\n      mload(0x40)\n      swap1\n      dup2\n      add\n      0x40\n      mstore\n      dup1\n      swap3\n      swap2\n      swap1\n      dup2\n      dup2\n      mstore\n      0x20\n      add\n      dup3\n      dup1\n      sload\n      tag_234\n      swap1\n      tag_101\n      jump\t// in\n    tag_234:\n      dup1\n      iszero\n      tag_235\n      jumpi\n      dup1\n      0x1f\n      lt\n      tag_236\n      jumpi\n      0x0100\n      dup1\n      dup4\n      sload\n      div\n      mul\n      dup4\n      mstore\n      swap2\n      0x20\n      add\n      swap2\n      jump(tag_235)\n    tag_236:\n      dup3\n      add\n      swap2\n      swap1\n      0x00\n      mstore\n      keccak256(0x00, 0x20)\n      swap1\n    tag_237:\n      dup2\n      sload\n      dup2\n      mstore\n      swap1\n      0x01\n      add\n      swap1\n      0x20\n      add\n      dup1\n      dup4\n      gt\n      tag_237\n      jumpi\n      dup3\n      swap1\n      sub\n      0x1f\n      and\n      dup3\n      add\n      swap2\n    tag_235:\n      pop\n      pop\n      pop\n      pop\n      pop\n      swap1\n      dup1\n      0x03\n      add\n      sload\n      swap1\n      dup1\n      0x04\n      add\n      sload\n      swap1\n      dup1\n      0x05\n      add\n      sload\n      swap1\n      dup1\n      0x06\n      add\n      sload\n      swap1\n      pop\n      dup7\n      jump\t// out\n        /* \"solidGames.sol\":2644:2759  function getAllCollection(uint id) public view returns(Collection memory){... */\n    tag_87:\n        /* \"solidGames.sol\":2699:2716  Collection memory */\n      tag_238\n      tag_91\n      jump\t// in\n    tag_238:\n        /* \"solidGames.sol\":2734:2748  idToCollection */\n      0x0a\n        /* \"solidGames.sol\":2734:2752  idToCollection[id] */\n      0x00\n        /* \"solidGames.sol\":2749:2751  id */\n      dup4\n        /* \"solidGames.sol\":2734:2752  idToCollection[id] */\n      dup2\n      mstore\n      0x20\n      add\n      swap1\n      dup2\n      mstore\n      0x20\n      add\n      0x00\n      keccak256\n        /* \"solidGames.sol\":2727:2752  return idToCollection[id] */\n      mload(0x40)\n      dup1\n      0x0140\n      add\n      0x40\n      mstore\n      swap1\n      dup2\n      0x00\n      dup3\n      add\n      sload\n      dup2\n      mstore\n      0x20\n      add\n      0x01\n      dup3\n      add\n      0x00\n      swap1\n      sload\n      swap1\n      0x0100\n      exp\n      swap1\n      div\n      0xffffffffffffffffffffffffffffffffffffffff\n      and\n      0xffffffffffffffffffffffffffffffffffffffff\n      and\n      0xffffffffffffffffffffffffffffffffffffffff\n      and\n      dup2\n      mstore\n      0x20\n      add\n      0x02\n      dup3\n      add\n      dup1\n      sload\n      tag_240\n      swap1\n      tag_101\n      jump\t// in\n    tag_240:\n      dup1\n      0x1f\n      add\n      0x20\n      dup1\n      swap2\n      div\n      mul\n      0x20\n      add\n      mload(0x40)\n      swap1\n      dup2\n      add\n      0x40\n      mstore\n      dup1\n      swap3\n      swap2\n      swap1\n      dup2\n      dup2\n      mstore\n      0x20\n      add\n      dup3\n      dup1\n      sload\n      tag_241\n      swap1\n      tag_101\n      jump\t// in\n    tag_241:\n      dup1\n      iszero\n      tag_242\n      jumpi\n      dup1\n      0x1f\n      lt\n      tag_243\n      jumpi\n      0x0100\n      dup1\n      dup4\n      sload\n      div\n      mul\n      dup4\n      mstore\n      swap2\n      0x20\n      add\n      swap2\n      jump(tag_242)\n    tag_243:\n      dup3\n      add\n      swap2\n      swap1\n      0x00\n      mstore\n      keccak256(0x00, 0x20)\n      swap1\n    tag_244:\n      dup2\n      sload\n      dup2\n      mstore\n      swap1\n      0x01\n      add\n      swap1\n      0x20\n      add\n      dup1\n      dup4\n      gt\n      tag_244\n      jumpi\n      dup3\n      swap1\n      sub\n      0x1f\n      and\n      dup3\n      add\n      swap2\n    tag_242:\n      pop\n      pop\n      pop\n      pop\n      pop\n      dup2\n      mstore\n      0x20\n      add\n      0x03\n      dup3\n      add\n      dup1\n      sload\n      tag_245\n      swap1\n      tag_101\n      jump\t// in\n    tag_245:\n      dup1\n      0x1f\n      add\n      0x20\n      dup1\n      swap2\n      div\n      mul\n      0x20\n      add\n      mload(0x40)\n      swap1\n      dup2\n      add\n      0x40\n      mstore\n      dup1\n      swap3\n      swap2\n      swap1\n      dup2\n      dup2\n      mstore\n      0x20\n      add\n      dup3\n      dup1\n      sload\n      tag_246\n      swap1\n      tag_101\n      jump\t// in\n    tag_246:\n      dup1\n      iszero\n      tag_247\n      jumpi\n      dup1\n      0x1f\n      lt\n      tag_248\n      jumpi\n      0x0100\n      dup1\n      dup4\n      sload\n      div\n      mul\n      dup4\n      mstore\n      swap2\n      0x20\n      add\n      swap2\n      jump(tag_247)\n    tag_248:\n      dup3\n      add\n      swap2\n      swap1\n      0x00\n      mstore\n      keccak256(0x00, 0x20)\n      swap1\n    tag_249:\n      dup2\n      sload\n      dup2\n      mstore\n      swap1\n      0x01\n      add\n      swap1\n      0x20\n      add\n      dup1\n      dup4\n      gt\n      tag_249\n      jumpi\n      dup3\n      swap1\n      sub\n      0x1f\n      and\n      dup3\n      add\n      swap2\n    tag_247:\n      pop\n      pop\n      pop\n      pop\n      pop\n      dup2\n      mstore\n      0x20\n      add\n      0x04\n      dup3\n      add\n      dup1\n      sload\n      tag_250\n      swap1\n      tag_101\n      jump\t// in\n    tag_250:\n      dup1\n      0x1f\n      add\n      0x20\n      dup1\n      swap2\n      div\n      mul\n      0x20\n      add\n      mload(0x40)\n      swap1\n      dup2\n      add\n      0x40\n      mstore\n      dup1\n      swap3\n      swap2\n      swap1\n      dup2\n      dup2\n      mstore\n      0x20\n      add\n      dup3\n      dup1\n      sload\n      tag_251\n      swap1\n      tag_101\n      jump\t// in\n    tag_251:\n      dup1\n      iszero\n      tag_252\n      jumpi\n      dup1\n      0x1f\n      lt\n      tag_253\n      jumpi\n      0x0100\n      dup1\n      dup4\n      sload\n      div\n      mul\n      dup4\n      mstore\n      swap2\n      0x20\n      add\n      swap2\n      jump(tag_252)\n    tag_253:\n      dup3\n      add\n      swap2\n      swap1\n      0x00\n      mstore\n      keccak256(0x00, 0x20)\n      swap1\n    tag_254:\n      dup2\n      sload\n      dup2\n      mstore\n      swap1\n      0x01\n      add\n      swap1\n      0x20\n      add\n      dup1\n      dup4\n      gt\n      tag_254\n      jumpi\n      dup3\n      swap1\n      sub\n      0x1f\n      and\n      dup3\n      add\n      swap2\n    tag_252:\n      pop\n      pop\n      pop\n      pop\n      pop\n      dup2\n      mstore\n      0x20\n      add\n      0x05\n      dup3\n      add\n      dup1\n      sload\n      tag_255\n      swap1\n      tag_101\n      jump\t// in\n    tag_255:\n      dup1\n      0x1f\n      add\n      0x20\n      dup1\n      swap2\n      div\n      mul\n      0x20\n      add\n      mload(0x40)\n      swap1\n      dup2\n      add\n      0x40\n      mstore\n      dup1\n      swap3\n      swap2\n      swap1\n      dup2\n      dup2\n      mstore\n      0x20\n      add\n      dup3\n      dup1\n      sload\n      tag_256\n      swap1\n      tag_101\n      jump\t// in\n    tag_256:\n      dup1\n      iszero\n      tag_257\n      jumpi\n      dup1\n      0x1f\n      lt\n      tag_258\n      jumpi\n      0x0100\n      dup1\n      dup4\n      sload\n      div\n      mul\n      dup4\n      mstore\n      swap2\n      0x20\n      add\n      swap2\n      jump(tag_257)\n    tag_258:\n      dup3\n      add\n      swap2\n      swap1\n      0x00\n      mstore\n      keccak256(0x00, 0x20)\n      swap1\n    tag_259:\n      dup2\n      sload\n      dup2\n      mstore\n      swap1\n      0x01\n      add\n      swap1\n      0x20\n      add\n      dup1\n      dup4\n      gt\n      tag_259\n      jumpi\n      dup3\n      swap1\n      sub\n      0x1f\n      and\n      dup3\n      add\n      swap2\n    tag_257:\n      pop\n      pop\n      pop\n      pop\n      pop\n      dup2\n      mstore\n      0x20\n      add\n      0x06\n      dup3\n      add\n      dup1\n      sload\n      tag_260\n      swap1\n      tag_101\n      jump\t// in\n    tag_260:\n      dup1\n      0x1f\n      add\n      0x20\n      dup1\n      swap2\n      div\n      mul\n      0x20\n      add\n      mload(0x40)\n      swap1\n      dup2\n      add\n      0x40\n      mstore\n      dup1\n      swap3\n      swap2\n      swap1\n      dup2\n      dup2\n      mstore\n      0x20\n      add\n      dup3\n      dup1\n      sload\n      tag_261\n      swap1\n      tag_101\n      jump\t// in\n    tag_261:\n      dup1\n      iszero\n      tag_262\n      jumpi\n      dup1\n      0x1f\n      lt\n      tag_263\n      jumpi\n      0x0100\n      dup1\n      dup4\n      sload\n      div\n      mul\n      dup4\n      mstore\n      swap2\n      0x20\n      add\n      swap2\n      jump(tag_262)\n    tag_263:\n      dup3\n      add\n      swap2\n      swap1\n      0x00\n      mstore\n      keccak256(0x00, 0x20)\n      swap1\n    tag_264:\n      dup2\n      sload\n      dup2\n      mstore\n      swap1\n      0x01\n      add\n      swap1\n      0x20\n      add\n      dup1\n      dup4\n      gt\n      tag_264\n      jumpi\n      dup3\n      swap1\n      sub\n      0x1f\n      and\n      dup3\n      add\n      swap2\n    tag_262:\n      pop\n      pop\n      pop\n      pop\n      pop\n      dup2\n      mstore\n      0x20\n      add\n      0x07\n      dup3\n      add\n      0x00\n      swap1\n      sload\n      swap1\n      0x0100\n      exp\n      swap1\n      div\n      0xff\n      and\n      iszero\n      iszero\n      iszero\n      iszero\n      dup2\n      mstore\n      0x20\n      add\n      0x07\n      dup3\n      add\n      0x01\n      swap1\n      sload\n      swap1\n      0x0100\n      exp\n      swap1\n      div\n      0xff\n      and\n      iszero\n      iszero\n      iszero\n      iszero\n      dup2\n      mstore\n      0x20\n      add\n      0x08\n      dup3\n      add\n      sload\n      dup2\n      mstore\n      pop\n      pop\n      swap1\n      pop\n        /* \"solidGames.sol\":2644:2759  function getAllCollection(uint id) public view returns(Collection memory){... */\n      swap2\n      swap1\n      pop\n      jump\t// out\n    tag_91:\n      mload(0x40)\n      dup1\n      0x0140\n      add\n      0x40\n      mstore\n      dup1\n      0x00\n      dup2\n      mstore\n      0x20\n      add\n      and(0xffffffffffffffffffffffffffffffffffffffff, 0x00)\n      dup2\n      mstore\n      0x20\n      add\n      0x60\n      dup2\n      mstore\n      0x20\n      add\n      0x60\n      dup2\n      mstore\n      0x20\n      add\n      0x60\n      dup2\n      mstore\n      0x20\n      add\n      0x60\n      dup2\n      mstore\n      0x20\n      add\n      0x60\n      dup2\n      mstore\n      0x20\n      add\n      iszero(iszero(0x00))\n      dup2\n      mstore\n      0x20\n      add\n      iszero(iszero(0x00))\n      dup2\n      mstore\n      0x20\n      add\n      0x00\n      dup2\n      mstore\n      pop\n      swap1\n      jump\t// out\n    tag_131:\n      dup3\n      dup1\n      sload\n      tag_265\n      swap1\n      tag_101\n      jump\t// in\n    tag_265:\n      swap1\n      0x00\n      mstore\n      keccak256(0x00, 0x20)\n      swap1\n      0x1f\n      add\n      0x20\n      swap1\n      div\n      dup2\n      add\n      swap3\n      dup3\n      tag_267\n      jumpi\n      0x00\n      dup6\n      sstore\n      jump(tag_266)\n    tag_267:\n      dup3\n      0x1f\n      lt\n      tag_268\n      jumpi\n      dup1\n      mload\n      not(0xff)\n      and\n      dup4\n      dup1\n      add\n      or\n      dup6\n      sstore\n      jump(tag_266)\n    tag_268:\n      dup3\n      dup1\n      add\n      0x01\n      add\n      dup6\n      sstore\n      dup3\n      iszero\n      tag_266\n      jumpi\n      swap2\n      dup3\n      add\n    tag_269:\n      dup3\n      dup2\n      gt\n      iszero\n      tag_270\n      jumpi\n      dup3\n      mload\n      dup3\n      sstore\n      swap2\n      0x20\n      add\n      swap2\n      swap1\n      0x01\n      add\n      swap1\n      jump(tag_269)\n    tag_270:\n    tag_266:\n      pop\n      swap1\n      pop\n      tag_271\n      swap2\n      swap1\n      tag_272\n      jump\t// in\n    tag_271:\n      pop\n      swap1\n      jump\t// out\n    tag_187:\n      mload(0x40)\n      dup1\n      0xe0\n      add\n      0x40\n      mstore\n      dup1\n      and(0xffffffffffffffffffffffffffffffffffffffff, 0x00)\n      dup2\n      mstore\n      0x20\n      add\n      0x60\n      dup2\n      mstore\n      0x20\n      add\n      0x60\n      dup2\n      mstore\n      0x20\n      add\n      0x00\n      dup2\n      mstore\n      0x20\n      add\n      0x00\n      dup2\n      mstore\n      0x20\n      add\n      0x00\n      dup2\n      mstore\n      0x20\n      add\n      0x00\n      dup2\n      mstore\n      pop\n      swap1\n      jump\t// out\n    tag_272:\n    tag_273:\n      dup1\n      dup3\n      gt\n      iszero\n      tag_274\n      jumpi\n      0x00\n      dup2\n      0x00\n      swap1\n      sstore\n      pop\n      0x01\n      add\n      jump(tag_273)\n    tag_274:\n      pop\n      swap1\n      jump\t// out\n        /* \"#utility.yul\":7:419   */\n    tag_276:\n        /* \"#utility.yul\":85:90   */\n      0x00\n        /* \"#utility.yul\":110:176   */\n      tag_278\n        /* \"#utility.yul\":126:175   */\n      tag_279\n        /* \"#utility.yul\":168:174   */\n      dup5\n        /* \"#utility.yul\":126:175   */\n      tag_280\n      jump\t// in\n    tag_279:\n        /* \"#utility.yul\":110:176   */\n      tag_281\n      jump\t// in\n    tag_278:\n        /* \"#utility.yul\":101:176   */\n      swap1\n      pop\n        /* \"#utility.yul\":199:205   */\n      dup3\n        /* \"#utility.yul\":192:197   */\n      dup2\n        /* \"#utility.yul\":185:206   */\n      mstore\n        /* \"#utility.yul\":237:241   */\n      0x20\n        /* \"#utility.yul\":230:235   */\n      dup2\n        /* \"#utility.yul\":226:242   */\n      add\n        /* \"#utility.yul\":275:278   */\n      dup5\n        /* \"#utility.yul\":266:272   */\n      dup5\n        /* \"#utility.yul\":261:264   */\n      dup5\n        /* \"#utility.yul\":257:273   */\n      add\n        /* \"#utility.yul\":254:279   */\n      gt\n        /* \"#utility.yul\":251:363   */\n      iszero\n      tag_282\n      jumpi\n        /* \"#utility.yul\":282:361   */\n      tag_283\n      tag_284\n      jump\t// in\n    tag_283:\n        /* \"#utility.yul\":251:363   */\n    tag_282:\n        /* \"#utility.yul\":372:413   */\n      tag_285\n        /* \"#utility.yul\":406:412   */\n      dup5\n        /* \"#utility.yul\":401:404   */\n      dup3\n        /* \"#utility.yul\":396:399   */\n      dup6\n        /* \"#utility.yul\":372:413   */\n      tag_286\n      jump\t// in\n    tag_285:\n        /* \"#utility.yul\":91:419   */\n      pop\n        /* \"#utility.yul\":7:419   */\n      swap4\n      swap3\n      pop\n      pop\n      pop\n      jump\t// out\n        /* \"#utility.yul\":425:564   */\n    tag_287:\n        /* \"#utility.yul\":471:476   */\n      0x00\n        /* \"#utility.yul\":509:515   */\n      dup2\n        /* \"#utility.yul\":496:516   */\n      calldataload\n        /* \"#utility.yul\":487:516   */\n      swap1\n      pop\n        /* \"#utility.yul\":525:558   */\n      tag_289\n        /* \"#utility.yul\":552:557   */\n      dup2\n        /* \"#utility.yul\":525:558   */\n      tag_290\n      jump\t// in\n    tag_289:\n        /* \"#utility.yul\":425:564   */\n      swap3\n      swap2\n      pop\n      pop\n      jump\t// out\n        /* \"#utility.yul\":570:703   */\n    tag_291:\n        /* \"#utility.yul\":613:618   */\n      0x00\n        /* \"#utility.yul\":651:657   */\n      dup2\n        /* \"#utility.yul\":638:658   */\n      calldataload\n        /* \"#utility.yul\":629:658   */\n      swap1\n      pop\n        /* \"#utility.yul\":667:697   */\n      tag_293\n        /* \"#utility.yul\":691:696   */\n      dup2\n        /* \"#utility.yul\":667:697   */\n      tag_294\n      jump\t// in\n    tag_293:\n        /* \"#utility.yul\":570:703   */\n      swap3\n      swap2\n      pop\n      pop\n      jump\t// out\n        /* \"#utility.yul\":723:1063   */\n    tag_295:\n        /* \"#utility.yul\":779:784   */\n      0x00\n        /* \"#utility.yul\":828:831   */\n      dup3\n        /* \"#utility.yul\":821:825   */\n      0x1f\n        /* \"#utility.yul\":813:819   */\n      dup4\n        /* \"#utility.yul\":809:826   */\n      add\n        /* \"#utility.yul\":805:832   */\n      slt\n        /* \"#utility.yul\":795:917   */\n      tag_297\n      jumpi\n        /* \"#utility.yul\":836:915   */\n      tag_298\n      tag_299\n      jump\t// in\n    tag_298:\n        /* \"#utility.yul\":795:917   */\n    tag_297:\n        /* \"#utility.yul\":953:959   */\n      dup2\n        /* \"#utility.yul\":940:960   */\n      calldataload\n        /* \"#utility.yul\":978:1057   */\n      tag_300\n        /* \"#utility.yul\":1053:1056   */\n      dup5\n        /* \"#utility.yul\":1045:1051   */\n      dup3\n        /* \"#utility.yul\":1038:1042   */\n      0x20\n        /* \"#utility.yul\":1030:1036   */\n      dup7\n        /* \"#utility.yul\":1026:1043   */\n      add\n        /* \"#utility.yul\":978:1057   */\n      tag_276\n      jump\t// in\n    tag_300:\n        /* \"#utility.yul\":969:1057   */\n      swap2\n      pop\n        /* \"#utility.yul\":785:1063   */\n      pop\n        /* \"#utility.yul\":723:1063   */\n      swap3\n      swap2\n      pop\n      pop\n      jump\t// out\n        /* \"#utility.yul\":1069:1208   */\n    tag_301:\n        /* \"#utility.yul\":1115:1120   */\n      0x00\n        /* \"#utility.yul\":1153:1159   */\n      dup2\n        /* \"#utility.yul\":1140:1160   */\n      calldataload\n        /* \"#utility.yul\":1131:1160   */\n      swap1\n      pop\n        /* \"#utility.yul\":1169:1202   */\n      tag_303\n        /* \"#utility.yul\":1196:1201   */\n      dup2\n        /* \"#utility.yul\":1169:1202   */\n      tag_304\n      jump\t// in\n    tag_303:\n        /* \"#utility.yul\":1069:1208   */\n      swap3\n      swap2\n      pop\n      pop\n      jump\t// out\n        /* \"#utility.yul\":1214:1543   */\n    tag_23:\n        /* \"#utility.yul\":1273:1279   */\n      0x00\n        /* \"#utility.yul\":1322:1324   */\n      0x20\n        /* \"#utility.yul\":1310:1319   */\n      dup3\n        /* \"#utility.yul\":1301:1308   */\n      dup5\n        /* \"#utility.yul\":1297:1320   */\n      sub\n        /* \"#utility.yul\":1293:1325   */\n      slt\n        /* \"#utility.yul\":1290:1409   */\n      iszero\n      tag_306\n      jumpi\n        /* \"#utility.yul\":1328:1407   */\n      tag_307\n      tag_308\n      jump\t// in\n    tag_307:\n        /* \"#utility.yul\":1290:1409   */\n    tag_306:\n        /* \"#utility.yul\":1448:1449   */\n      0x00\n        /* \"#utility.yul\":1473:1526   */\n      tag_309\n        /* \"#utility.yul\":1518:1525   */\n      dup5\n        /* \"#utility.yul\":1509:1515   */\n      dup3\n        /* \"#utility.yul\":1498:1507   */\n      dup6\n        /* \"#utility.yul\":1494:1516   */\n      add\n        /* \"#utility.yul\":1473:1526   */\n      tag_287\n      jump\t// in\n    tag_309:\n        /* \"#utility.yul\":1463:1526   */\n      swap2\n      pop\n        /* \"#utility.yul\":1419:1536   */\n      pop\n        /* \"#utility.yul\":1214:1543   */\n      swap3\n      swap2\n      pop\n      pop\n      jump\t// out\n        /* \"#utility.yul\":1549:2023   */\n    tag_38:\n        /* \"#utility.yul\":1617:1623   */\n      0x00\n        /* \"#utility.yul\":1625:1631   */\n      dup1\n        /* \"#utility.yul\":1674:1676   */\n      0x40\n        /* \"#utility.yul\":1662:1671   */\n      dup4\n        /* \"#utility.yul\":1653:1660   */\n      dup6\n        /* \"#utility.yul\":1649:1672   */\n      sub\n        /* \"#utility.yul\":1645:1677   */\n      slt\n        /* \"#utility.yul\":1642:1761   */\n      iszero\n      tag_311\n      jumpi\n        /* \"#utility.yul\":1680:1759   */\n      tag_312\n      tag_308\n      jump\t// in\n    tag_312:\n        /* \"#utility.yul\":1642:1761   */\n    tag_311:\n        /* \"#utility.yul\":1800:1801   */\n      0x00\n        /* \"#utility.yul\":1825:1878   */\n      tag_313\n        /* \"#utility.yul\":1870:1877   */\n      dup6\n        /* \"#utility.yul\":1861:1867   */\n      dup3\n        /* \"#utility.yul\":1850:1859   */\n      dup7\n        /* \"#utility.yul\":1846:1868   */\n      add\n        /* \"#utility.yul\":1825:1878   */\n      tag_287\n      jump\t// in\n    tag_313:\n        /* \"#utility.yul\":1815:1878   */\n      swap3\n      pop\n        /* \"#utility.yul\":1771:1888   */\n      pop\n        /* \"#utility.yul\":1927:1929   */\n      0x20\n        /* \"#utility.yul\":1953:2006   */\n      tag_314\n        /* \"#utility.yul\":1998:2005   */\n      dup6\n        /* \"#utility.yul\":1989:1995   */\n      dup3\n        /* \"#utility.yul\":1978:1987   */\n      dup7\n        /* \"#utility.yul\":1974:1996   */\n      add\n        /* \"#utility.yul\":1953:2006   */\n      tag_301\n      jump\t// in\n    tag_314:\n        /* \"#utility.yul\":1943:2006   */\n      swap2\n      pop\n        /* \"#utility.yul\":1898:2016   */\n      pop\n        /* \"#utility.yul\":1549:2023   */\n      swap3\n      pop\n      swap3\n      swap1\n      pop\n      jump\t// out\n        /* \"#utility.yul\":2029:2352   */\n    tag_44:\n        /* \"#utility.yul\":2085:2091   */\n      0x00\n        /* \"#utility.yul\":2134:2136   */\n      0x20\n        /* \"#utility.yul\":2122:2131   */\n      dup3\n        /* \"#utility.yul\":2113:2120   */\n      dup5\n        /* \"#utility.yul\":2109:2132   */\n      sub\n        /* \"#utility.yul\":2105:2137   */\n      slt\n        /* \"#utility.yul\":2102:2221   */\n      iszero\n      tag_316\n      jumpi\n        /* \"#utility.yul\":2140:2219   */\n      tag_317\n      tag_308\n      jump\t// in\n    tag_317:\n        /* \"#utility.yul\":2102:2221   */\n    tag_316:\n        /* \"#utility.yul\":2260:2261   */\n      0x00\n        /* \"#utility.yul\":2285:2335   */\n      tag_318\n        /* \"#utility.yul\":2327:2334   */\n      dup5\n        /* \"#utility.yul\":2318:2324   */\n      dup3\n        /* \"#utility.yul\":2307:2316   */\n      dup6\n        /* \"#utility.yul\":2303:2325   */\n      add\n        /* \"#utility.yul\":2285:2335   */\n      tag_291\n      jump\t// in\n    tag_318:\n        /* \"#utility.yul\":2275:2335   */\n      swap2\n      pop\n        /* \"#utility.yul\":2231:2345   */\n      pop\n        /* \"#utility.yul\":2029:2352   */\n      swap3\n      swap2\n      pop\n      pop\n      jump\t// out\n        /* \"#utility.yul\":2358:2867   */\n    tag_70:\n        /* \"#utility.yul\":2427:2433   */\n      0x00\n        /* \"#utility.yul\":2476:2478   */\n      0x20\n        /* \"#utility.yul\":2464:2473   */\n      dup3\n        /* \"#utility.yul\":2455:2462   */\n      dup5\n        /* \"#utility.yul\":2451:2474   */\n      sub\n        /* \"#utility.yul\":2447:2479   */\n      slt\n        /* \"#utility.yul\":2444:2563   */\n      iszero\n      tag_320\n      jumpi\n        /* \"#utility.yul\":2482:2561   */\n      tag_321\n      tag_308\n      jump\t// in\n    tag_321:\n        /* \"#utility.yul\":2444:2563   */\n    tag_320:\n        /* \"#utility.yul\":2630:2631   */\n      0x00\n        /* \"#utility.yul\":2619:2628   */\n      dup3\n        /* \"#utility.yul\":2615:2632   */\n      add\n        /* \"#utility.yul\":2602:2633   */\n      calldataload\n        /* \"#utility.yul\":2660:2678   */\n      0xffffffffffffffff\n        /* \"#utility.yul\":2652:2658   */\n      dup2\n        /* \"#utility.yul\":2649:2679   */\n      gt\n        /* \"#utility.yul\":2646:2763   */\n      iszero\n      tag_322\n      jumpi\n        /* \"#utility.yul\":2682:2761   */\n      tag_323\n      tag_324\n      jump\t// in\n    tag_323:\n        /* \"#utility.yul\":2646:2763   */\n    tag_322:\n        /* \"#utility.yul\":2787:2850   */\n      tag_325\n        /* \"#utility.yul\":2842:2849   */\n      dup5\n        /* \"#utility.yul\":2833:2839   */\n      dup3\n        /* \"#utility.yul\":2822:2831   */\n      dup6\n        /* \"#utility.yul\":2818:2840   */\n      add\n        /* \"#utility.yul\":2787:2850   */\n      tag_295\n      jump\t// in\n    tag_325:\n        /* \"#utility.yul\":2777:2850   */\n      swap2\n      pop\n        /* \"#utility.yul\":2573:2860   */\n      pop\n        /* \"#utility.yul\":2358:2867   */\n      swap3\n      swap2\n      pop\n      pop\n      jump\t// out\n        /* \"#utility.yul\":2873:5110   */\n    tag_34:\n        /* \"#utility.yul\":3039:3045   */\n      0x00\n        /* \"#utility.yul\":3047:3053   */\n      dup1\n        /* \"#utility.yul\":3055:3061   */\n      0x00\n        /* \"#utility.yul\":3063:3069   */\n      dup1\n        /* \"#utility.yul\":3071:3077   */\n      0x00\n        /* \"#utility.yul\":3079:3085   */\n      dup1\n        /* \"#utility.yul\":3087:3093   */\n      0x00\n        /* \"#utility.yul\":3095:3101   */\n      dup1\n        /* \"#utility.yul\":3144:3147   */\n      0x0100\n        /* \"#utility.yul\":3132:3141   */\n      dup10\n        /* \"#utility.yul\":3123:3130   */\n      dup12\n        /* \"#utility.yul\":3119:3142   */\n      sub\n        /* \"#utility.yul\":3115:3148   */\n      slt\n        /* \"#utility.yul\":3112:3232   */\n      iszero\n      tag_327\n      jumpi\n        /* \"#utility.yul\":3151:3230   */\n      tag_328\n      tag_308\n      jump\t// in\n    tag_328:\n        /* \"#utility.yul\":3112:3232   */\n    tag_327:\n        /* \"#utility.yul\":3299:3300   */\n      0x00\n        /* \"#utility.yul\":3288:3297   */\n      dup10\n        /* \"#utility.yul\":3284:3301   */\n      add\n        /* \"#utility.yul\":3271:3302   */\n      calldataload\n        /* \"#utility.yul\":3329:3347   */\n      0xffffffffffffffff\n        /* \"#utility.yul\":3321:3327   */\n      dup2\n        /* \"#utility.yul\":3318:3348   */\n      gt\n        /* \"#utility.yul\":3315:3432   */\n      iszero\n      tag_329\n      jumpi\n        /* \"#utility.yul\":3351:3430   */\n      tag_330\n      tag_324\n      jump\t// in\n    tag_330:\n        /* \"#utility.yul\":3315:3432   */\n    tag_329:\n        /* \"#utility.yul\":3456:3519   */\n      tag_331\n        /* \"#utility.yul\":3511:3518   */\n      dup12\n        /* \"#utility.yul\":3502:3508   */\n      dup3\n        /* \"#utility.yul\":3491:3500   */\n      dup13\n        /* \"#utility.yul\":3487:3509   */\n      add\n        /* \"#utility.yul\":3456:3519   */\n      tag_295\n      jump\t// in\n    tag_331:\n        /* \"#utility.yul\":3446:3519   */\n      swap9\n      pop\n        /* \"#utility.yul\":3242:3529   */\n      pop\n        /* \"#utility.yul\":3596:3598   */\n      0x20\n        /* \"#utility.yul\":3585:3594   */\n      dup10\n        /* \"#utility.yul\":3581:3599   */\n      add\n        /* \"#utility.yul\":3568:3600   */\n      calldataload\n        /* \"#utility.yul\":3627:3645   */\n      0xffffffffffffffff\n        /* \"#utility.yul\":3619:3625   */\n      dup2\n        /* \"#utility.yul\":3616:3646   */\n      gt\n        /* \"#utility.yul\":3613:3730   */\n      iszero\n      tag_332\n      jumpi\n        /* \"#utility.yul\":3649:3728   */\n      tag_333\n      tag_324\n      jump\t// in\n    tag_333:\n        /* \"#utility.yul\":3613:3730   */\n    tag_332:\n        /* \"#utility.yul\":3754:3817   */\n      tag_334\n        /* \"#utility.yul\":3809:3816   */\n      dup12\n        /* \"#utility.yul\":3800:3806   */\n      dup3\n        /* \"#utility.yul\":3789:3798   */\n      dup13\n        /* \"#utility.yul\":3785:3807   */\n      add\n        /* \"#utility.yul\":3754:3817   */\n      tag_295\n      jump\t// in\n    tag_334:\n        /* \"#utility.yul\":3744:3817   */\n      swap8\n      pop\n        /* \"#utility.yul\":3539:3827   */\n      pop\n        /* \"#utility.yul\":3894:3896   */\n      0x40\n        /* \"#utility.yul\":3883:3892   */\n      dup10\n        /* \"#utility.yul\":3879:3897   */\n      add\n        /* \"#utility.yul\":3866:3898   */\n      calldataload\n        /* \"#utility.yul\":3925:3943   */\n      0xffffffffffffffff\n        /* \"#utility.yul\":3917:3923   */\n      dup2\n        /* \"#utility.yul\":3914:3944   */\n      gt\n        /* \"#utility.yul\":3911:4028   */\n      iszero\n      tag_335\n      jumpi\n        /* \"#utility.yul\":3947:4026   */\n      tag_336\n      tag_324\n      jump\t// in\n    tag_336:\n        /* \"#utility.yul\":3911:4028   */\n    tag_335:\n        /* \"#utility.yul\":4052:4115   */\n      tag_337\n        /* \"#utility.yul\":4107:4114   */\n      dup12\n        /* \"#utility.yul\":4098:4104   */\n      dup3\n        /* \"#utility.yul\":4087:4096   */\n      dup13\n        /* \"#utility.yul\":4083:4105   */\n      add\n        /* \"#utility.yul\":4052:4115   */\n      tag_295\n      jump\t// in\n    tag_337:\n        /* \"#utility.yul\":4042:4115   */\n      swap7\n      pop\n        /* \"#utility.yul\":3837:4125   */\n      pop\n        /* \"#utility.yul\":4192:4194   */\n      0x60\n        /* \"#utility.yul\":4181:4190   */\n      dup10\n        /* \"#utility.yul\":4177:4195   */\n      add\n        /* \"#utility.yul\":4164:4196   */\n      calldataload\n        /* \"#utility.yul\":4223:4241   */\n      0xffffffffffffffff\n        /* \"#utility.yul\":4215:4221   */\n      dup2\n        /* \"#utility.yul\":4212:4242   */\n      gt\n        /* \"#utility.yul\":4209:4326   */\n      iszero\n      tag_338\n      jumpi\n        /* \"#utility.yul\":4245:4324   */\n      tag_339\n      tag_324\n      jump\t// in\n    tag_339:\n        /* \"#utility.yul\":4209:4326   */\n    tag_338:\n        /* \"#utility.yul\":4350:4413   */\n      tag_340\n        /* \"#utility.yul\":4405:4412   */\n      dup12\n        /* \"#utility.yul\":4396:4402   */\n      dup3\n        /* \"#utility.yul\":4385:4394   */\n      dup13\n        /* \"#utility.yul\":4381:4403   */\n      add\n        /* \"#utility.yul\":4350:4413   */\n      tag_295\n      jump\t// in\n    tag_340:\n        /* \"#utility.yul\":4340:4413   */\n      swap6\n      pop\n        /* \"#utility.yul\":4135:4423   */\n      pop\n        /* \"#utility.yul\":4490:4493   */\n      0x80\n        /* \"#utility.yul\":4479:4488   */\n      dup10\n        /* \"#utility.yul\":4475:4494   */\n      add\n        /* \"#utility.yul\":4462:4495   */\n      calldataload\n        /* \"#utility.yul\":4522:4540   */\n      0xffffffffffffffff\n        /* \"#utility.yul\":4514:4520   */\n      dup2\n        /* \"#utility.yul\":4511:4541   */\n      gt\n        /* \"#utility.yul\":4508:4625   */\n      iszero\n      tag_341\n      jumpi\n        /* \"#utility.yul\":4544:4623   */\n      tag_342\n      tag_324\n      jump\t// in\n    tag_342:\n        /* \"#utility.yul\":4508:4625   */\n    tag_341:\n        /* \"#utility.yul\":4649:4712   */\n      tag_343\n        /* \"#utility.yul\":4704:4711   */\n      dup12\n        /* \"#utility.yul\":4695:4701   */\n      dup3\n        /* \"#utility.yul\":4684:4693   */\n      dup13\n        /* \"#utility.yul\":4680:4702   */\n      add\n        /* \"#utility.yul\":4649:4712   */\n      tag_295\n      jump\t// in\n    tag_343:\n        /* \"#utility.yul\":4639:4712   */\n      swap5\n      pop\n        /* \"#utility.yul\":4433:4722   */\n      pop\n        /* \"#utility.yul\":4761:4764   */\n      0xa0\n        /* \"#utility.yul\":4788:4838   */\n      tag_344\n        /* \"#utility.yul\":4830:4837   */\n      dup12\n        /* \"#utility.yul\":4821:4827   */\n      dup3\n        /* \"#utility.yul\":4810:4819   */\n      dup13\n        /* \"#utility.yul\":4806:4828   */\n      add\n        /* \"#utility.yul\":4788:4838   */\n      tag_291\n      jump\t// in\n    tag_344:\n        /* \"#utility.yul\":4778:4838   */\n      swap4\n      pop\n        /* \"#utility.yul\":4732:4848   */\n      pop\n        /* \"#utility.yul\":4887:4890   */\n      0xc0\n        /* \"#utility.yul\":4914:4964   */\n      tag_345\n        /* \"#utility.yul\":4956:4963   */\n      dup12\n        /* \"#utility.yul\":4947:4953   */\n      dup3\n        /* \"#utility.yul\":4936:4945   */\n      dup13\n        /* \"#utility.yul\":4932:4954   */\n      add\n        /* \"#utility.yul\":4914:4964   */\n      tag_291\n      jump\t// in\n    tag_345:\n        /* \"#utility.yul\":4904:4964   */\n      swap3\n      pop\n        /* \"#utility.yul\":4858:4974   */\n      pop\n        /* \"#utility.yul\":5013:5016   */\n      0xe0\n        /* \"#utility.yul\":5040:5093   */\n      tag_346\n        /* \"#utility.yul\":5085:5092   */\n      dup12\n        /* \"#utility.yul\":5076:5082   */\n      dup3\n        /* \"#utility.yul\":5065:5074   */\n      dup13\n        /* \"#utility.yul\":5061:5083   */\n      add\n        /* \"#utility.yul\":5040:5093   */\n      tag_301\n      jump\t// in\n    tag_346:\n        /* \"#utility.yul\":5030:5093   */\n      swap2\n      pop\n        /* \"#utility.yul\":4984:5103   */\n      pop\n        /* \"#utility.yul\":2873:5110   */\n      swap3\n      swap6\n      swap9\n      pop\n      swap3\n      swap6\n      swap9\n      swap1\n      swap4\n      swap7\n      pop\n      jump\t// out\n        /* \"#utility.yul\":5116:5445   */\n    tag_66:\n        /* \"#utility.yul\":5175:5181   */\n      0x00\n        /* \"#utility.yul\":5224:5226   */\n      0x20\n        /* \"#utility.yul\":5212:5221   */\n      dup3\n        /* \"#utility.yul\":5203:5210   */\n      dup5\n        /* \"#utility.yul\":5199:5222   */\n      sub\n        /* \"#utility.yul\":5195:5227   */\n      slt\n        /* \"#utility.yul\":5192:5311   */\n      iszero\n      tag_348\n      jumpi\n        /* \"#utility.yul\":5230:5309   */\n      tag_349\n      tag_308\n      jump\t// in\n    tag_349:\n        /* \"#utility.yul\":5192:5311   */\n    tag_348:\n        /* \"#utility.yul\":5350:5351   */\n      0x00\n        /* \"#utility.yul\":5375:5428   */\n      tag_350\n        /* \"#utility.yul\":5420:5427   */\n      dup5\n        /* \"#utility.yul\":5411:5417   */\n      dup3\n        /* \"#utility.yul\":5400:5409   */\n      dup6\n        /* \"#utility.yul\":5396:5418   */\n      add\n        /* \"#utility.yul\":5375:5428   */\n      tag_301\n      jump\t// in\n    tag_350:\n        /* \"#utility.yul\":5365:5428   */\n      swap2\n      pop\n        /* \"#utility.yul\":5321:5438   */\n      pop\n        /* \"#utility.yul\":5116:5445   */\n      swap3\n      swap2\n      pop\n      pop\n      jump\t// out\n        /* \"#utility.yul\":5451:5925   */\n    tag_52:\n        /* \"#utility.yul\":5519:5525   */\n      0x00\n        /* \"#utility.yul\":5527:5533   */\n      dup1\n        /* \"#utility.yul\":5576:5578   */\n      0x40\n        /* \"#utility.yul\":5564:5573   */\n      dup4\n        /* \"#utility.yul\":5555:5562   */\n      dup6\n        /* \"#utility.yul\":5551:5574   */\n      sub\n        /* \"#utility.yul\":5547:5579   */\n      slt\n        /* \"#utility.yul\":5544:5663   */\n      iszero\n      tag_352\n      jumpi\n        /* \"#utility.yul\":5582:5661   */\n      tag_353\n      tag_308\n      jump\t// in\n    tag_353:\n        /* \"#utility.yul\":5544:5663   */\n    tag_352:\n        /* \"#utility.yul\":5702:5703   */\n      0x00\n        /* \"#utility.yul\":5727:5780   */\n      tag_354\n        /* \"#utility.yul\":5772:5779   */\n      dup6\n        /* \"#utility.yul\":5763:5769   */\n      dup3\n        /* \"#utility.yul\":5752:5761   */\n      dup7\n        /* \"#utility.yul\":5748:5770   */\n      add\n        /* \"#utility.yul\":5727:5780   */\n      tag_301\n      jump\t// in\n    tag_354:\n        /* \"#utility.yul\":5717:5780   */\n      swap3\n      pop\n        /* \"#utility.yul\":5673:5790   */\n      pop\n        /* \"#utility.yul\":5829:5831   */\n      0x20\n        /* \"#utility.yul\":5855:5908   */\n      tag_355\n        /* \"#utility.yul\":5900:5907   */\n      dup6\n        /* \"#utility.yul\":5891:5897   */\n      dup3\n        /* \"#utility.yul\":5880:5889   */\n      dup7\n        /* \"#utility.yul\":5876:5898   */\n      add\n        /* \"#utility.yul\":5855:5908   */\n      tag_301\n      jump\t// in\n    tag_355:\n        /* \"#utility.yul\":5845:5908   */\n      swap2\n      pop\n        /* \"#utility.yul\":5800:5918   */\n      pop\n        /* \"#utility.yul\":5451:5925   */\n      swap3\n      pop\n      swap3\n      swap1\n      pop\n      jump\t// out\n        /* \"#utility.yul\":5931:6110   */\n    tag_356:\n        /* \"#utility.yul\":6000:6010   */\n      0x00\n        /* \"#utility.yul\":6021:6067   */\n      tag_358\n        /* \"#utility.yul\":6063:6066   */\n      dup4\n        /* \"#utility.yul\":6055:6061   */\n      dup4\n        /* \"#utility.yul\":6021:6067   */\n      tag_359\n      jump\t// in\n    tag_358:\n        /* \"#utility.yul\":6099:6103   */\n      0x20\n        /* \"#utility.yul\":6094:6097   */\n      dup4\n        /* \"#utility.yul\":6090:6104   */\n      add\n        /* \"#utility.yul\":6076:6104   */\n      swap1\n      pop\n        /* \"#utility.yul\":5931:6110   */\n      swap3\n      swap2\n      pop\n      pop\n      jump\t// out\n        /* \"#utility.yul\":6116:6224   */\n    tag_360:\n        /* \"#utility.yul\":6193:6217   */\n      tag_362\n        /* \"#utility.yul\":6211:6216   */\n      dup2\n        /* \"#utility.yul\":6193:6217   */\n      tag_363\n      jump\t// in\n    tag_362:\n        /* \"#utility.yul\":6188:6191   */\n      dup3\n        /* \"#utility.yul\":6181:6218   */\n      mstore\n        /* \"#utility.yul\":6116:6224   */\n      pop\n      pop\n      jump\t// out\n        /* \"#utility.yul\":6230:6348   */\n    tag_364:\n        /* \"#utility.yul\":6317:6341   */\n      tag_366\n        /* \"#utility.yul\":6335:6340   */\n      dup2\n        /* \"#utility.yul\":6317:6341   */\n      tag_363\n      jump\t// in\n    tag_366:\n        /* \"#utility.yul\":6312:6315   */\n      dup3\n        /* \"#utility.yul\":6305:6342   */\n      mstore\n        /* \"#utility.yul\":6230:6348   */\n      pop\n      pop\n      jump\t// out\n        /* \"#utility.yul\":6384:7096   */\n    tag_367:\n        /* \"#utility.yul\":6493:6496   */\n      0x00\n        /* \"#utility.yul\":6522:6576   */\n      tag_369\n        /* \"#utility.yul\":6570:6575   */\n      dup3\n        /* \"#utility.yul\":6522:6576   */\n      tag_370\n      jump\t// in\n    tag_369:\n        /* \"#utility.yul\":6592:6668   */\n      tag_371\n        /* \"#utility.yul\":6661:6667   */\n      dup2\n        /* \"#utility.yul\":6656:6659   */\n      dup6\n        /* \"#utility.yul\":6592:6668   */\n      tag_372\n      jump\t// in\n    tag_371:\n        /* \"#utility.yul\":6585:6668   */\n      swap4\n      pop\n        /* \"#utility.yul\":6692:6748   */\n      tag_373\n        /* \"#utility.yul\":6742:6747   */\n      dup4\n        /* \"#utility.yul\":6692:6748   */\n      tag_374\n      jump\t// in\n    tag_373:\n        /* \"#utility.yul\":6771:6778   */\n      dup1\n        /* \"#utility.yul\":6802:6803   */\n      0x00\n        /* \"#utility.yul\":6787:7071   */\n    tag_375:\n        /* \"#utility.yul\":6812:6818   */\n      dup4\n        /* \"#utility.yul\":6809:6810   */\n      dup2\n        /* \"#utility.yul\":6806:6819   */\n      lt\n        /* \"#utility.yul\":6787:7071   */\n      iszero\n      tag_377\n      jumpi\n        /* \"#utility.yul\":6888:6894   */\n      dup2\n        /* \"#utility.yul\":6882:6895   */\n      mload\n        /* \"#utility.yul\":6915:6978   */\n      tag_378\n        /* \"#utility.yul\":6974:6977   */\n      dup9\n        /* \"#utility.yul\":6959:6972   */\n      dup3\n        /* \"#utility.yul\":6915:6978   */\n      tag_356\n      jump\t// in\n    tag_378:\n        /* \"#utility.yul\":6908:6978   */\n      swap8\n      pop\n        /* \"#utility.yul\":7001:7061   */\n      tag_379\n        /* \"#utility.yul\":7054:7060   */\n      dup4\n        /* \"#utility.yul\":7001:7061   */\n      tag_380\n      jump\t// in\n    tag_379:\n        /* \"#utility.yul\":6991:7061   */\n      swap3\n      pop\n        /* \"#utility.yul\":6847:7071   */\n      pop\n        /* \"#utility.yul\":6834:6835   */\n      0x01\n        /* \"#utility.yul\":6831:6832   */\n      dup2\n        /* \"#utility.yul\":6827:6836   */\n      add\n        /* \"#utility.yul\":6822:6836   */\n      swap1\n      pop\n        /* \"#utility.yul\":6787:7071   */\n      jump(tag_375)\n    tag_377:\n        /* \"#utility.yul\":6791:6805   */\n      pop\n        /* \"#utility.yul\":7087:7090   */\n      dup6\n        /* \"#utility.yul\":7080:7090   */\n      swap4\n      pop\n        /* \"#utility.yul\":6498:7096   */\n      pop\n      pop\n      pop\n        /* \"#utility.yul\":6384:7096   */\n      swap3\n      swap2\n      pop\n      pop\n      jump\t// out\n        /* \"#utility.yul\":7102:7201   */\n    tag_381:\n        /* \"#utility.yul\":7173:7194   */\n      tag_383\n        /* \"#utility.yul\":7188:7193   */\n      dup2\n        /* \"#utility.yul\":7173:7194   */\n      tag_384\n      jump\t// in\n    tag_383:\n        /* \"#utility.yul\":7168:7171   */\n      dup3\n        /* \"#utility.yul\":7161:7195   */\n      mstore\n        /* \"#utility.yul\":7102:7201   */\n      pop\n      pop\n      jump\t// out\n        /* \"#utility.yul\":7207:7316   */\n    tag_385:\n        /* \"#utility.yul\":7288:7309   */\n      tag_387\n        /* \"#utility.yul\":7303:7308   */\n      dup2\n        /* \"#utility.yul\":7288:7309   */\n      tag_384\n      jump\t// in\n    tag_387:\n        /* \"#utility.yul\":7283:7286   */\n      dup3\n        /* \"#utility.yul\":7276:7310   */\n      mstore\n        /* \"#utility.yul\":7207:7316   */\n      pop\n      pop\n      jump\t// out\n        /* \"#utility.yul\":7322:7666   */\n    tag_388:\n        /* \"#utility.yul\":7400:7403   */\n      0x00\n        /* \"#utility.yul\":7428:7467   */\n      tag_390\n        /* \"#utility.yul\":7461:7466   */\n      dup3\n        /* \"#utility.yul\":7428:7467   */\n      tag_391\n      jump\t// in\n    tag_390:\n        /* \"#utility.yul\":7483:7544   */\n      tag_392\n        /* \"#utility.yul\":7537:7543   */\n      dup2\n        /* \"#utility.yul\":7532:7535   */\n      dup6\n        /* \"#utility.yul\":7483:7544   */\n      tag_393\n      jump\t// in\n    tag_392:\n        /* \"#utility.yul\":7476:7544   */\n      swap4\n      pop\n        /* \"#utility.yul\":7553:7605   */\n      tag_394\n        /* \"#utility.yul\":7598:7604   */\n      dup2\n        /* \"#utility.yul\":7593:7596   */\n      dup6\n        /* \"#utility.yul\":7586:7590   */\n      0x20\n        /* \"#utility.yul\":7579:7584   */\n      dup7\n        /* \"#utility.yul\":7575:7591   */\n      add\n        /* \"#utility.yul\":7553:7605   */\n      tag_395\n      jump\t// in\n    tag_394:\n        /* \"#utility.yul\":7630:7659   */\n      tag_396\n        /* \"#utility.yul\":7652:7658   */\n      dup2\n        /* \"#utility.yul\":7630:7659   */\n      tag_397\n      jump\t// in\n    tag_396:\n        /* \"#utility.yul\":7625:7628   */\n      dup5\n        /* \"#utility.yul\":7621:7660   */\n      add\n        /* \"#utility.yul\":7614:7660   */\n      swap2\n      pop\n        /* \"#utility.yul\":7404:7666   */\n      pop\n        /* \"#utility.yul\":7322:7666   */\n      swap3\n      swap2\n      pop\n      pop\n      jump\t// out\n        /* \"#utility.yul\":7672:8036   */\n    tag_398:\n        /* \"#utility.yul\":7760:7763   */\n      0x00\n        /* \"#utility.yul\":7788:7827   */\n      tag_400\n        /* \"#utility.yul\":7821:7826   */\n      dup3\n        /* \"#utility.yul\":7788:7827   */\n      tag_391\n      jump\t// in\n    tag_400:\n        /* \"#utility.yul\":7843:7914   */\n      tag_401\n        /* \"#utility.yul\":7907:7913   */\n      dup2\n        /* \"#utility.yul\":7902:7905   */\n      dup6\n        /* \"#utility.yul\":7843:7914   */\n      tag_402\n      jump\t// in\n    tag_401:\n        /* \"#utility.yul\":7836:7914   */\n      swap4\n      pop\n        /* \"#utility.yul\":7923:7975   */\n      tag_403\n        /* \"#utility.yul\":7968:7974   */\n      dup2\n        /* \"#utility.yul\":7963:7966   */\n      dup6\n        /* \"#utility.yul\":7956:7960   */\n      0x20\n        /* \"#utility.yul\":7949:7954   */\n      dup7\n        /* \"#utility.yul\":7945:7961   */\n      add\n        /* \"#utility.yul\":7923:7975   */\n      tag_395\n      jump\t// in\n    tag_403:\n        /* \"#utility.yul\":8000:8029   */\n      tag_404\n        /* \"#utility.yul\":8022:8028   */\n      dup2\n        /* \"#utility.yul\":8000:8029   */\n      tag_397\n      jump\t// in\n    tag_404:\n        /* \"#utility.yul\":7995:7998   */\n      dup5\n        /* \"#utility.yul\":7991:8030   */\n      add\n        /* \"#utility.yul\":7984:8030   */\n      swap2\n      pop\n        /* \"#utility.yul\":7764:8036   */\n      pop\n        /* \"#utility.yul\":7672:8036   */\n      swap3\n      swap2\n      pop\n      pop\n      jump\t// out\n        /* \"#utility.yul\":8110:10420   */\n    tag_405:\n        /* \"#utility.yul\":8231:8234   */\n      0x00\n        /* \"#utility.yul\":8267:8273   */\n      0x0140\n        /* \"#utility.yul\":8262:8265   */\n      dup4\n        /* \"#utility.yul\":8258:8274   */\n      add\n        /* \"#utility.yul\":8354:8358   */\n      0x00\n        /* \"#utility.yul\":8347:8352   */\n      dup4\n        /* \"#utility.yul\":8343:8359   */\n      add\n        /* \"#utility.yul\":8337:8360   */\n      mload\n        /* \"#utility.yul\":8373:8436   */\n      tag_407\n        /* \"#utility.yul\":8430:8434   */\n      0x00\n        /* \"#utility.yul\":8425:8428   */\n      dup7\n        /* \"#utility.yul\":8421:8435   */\n      add\n        /* \"#utility.yul\":8407:8419   */\n      dup3\n        /* \"#utility.yul\":8373:8436   */\n      tag_359\n      jump\t// in\n    tag_407:\n        /* \"#utility.yul\":8284:8446   */\n      pop\n        /* \"#utility.yul\":8528:8532   */\n      0x20\n        /* \"#utility.yul\":8521:8526   */\n      dup4\n        /* \"#utility.yul\":8517:8533   */\n      add\n        /* \"#utility.yul\":8511:8534   */\n      mload\n        /* \"#utility.yul\":8547:8610   */\n      tag_408\n        /* \"#utility.yul\":8604:8608   */\n      0x20\n        /* \"#utility.yul\":8599:8602   */\n      dup7\n        /* \"#utility.yul\":8595:8609   */\n      add\n        /* \"#utility.yul\":8581:8593   */\n      dup3\n        /* \"#utility.yul\":8547:8610   */\n      tag_360\n      jump\t// in\n    tag_408:\n        /* \"#utility.yul\":8456:8620   */\n      pop\n        /* \"#utility.yul\":8701:8705   */\n      0x40\n        /* \"#utility.yul\":8694:8699   */\n      dup4\n        /* \"#utility.yul\":8690:8706   */\n      add\n        /* \"#utility.yul\":8684:8707   */\n      mload\n        /* \"#utility.yul\":8754:8757   */\n      dup5\n        /* \"#utility.yul\":8748:8752   */\n      dup3\n        /* \"#utility.yul\":8744:8758   */\n      sub\n        /* \"#utility.yul\":8737:8741   */\n      0x40\n        /* \"#utility.yul\":8732:8735   */\n      dup7\n        /* \"#utility.yul\":8728:8742   */\n      add\n        /* \"#utility.yul\":8721:8759   */\n      mstore\n        /* \"#utility.yul\":8780:8853   */\n      tag_409\n        /* \"#utility.yul\":8848:8852   */\n      dup3\n        /* \"#utility.yul\":8834:8846   */\n      dup3\n        /* \"#utility.yul\":8780:8853   */\n      tag_388\n      jump\t// in\n    tag_409:\n        /* \"#utility.yul\":8772:8853   */\n      swap2\n      pop\n        /* \"#utility.yul\":8630:8864   */\n      pop\n        /* \"#utility.yul\":8949:8953   */\n      0x60\n        /* \"#utility.yul\":8942:8947   */\n      dup4\n        /* \"#utility.yul\":8938:8954   */\n      add\n        /* \"#utility.yul\":8932:8955   */\n      mload\n        /* \"#utility.yul\":9002:9005   */\n      dup5\n        /* \"#utility.yul\":8996:9000   */\n      dup3\n        /* \"#utility.yul\":8992:9006   */\n      sub\n        /* \"#utility.yul\":8985:8989   */\n      0x60\n        /* \"#utility.yul\":8980:8983   */\n      dup7\n        /* \"#utility.yul\":8976:8990   */\n      add\n        /* \"#utility.yul\":8969:9007   */\n      mstore\n        /* \"#utility.yul\":9028:9101   */\n      tag_410\n        /* \"#utility.yul\":9096:9100   */\n      dup3\n        /* \"#utility.yul\":9082:9094   */\n      dup3\n        /* \"#utility.yul\":9028:9101   */\n      tag_388\n      jump\t// in\n    tag_410:\n        /* \"#utility.yul\":9020:9101   */\n      swap2\n      pop\n        /* \"#utility.yul\":8874:9112   */\n      pop\n        /* \"#utility.yul\":9197:9201   */\n      0x80\n        /* \"#utility.yul\":9190:9195   */\n      dup4\n        /* \"#utility.yul\":9186:9202   */\n      add\n        /* \"#utility.yul\":9180:9203   */\n      mload\n        /* \"#utility.yul\":9250:9253   */\n      dup5\n        /* \"#utility.yul\":9244:9248   */\n      dup3\n        /* \"#utility.yul\":9240:9254   */\n      sub\n        /* \"#utility.yul\":9233:9237   */\n      0x80\n        /* \"#utility.yul\":9228:9231   */\n      dup7\n        /* \"#utility.yul\":9224:9238   */\n      add\n        /* \"#utility.yul\":9217:9255   */\n      mstore\n        /* \"#utility.yul\":9276:9349   */\n      tag_411\n        /* \"#utility.yul\":9344:9348   */\n      dup3\n        /* \"#utility.yul\":9330:9342   */\n      dup3\n        /* \"#utility.yul\":9276:9349   */\n      tag_388\n      jump\t// in\n    tag_411:\n        /* \"#utility.yul\":9268:9349   */\n      swap2\n      pop\n        /* \"#utility.yul\":9122:9360   */\n      pop\n        /* \"#utility.yul\":9447:9451   */\n      0xa0\n        /* \"#utility.yul\":9440:9445   */\n      dup4\n        /* \"#utility.yul\":9436:9452   */\n      add\n        /* \"#utility.yul\":9430:9453   */\n      mload\n        /* \"#utility.yul\":9500:9503   */\n      dup5\n        /* \"#utility.yul\":9494:9498   */\n      dup3\n        /* \"#utility.yul\":9490:9504   */\n      sub\n        /* \"#utility.yul\":9483:9487   */\n      0xa0\n        /* \"#utility.yul\":9478:9481   */\n      dup7\n        /* \"#utility.yul\":9474:9488   */\n      add\n        /* \"#utility.yul\":9467:9505   */\n      mstore\n        /* \"#utility.yul\":9526:9599   */\n      tag_412\n        /* \"#utility.yul\":9594:9598   */\n      dup3\n        /* \"#utility.yul\":9580:9592   */\n      dup3\n        /* \"#utility.yul\":9526:9599   */\n      tag_388\n      jump\t// in\n    tag_412:\n        /* \"#utility.yul\":9518:9599   */\n      swap2\n      pop\n        /* \"#utility.yul\":9370:9610   */\n      pop\n        /* \"#utility.yul\":9701:9705   */\n      0xc0\n        /* \"#utility.yul\":9694:9699   */\n      dup4\n        /* \"#utility.yul\":9690:9706   */\n      add\n        /* \"#utility.yul\":9684:9707   */\n      mload\n        /* \"#utility.yul\":9754:9757   */\n      dup5\n        /* \"#utility.yul\":9748:9752   */\n      dup3\n        /* \"#utility.yul\":9744:9758   */\n      sub\n        /* \"#utility.yul\":9737:9741   */\n      0xc0\n        /* \"#utility.yul\":9732:9735   */\n      dup7\n        /* \"#utility.yul\":9728:9742   */\n      add\n        /* \"#utility.yul\":9721:9759   */\n      mstore\n        /* \"#utility.yul\":9780:9853   */\n      tag_413\n        /* \"#utility.yul\":9848:9852   */\n      dup3\n        /* \"#utility.yul\":9834:9846   */\n      dup3\n        /* \"#utility.yul\":9780:9853   */\n      tag_388\n      jump\t// in\n    tag_413:\n        /* \"#utility.yul\":9772:9853   */\n      swap2\n      pop\n        /* \"#utility.yul\":9620:9864   */\n      pop\n        /* \"#utility.yul\":9949:9953   */\n      0xe0\n        /* \"#utility.yul\":9942:9947   */\n      dup4\n        /* \"#utility.yul\":9938:9954   */\n      add\n        /* \"#utility.yul\":9932:9955   */\n      mload\n        /* \"#utility.yul\":9968:10025   */\n      tag_414\n        /* \"#utility.yul\":10019:10023   */\n      0xe0\n        /* \"#utility.yul\":10014:10017   */\n      dup7\n        /* \"#utility.yul\":10010:10024   */\n      add\n        /* \"#utility.yul\":9996:10008   */\n      dup3\n        /* \"#utility.yul\":9968:10025   */\n      tag_381\n      jump\t// in\n    tag_414:\n        /* \"#utility.yul\":9874:10035   */\n      pop\n        /* \"#utility.yul\":10120:10126   */\n      0x0100\n        /* \"#utility.yul\":10113:10118   */\n      dup4\n        /* \"#utility.yul\":10109:10127   */\n      add\n        /* \"#utility.yul\":10103:10128   */\n      mload\n        /* \"#utility.yul\":10141:10200   */\n      tag_415\n        /* \"#utility.yul\":10192:10198   */\n      0x0100\n        /* \"#utility.yul\":10187:10190   */\n      dup7\n        /* \"#utility.yul\":10183:10199   */\n      add\n        /* \"#utility.yul\":10169:10181   */\n      dup3\n        /* \"#utility.yul\":10141:10200   */\n      tag_381\n      jump\t// in\n    tag_415:\n        /* \"#utility.yul\":10045:10210   */\n      pop\n        /* \"#utility.yul\":10297:10303   */\n      0x0120\n        /* \"#utility.yul\":10290:10295   */\n      dup4\n        /* \"#utility.yul\":10286:10304   */\n      add\n        /* \"#utility.yul\":10280:10305   */\n      mload\n        /* \"#utility.yul\":10318:10383   */\n      tag_416\n        /* \"#utility.yul\":10375:10381   */\n      0x0120\n        /* \"#utility.yul\":10370:10373   */\n      dup7\n        /* \"#utility.yul\":10366:10382   */\n      add\n        /* \"#utility.yul\":10352:10364   */\n      dup3\n        /* \"#utility.yul\":10318:10383   */\n      tag_359\n      jump\t// in\n    tag_416:\n        /* \"#utility.yul\":10220:10393   */\n      pop\n        /* \"#utility.yul\":10410:10414   */\n      dup1\n        /* \"#utility.yul\":10403:10414   */\n      swap2\n      pop\n        /* \"#utility.yul\":8236:10420   */\n      pop\n        /* \"#utility.yul\":8110:10420   */\n      swap3\n      swap2\n      pop\n      pop\n      jump\t// out\n        /* \"#utility.yul\":10490:12106   */\n    tag_417:\n        /* \"#utility.yul\":10607:10610   */\n      0x00\n        /* \"#utility.yul\":10643:10647   */\n      0xe0\n        /* \"#utility.yul\":10638:10641   */\n      dup4\n        /* \"#utility.yul\":10634:10648   */\n      add\n        /* \"#utility.yul\":10730:10734   */\n      0x00\n        /* \"#utility.yul\":10723:10728   */\n      dup4\n        /* \"#utility.yul\":10719:10735   */\n      add\n        /* \"#utility.yul\":10713:10736   */\n      mload\n        /* \"#utility.yul\":10749:10812   */\n      tag_419\n        /* \"#utility.yul\":10806:10810   */\n      0x00\n        /* \"#utility.yul\":10801:10804   */\n      dup7\n        /* \"#utility.yul\":10797:10811   */\n      add\n        /* \"#utility.yul\":10783:10795   */\n      dup3\n        /* \"#utility.yul\":10749:10812   */\n      tag_360\n      jump\t// in\n    tag_419:\n        /* \"#utility.yul\":10658:10822   */\n      pop\n        /* \"#utility.yul\":10904:10908   */\n      0x20\n        /* \"#utility.yul\":10897:10902   */\n      dup4\n        /* \"#utility.yul\":10893:10909   */\n      add\n        /* \"#utility.yul\":10887:10910   */\n      mload\n        /* \"#utility.yul\":10957:10960   */\n      dup5\n        /* \"#utility.yul\":10951:10955   */\n      dup3\n        /* \"#utility.yul\":10947:10961   */\n      sub\n        /* \"#utility.yul\":10940:10944   */\n      0x20\n        /* \"#utility.yul\":10935:10938   */\n      dup7\n        /* \"#utility.yul\":10931:10945   */\n      add\n        /* \"#utility.yul\":10924:10962   */\n      mstore\n        /* \"#utility.yul\":10983:11056   */\n      tag_420\n        /* \"#utility.yul\":11051:11055   */\n      dup3\n        /* \"#utility.yul\":11037:11049   */\n      dup3\n        /* \"#utility.yul\":10983:11056   */\n      tag_388\n      jump\t// in\n    tag_420:\n        /* \"#utility.yul\":10975:11056   */\n      swap2\n      pop\n        /* \"#utility.yul\":10832:11067   */\n      pop\n        /* \"#utility.yul\":11158:11162   */\n      0x40\n        /* \"#utility.yul\":11151:11156   */\n      dup4\n        /* \"#utility.yul\":11147:11163   */\n      add\n        /* \"#utility.yul\":11141:11164   */\n      mload\n        /* \"#utility.yul\":11211:11214   */\n      dup5\n        /* \"#utility.yul\":11205:11209   */\n      dup3\n        /* \"#utility.yul\":11201:11215   */\n      sub\n        /* \"#utility.yul\":11194:11198   */\n      0x40\n        /* \"#utility.yul\":11189:11192   */\n      dup7\n        /* \"#utility.yul\":11185:11199   */\n      add\n        /* \"#utility.yul\":11178:11216   */\n      mstore\n        /* \"#utility.yul\":11237:11340   */\n      tag_421\n        /* \"#utility.yul\":11335:11339   */\n      dup3\n        /* \"#utility.yul\":11321:11333   */\n      dup3\n        /* \"#utility.yul\":11237:11340   */\n      tag_367\n      jump\t// in\n    tag_421:\n        /* \"#utility.yul\":11229:11340   */\n      swap2\n      pop\n        /* \"#utility.yul\":11077:11351   */\n      pop\n        /* \"#utility.yul\":11436:11440   */\n      0x60\n        /* \"#utility.yul\":11429:11434   */\n      dup4\n        /* \"#utility.yul\":11425:11441   */\n      add\n        /* \"#utility.yul\":11419:11442   */\n      mload\n        /* \"#utility.yul\":11455:11518   */\n      tag_422\n        /* \"#utility.yul\":11512:11516   */\n      0x60\n        /* \"#utility.yul\":11507:11510   */\n      dup7\n        /* \"#utility.yul\":11503:11517   */\n      add\n        /* \"#utility.yul\":11489:11501   */\n      dup3\n        /* \"#utility.yul\":11455:11518   */\n      tag_359\n      jump\t// in\n    tag_422:\n        /* \"#utility.yul\":11361:11528   */\n      pop\n        /* \"#utility.yul\":11613:11617   */\n      0x80\n        /* \"#utility.yul\":11606:11611   */\n      dup4\n        /* \"#utility.yul\":11602:11618   */\n      add\n        /* \"#utility.yul\":11596:11619   */\n      mload\n        /* \"#utility.yul\":11632:11695   */\n      tag_423\n        /* \"#utility.yul\":11689:11693   */\n      0x80\n        /* \"#utility.yul\":11684:11687   */\n      dup7\n        /* \"#utility.yul\":11680:11694   */\n      add\n        /* \"#utility.yul\":11666:11678   */\n      dup3\n        /* \"#utility.yul\":11632:11695   */\n      tag_359\n      jump\t// in\n    tag_423:\n        /* \"#utility.yul\":11538:11705   */\n      pop\n        /* \"#utility.yul\":11800:11804   */\n      0xa0\n        /* \"#utility.yul\":11793:11798   */\n      dup4\n        /* \"#utility.yul\":11789:11805   */\n      add\n        /* \"#utility.yul\":11783:11806   */\n      mload\n        /* \"#utility.yul\":11819:11882   */\n      tag_424\n        /* \"#utility.yul\":11876:11880   */\n      0xa0\n        /* \"#utility.yul\":11871:11874   */\n      dup7\n        /* \"#utility.yul\":11867:11881   */\n      add\n        /* \"#utility.yul\":11853:11865   */\n      dup3\n        /* \"#utility.yul\":11819:11882   */\n      tag_359\n      jump\t// in\n    tag_424:\n        /* \"#utility.yul\":11715:11892   */\n      pop\n        /* \"#utility.yul\":11987:11991   */\n      0xc0\n        /* \"#utility.yul\":11980:11985   */\n      dup4\n        /* \"#utility.yul\":11976:11992   */\n      add\n        /* \"#utility.yul\":11970:11993   */\n      mload\n        /* \"#utility.yul\":12006:12069   */\n      tag_425\n        /* \"#utility.yul\":12063:12067   */\n      0xc0\n        /* \"#utility.yul\":12058:12061   */\n      dup7\n        /* \"#utility.yul\":12054:12068   */\n      add\n        /* \"#utility.yul\":12040:12052   */\n      dup3\n        /* \"#utility.yul\":12006:12069   */\n      tag_359\n      jump\t// in\n    tag_425:\n        /* \"#utility.yul\":11902:12079   */\n      pop\n        /* \"#utility.yul\":12096:12100   */\n      dup1\n        /* \"#utility.yul\":12089:12100   */\n      swap2\n      pop\n        /* \"#utility.yul\":10612:12106   */\n      pop\n        /* \"#utility.yul\":10490:12106   */\n      swap3\n      swap2\n      pop\n      pop\n      jump\t// out\n        /* \"#utility.yul\":12112:12220   */\n    tag_359:\n        /* \"#utility.yul\":12189:12213   */\n      tag_427\n        /* \"#utility.yul\":12207:12212   */\n      dup2\n        /* \"#utility.yul\":12189:12213   */\n      tag_428\n      jump\t// in\n    tag_427:\n        /* \"#utility.yul\":12184:12187   */\n      dup3\n        /* \"#utility.yul\":12177:12214   */\n      mstore\n        /* \"#utility.yul\":12112:12220   */\n      pop\n      pop\n      jump\t// out\n        /* \"#utility.yul\":12226:12344   */\n    tag_429:\n        /* \"#utility.yul\":12313:12337   */\n      tag_431\n        /* \"#utility.yul\":12331:12336   */\n      dup2\n        /* \"#utility.yul\":12313:12337   */\n      tag_428\n      jump\t// in\n    tag_431:\n        /* \"#utility.yul\":12308:12311   */\n      dup3\n        /* \"#utility.yul\":12301:12338   */\n      mstore\n        /* \"#utility.yul\":12226:12344   */\n      pop\n      pop\n      jump\t// out\n        /* \"#utility.yul\":12350:12572   */\n    tag_55:\n        /* \"#utility.yul\":12443:12447   */\n      0x00\n        /* \"#utility.yul\":12481:12483   */\n      0x20\n        /* \"#utility.yul\":12470:12479   */\n      dup3\n        /* \"#utility.yul\":12466:12484   */\n      add\n        /* \"#utility.yul\":12458:12484   */\n      swap1\n      pop\n        /* \"#utility.yul\":12494:12565   */\n      tag_433\n        /* \"#utility.yul\":12562:12563   */\n      0x00\n        /* \"#utility.yul\":12551:12560   */\n      dup4\n        /* \"#utility.yul\":12547:12564   */\n      add\n        /* \"#utility.yul\":12538:12544   */\n      dup5\n        /* \"#utility.yul\":12494:12565   */\n      tag_364\n      jump\t// in\n    tag_433:\n        /* \"#utility.yul\":12350:12572   */\n      swap3\n      swap2\n      pop\n      pop\n      jump\t// out\n        /* \"#utility.yul\":12578:13444   */\n    tag_84:\n        /* \"#utility.yul\":12831:12835   */\n      0x00\n        /* \"#utility.yul\":12869:12872   */\n      0xc0\n        /* \"#utility.yul\":12858:12867   */\n      dup3\n        /* \"#utility.yul\":12854:12873   */\n      add\n        /* \"#utility.yul\":12846:12873   */\n      swap1\n      pop\n        /* \"#utility.yul\":12883:12954   */\n      tag_435\n        /* \"#utility.yul\":12951:12952   */\n      0x00\n        /* \"#utility.yul\":12940:12949   */\n      dup4\n        /* \"#utility.yul\":12936:12953   */\n      add\n        /* \"#utility.yul\":12927:12933   */\n      dup10\n        /* \"#utility.yul\":12883:12954   */\n      tag_364\n      jump\t// in\n    tag_435:\n        /* \"#utility.yul\":13001:13010   */\n      dup2\n        /* \"#utility.yul\":12995:12999   */\n      dup2\n        /* \"#utility.yul\":12991:13011   */\n      sub\n        /* \"#utility.yul\":12986:12988   */\n      0x20\n        /* \"#utility.yul\":12975:12984   */\n      dup4\n        /* \"#utility.yul\":12971:12989   */\n      add\n        /* \"#utility.yul\":12964:13012   */\n      mstore\n        /* \"#utility.yul\":13029:13107   */\n      tag_436\n        /* \"#utility.yul\":13102:13106   */\n      dup2\n        /* \"#utility.yul\":13093:13099   */\n      dup9\n        /* \"#utility.yul\":13029:13107   */\n      tag_398\n      jump\t// in\n    tag_436:\n        /* \"#utility.yul\":13021:13107   */\n      swap1\n      pop\n        /* \"#utility.yul\":13117:13189   */\n      tag_437\n        /* \"#utility.yul\":13185:13187   */\n      0x40\n        /* \"#utility.yul\":13174:13183   */\n      dup4\n        /* \"#utility.yul\":13170:13188   */\n      add\n        /* \"#utility.yul\":13161:13167   */\n      dup8\n        /* \"#utility.yul\":13117:13189   */\n      tag_429\n      jump\t// in\n    tag_437:\n        /* \"#utility.yul\":13199:13271   */\n      tag_438\n        /* \"#utility.yul\":13267:13269   */\n      0x60\n        /* \"#utility.yul\":13256:13265   */\n      dup4\n        /* \"#utility.yul\":13252:13270   */\n      add\n        /* \"#utility.yul\":13243:13249   */\n      dup7\n        /* \"#utility.yul\":13199:13271   */\n      tag_429\n      jump\t// in\n    tag_438:\n        /* \"#utility.yul\":13281:13354   */\n      tag_439\n        /* \"#utility.yul\":13349:13352   */\n      0x80\n        /* \"#utility.yul\":13338:13347   */\n      dup4\n        /* \"#utility.yul\":13334:13353   */\n      add\n        /* \"#utility.yul\":13325:13331   */\n      dup6\n        /* \"#utility.yul\":13281:13354   */\n      tag_429\n      jump\t// in\n    tag_439:\n        /* \"#utility.yul\":13364:13437   */\n      tag_440\n        /* \"#utility.yul\":13432:13435   */\n      0xa0\n        /* \"#utility.yul\":13421:13430   */\n      dup4\n        /* \"#utility.yul\":13417:13436   */\n      add\n        /* \"#utility.yul\":13408:13414   */\n      dup5\n        /* \"#utility.yul\":13364:13437   */\n      tag_429\n      jump\t// in\n    tag_440:\n        /* \"#utility.yul\":12578:13444   */\n      swap8\n      swap7\n      pop\n      pop\n      pop\n      pop\n      pop\n      pop\n      pop\n      jump\t// out\n        /* \"#utility.yul\":13450:13827   */\n    tag_31:\n        /* \"#utility.yul\":13595:13599   */\n      0x00\n        /* \"#utility.yul\":13633:13635   */\n      0x20\n        /* \"#utility.yul\":13622:13631   */\n      dup3\n        /* \"#utility.yul\":13618:13636   */\n      add\n        /* \"#utility.yul\":13610:13636   */\n      swap1\n      pop\n        /* \"#utility.yul\":13682:13691   */\n      dup2\n        /* \"#utility.yul\":13676:13680   */\n      dup2\n        /* \"#utility.yul\":13672:13692   */\n      sub\n        /* \"#utility.yul\":13668:13669   */\n      0x00\n        /* \"#utility.yul\":13657:13666   */\n      dup4\n        /* \"#utility.yul\":13653:13670   */\n      add\n        /* \"#utility.yul\":13646:13693   */\n      mstore\n        /* \"#utility.yul\":13710:13820   */\n      tag_442\n        /* \"#utility.yul\":13815:13819   */\n      dup2\n        /* \"#utility.yul\":13806:13812   */\n      dup5\n        /* \"#utility.yul\":13710:13820   */\n      tag_405\n      jump\t// in\n    tag_442:\n        /* \"#utility.yul\":13702:13820   */\n      swap1\n      pop\n        /* \"#utility.yul\":13450:13827   */\n      swap3\n      swap2\n      pop\n      pop\n      jump\t// out\n        /* \"#utility.yul\":13833:14202   */\n    tag_49:\n        /* \"#utility.yul\":13974:13978   */\n      0x00\n        /* \"#utility.yul\":14012:14014   */\n      0x20\n        /* \"#utility.yul\":14001:14010   */\n      dup3\n        /* \"#utility.yul\":13997:14015   */\n      add\n        /* \"#utility.yul\":13989:14015   */\n      swap1\n      pop\n        /* \"#utility.yul\":14061:14070   */\n      dup2\n        /* \"#utility.yul\":14055:14059   */\n      dup2\n        /* \"#utility.yul\":14051:14071   */\n      sub\n        /* \"#utility.yul\":14047:14048   */\n      0x00\n        /* \"#utility.yul\":14036:14045   */\n      dup4\n        /* \"#utility.yul\":14032:14049   */\n      add\n        /* \"#utility.yul\":14025:14072   */\n      mstore\n        /* \"#utility.yul\":14089:14195   */\n      tag_444\n        /* \"#utility.yul\":14190:14194   */\n      dup2\n        /* \"#utility.yul\":14181:14187   */\n      dup5\n        /* \"#utility.yul\":14089:14195   */\n      tag_417\n      jump\t// in\n    tag_444:\n        /* \"#utility.yul\":14081:14195   */\n      swap1\n      pop\n        /* \"#utility.yul\":13833:14202   */\n      swap3\n      swap2\n      pop\n      pop\n      jump\t// out\n        /* \"#utility.yul\":14208:14430   */\n    tag_26:\n        /* \"#utility.yul\":14301:14305   */\n      0x00\n        /* \"#utility.yul\":14339:14341   */\n      0x20\n        /* \"#utility.yul\":14328:14337   */\n      dup3\n        /* \"#utility.yul\":14324:14342   */\n      add\n        /* \"#utility.yul\":14316:14342   */\n      swap1\n      pop\n        /* \"#utility.yul\":14352:14423   */\n      tag_446\n        /* \"#utility.yul\":14420:14421   */\n      0x00\n        /* \"#utility.yul\":14409:14418   */\n      dup4\n        /* \"#utility.yul\":14405:14422   */\n      add\n        /* \"#utility.yul\":14396:14402   */\n      dup5\n        /* \"#utility.yul\":14352:14423   */\n      tag_429\n      jump\t// in\n    tag_446:\n        /* \"#utility.yul\":14208:14430   */\n      swap3\n      swap2\n      pop\n      pop\n      jump\t// out\n        /* \"#utility.yul\":14436:16086   */\n    tag_41:\n        /* \"#utility.yul\":14869:14873   */\n      0x00\n        /* \"#utility.yul\":14907:14910   */\n      0x0140\n        /* \"#utility.yul\":14896:14905   */\n      dup3\n        /* \"#utility.yul\":14892:14911   */\n      add\n        /* \"#utility.yul\":14884:14911   */\n      swap1\n      pop\n        /* \"#utility.yul\":14921:14992   */\n      tag_448\n        /* \"#utility.yul\":14989:14990   */\n      0x00\n        /* \"#utility.yul\":14978:14987   */\n      dup4\n        /* \"#utility.yul\":14974:14991   */\n      add\n        /* \"#utility.yul\":14965:14971   */\n      dup14\n        /* \"#utility.yul\":14921:14992   */\n      tag_429\n      jump\t// in\n    tag_448:\n        /* \"#utility.yul\":15002:15074   */\n      tag_449\n        /* \"#utility.yul\":15070:15072   */\n      0x20\n        /* \"#utility.yul\":15059:15068   */\n      dup4\n        /* \"#utility.yul\":15055:15073   */\n      add\n        /* \"#utility.yul\":15046:15052   */\n      dup13\n        /* \"#utility.yul\":15002:15074   */\n      tag_364\n      jump\t// in\n    tag_449:\n        /* \"#utility.yul\":15121:15130   */\n      dup2\n        /* \"#utility.yul\":15115:15119   */\n      dup2\n        /* \"#utility.yul\":15111:15131   */\n      sub\n        /* \"#utility.yul\":15106:15108   */\n      0x40\n        /* \"#utility.yul\":15095:15104   */\n      dup4\n        /* \"#utility.yul\":15091:15109   */\n      add\n        /* \"#utility.yul\":15084:15132   */\n      mstore\n        /* \"#utility.yul\":15149:15227   */\n      tag_450\n        /* \"#utility.yul\":15222:15226   */\n      dup2\n        /* \"#utility.yul\":15213:15219   */\n      dup12\n        /* \"#utility.yul\":15149:15227   */\n      tag_398\n      jump\t// in\n    tag_450:\n        /* \"#utility.yul\":15141:15227   */\n      swap1\n      pop\n        /* \"#utility.yul\":15274:15283   */\n      dup2\n        /* \"#utility.yul\":15268:15272   */\n      dup2\n        /* \"#utility.yul\":15264:15284   */\n      sub\n        /* \"#utility.yul\":15259:15261   */\n      0x60\n        /* \"#utility.yul\":15248:15257   */\n      dup4\n        /* \"#utility.yul\":15244:15262   */\n      add\n        /* \"#utility.yul\":15237:15285   */\n      mstore\n        /* \"#utility.yul\":15302:15380   */\n      tag_451\n        /* \"#utility.yul\":15375:15379   */\n      dup2\n        /* \"#utility.yul\":15366:15372   */\n      dup11\n        /* \"#utility.yul\":15302:15380   */\n      tag_398\n      jump\t// in\n    tag_451:\n        /* \"#utility.yul\":15294:15380   */\n      swap1\n      pop\n        /* \"#utility.yul\":15428:15437   */\n      dup2\n        /* \"#utility.yul\":15422:15426   */\n      dup2\n        /* \"#utility.yul\":15418:15438   */\n      sub\n        /* \"#utility.yul\":15412:15415   */\n      0x80\n        /* \"#utility.yul\":15401:15410   */\n      dup4\n        /* \"#utility.yul\":15397:15416   */\n      add\n        /* \"#utility.yul\":15390:15439   */\n      mstore\n        /* \"#utility.yul\":15456:15534   */\n      tag_452\n        /* \"#utility.yul\":15529:15533   */\n      dup2\n        /* \"#utility.yul\":15520:15526   */\n      dup10\n        /* \"#utility.yul\":15456:15534   */\n      tag_398\n      jump\t// in\n    tag_452:\n        /* \"#utility.yul\":15448:15534   */\n      swap1\n      pop\n        /* \"#utility.yul\":15582:15591   */\n      dup2\n        /* \"#utility.yul\":15576:15580   */\n      dup2\n        /* \"#utility.yul\":15572:15592   */\n      sub\n        /* \"#utility.yul\":15566:15569   */\n      0xa0\n        /* \"#utility.yul\":15555:15564   */\n      dup4\n        /* \"#utility.yul\":15551:15570   */\n      add\n        /* \"#utility.yul\":15544:15593   */\n      mstore\n        /* \"#utility.yul\":15610:15688   */\n      tag_453\n        /* \"#utility.yul\":15683:15687   */\n      dup2\n        /* \"#utility.yul\":15674:15680   */\n      dup9\n        /* \"#utility.yul\":15610:15688   */\n      tag_398\n      jump\t// in\n    tag_453:\n        /* \"#utility.yul\":15602:15688   */\n      swap1\n      pop\n        /* \"#utility.yul\":15736:15745   */\n      dup2\n        /* \"#utility.yul\":15730:15734   */\n      dup2\n        /* \"#utility.yul\":15726:15746   */\n      sub\n        /* \"#utility.yul\":15720:15723   */\n      0xc0\n        /* \"#utility.yul\":15709:15718   */\n      dup4\n        /* \"#utility.yul\":15705:15724   */\n      add\n        /* \"#utility.yul\":15698:15747   */\n      mstore\n        /* \"#utility.yul\":15764:15842   */\n      tag_454\n        /* \"#utility.yul\":15837:15841   */\n      dup2\n        /* \"#utility.yul\":15828:15834   */\n      dup8\n        /* \"#utility.yul\":15764:15842   */\n      tag_398\n      jump\t// in\n    tag_454:\n        /* \"#utility.yul\":15756:15842   */\n      swap1\n      pop\n        /* \"#utility.yul\":15852:15919   */\n      tag_455\n        /* \"#utility.yul\":15914:15917   */\n      0xe0\n        /* \"#utility.yul\":15903:15912   */\n      dup4\n        /* \"#utility.yul\":15899:15918   */\n      add\n        /* \"#utility.yul\":15890:15896   */\n      dup7\n        /* \"#utility.yul\":15852:15919   */\n      tag_385\n      jump\t// in\n    tag_455:\n        /* \"#utility.yul\":15929:15996   */\n      tag_456\n        /* \"#utility.yul\":15991:15994   */\n      0x0100\n        /* \"#utility.yul\":15980:15989   */\n      dup4\n        /* \"#utility.yul\":15976:15995   */\n      add\n        /* \"#utility.yul\":15967:15973   */\n      dup6\n        /* \"#utility.yul\":15929:15996   */\n      tag_385\n      jump\t// in\n    tag_456:\n        /* \"#utility.yul\":16006:16079   */\n      tag_457\n        /* \"#utility.yul\":16074:16077   */\n      0x0120\n        /* \"#utility.yul\":16063:16072   */\n      dup4\n        /* \"#utility.yul\":16059:16078   */\n      add\n        /* \"#utility.yul\":16050:16056   */\n      dup5\n        /* \"#utility.yul\":16006:16079   */\n      tag_429\n      jump\t// in\n    tag_457:\n        /* \"#utility.yul\":14436:16086   */\n      swap12\n      swap11\n      pop\n      pop\n      pop\n      pop\n      pop\n      pop\n      pop\n      pop\n      pop\n      pop\n      pop\n      jump\t// out\n        /* \"#utility.yul\":16092:16412   */\n    tag_60:\n        /* \"#utility.yul\":16207:16211   */\n      0x00\n        /* \"#utility.yul\":16245:16247   */\n      0x40\n        /* \"#utility.yul\":16234:16243   */\n      dup3\n        /* \"#utility.yul\":16230:16248   */\n      add\n        /* \"#utility.yul\":16222:16248   */\n      swap1\n      pop\n        /* \"#utility.yul\":16258:16329   */\n      tag_459\n        /* \"#utility.yul\":16326:16327   */\n      0x00\n        /* \"#utility.yul\":16315:16324   */\n      dup4\n        /* \"#utility.yul\":16311:16328   */\n      add\n        /* \"#utility.yul\":16302:16308   */\n      dup6\n        /* \"#utility.yul\":16258:16329   */\n      tag_429\n      jump\t// in\n    tag_459:\n        /* \"#utility.yul\":16339:16405   */\n      tag_460\n        /* \"#utility.yul\":16401:16403   */\n      0x20\n        /* \"#utility.yul\":16390:16399   */\n      dup4\n        /* \"#utility.yul\":16386:16404   */\n      add\n        /* \"#utility.yul\":16377:16383   */\n      dup5\n        /* \"#utility.yul\":16339:16405   */\n      tag_385\n      jump\t// in\n    tag_460:\n        /* \"#utility.yul\":16092:16412   */\n      swap4\n      swap3\n      pop\n      pop\n      pop\n      jump\t// out\n        /* \"#utility.yul\":16418:16547   */\n    tag_281:\n        /* \"#utility.yul\":16452:16458   */\n      0x00\n        /* \"#utility.yul\":16479:16499   */\n      tag_462\n      tag_463\n      jump\t// in\n    tag_462:\n        /* \"#utility.yul\":16469:16499   */\n      swap1\n      pop\n        /* \"#utility.yul\":16508:16541   */\n      tag_464\n        /* \"#utility.yul\":16536:16540   */\n      dup3\n        /* \"#utility.yul\":16528:16534   */\n      dup3\n        /* \"#utility.yul\":16508:16541   */\n      tag_465\n      jump\t// in\n    tag_464:\n        /* \"#utility.yul\":16418:16547   */\n      swap2\n      swap1\n      pop\n      jump\t// out\n        /* \"#utility.yul\":16553:16628   */\n    tag_463:\n        /* \"#utility.yul\":16586:16592   */\n      0x00\n        /* \"#utility.yul\":16619:16621   */\n      0x40\n        /* \"#utility.yul\":16613:16622   */\n      mload\n        /* \"#utility.yul\":16603:16622   */\n      swap1\n      pop\n        /* \"#utility.yul\":16553:16628   */\n      swap1\n      jump\t// out\n        /* \"#utility.yul\":16634:16942   */\n    tag_280:\n        /* \"#utility.yul\":16696:16700   */\n      0x00\n        /* \"#utility.yul\":16786:16804   */\n      0xffffffffffffffff\n        /* \"#utility.yul\":16778:16784   */\n      dup3\n        /* \"#utility.yul\":16775:16805   */\n      gt\n        /* \"#utility.yul\":16772:16828   */\n      iszero\n      tag_468\n      jumpi\n        /* \"#utility.yul\":16808:16826   */\n      tag_469\n      tag_470\n      jump\t// in\n    tag_469:\n        /* \"#utility.yul\":16772:16828   */\n    tag_468:\n        /* \"#utility.yul\":16846:16875   */\n      tag_471\n        /* \"#utility.yul\":16868:16874   */\n      dup3\n        /* \"#utility.yul\":16846:16875   */\n      tag_397\n      jump\t// in\n    tag_471:\n        /* \"#utility.yul\":16838:16875   */\n      swap1\n      pop\n        /* \"#utility.yul\":16930:16934   */\n      0x20\n        /* \"#utility.yul\":16924:16928   */\n      dup2\n        /* \"#utility.yul\":16920:16935   */\n      add\n        /* \"#utility.yul\":16912:16935   */\n      swap1\n      pop\n        /* \"#utility.yul\":16634:16942   */\n      swap2\n      swap1\n      pop\n      jump\t// out\n        /* \"#utility.yul\":16948:17080   */\n    tag_374:\n        /* \"#utility.yul\":17015:17019   */\n      0x00\n        /* \"#utility.yul\":17038:17041   */\n      dup2\n        /* \"#utility.yul\":17030:17041   */\n      swap1\n      pop\n        /* \"#utility.yul\":17068:17072   */\n      0x20\n        /* \"#utility.yul\":17063:17066   */\n      dup3\n        /* \"#utility.yul\":17059:17073   */\n      add\n        /* \"#utility.yul\":17051:17073   */\n      swap1\n      pop\n        /* \"#utility.yul\":16948:17080   */\n      swap2\n      swap1\n      pop\n      jump\t// out\n        /* \"#utility.yul\":17086:17200   */\n    tag_370:\n        /* \"#utility.yul\":17153:17159   */\n      0x00\n        /* \"#utility.yul\":17187:17192   */\n      dup2\n        /* \"#utility.yul\":17181:17193   */\n      mload\n        /* \"#utility.yul\":17171:17193   */\n      swap1\n      pop\n        /* \"#utility.yul\":17086:17200   */\n      swap2\n      swap1\n      pop\n      jump\t// out\n        /* \"#utility.yul\":17206:17305   */\n    tag_391:\n        /* \"#utility.yul\":17258:17264   */\n      0x00\n        /* \"#utility.yul\":17292:17297   */\n      dup2\n        /* \"#utility.yul\":17286:17298   */\n      mload\n        /* \"#utility.yul\":17276:17298   */\n      swap1\n      pop\n        /* \"#utility.yul\":17206:17305   */\n      swap2\n      swap1\n      pop\n      jump\t// out\n        /* \"#utility.yul\":17311:17424   */\n    tag_380:\n        /* \"#utility.yul\":17381:17385   */\n      0x00\n        /* \"#utility.yul\":17413:17417   */\n      0x20\n        /* \"#utility.yul\":17408:17411   */\n      dup3\n        /* \"#utility.yul\":17404:17418   */\n      add\n        /* \"#utility.yul\":17396:17418   */\n      swap1\n      pop\n        /* \"#utility.yul\":17311:17424   */\n      swap2\n      swap1\n      pop\n      jump\t// out\n        /* \"#utility.yul\":17430:17604   */\n    tag_372:\n        /* \"#utility.yul\":17519:17530   */\n      0x00\n        /* \"#utility.yul\":17553:17559   */\n      dup3\n        /* \"#utility.yul\":17548:17551   */\n      dup3\n        /* \"#utility.yul\":17541:17560   */\n      mstore\n        /* \"#utility.yul\":17593:17597   */\n      0x20\n        /* \"#utility.yul\":17588:17591   */\n      dup3\n        /* \"#utility.yul\":17584:17598   */\n      add\n        /* \"#utility.yul\":17569:17598   */\n      swap1\n      pop\n        /* \"#utility.yul\":17430:17604   */\n      swap3\n      swap2\n      pop\n      pop\n      jump\t// out\n        /* \"#utility.yul\":17610:17769   */\n    tag_393:\n        /* \"#utility.yul\":17684:17695   */\n      0x00\n        /* \"#utility.yul\":17718:17724   */\n      dup3\n        /* \"#utility.yul\":17713:17716   */\n      dup3\n        /* \"#utility.yul\":17706:17725   */\n      mstore\n        /* \"#utility.yul\":17758:17762   */\n      0x20\n        /* \"#utility.yul\":17753:17756   */\n      dup3\n        /* \"#utility.yul\":17749:17763   */\n      add\n        /* \"#utility.yul\":17734:17763   */\n      swap1\n      pop\n        /* \"#utility.yul\":17610:17769   */\n      swap3\n      swap2\n      pop\n      pop\n      jump\t// out\n        /* \"#utility.yul\":17775:17944   */\n    tag_402:\n        /* \"#utility.yul\":17859:17870   */\n      0x00\n        /* \"#utility.yul\":17893:17899   */\n      dup3\n        /* \"#utility.yul\":17888:17891   */\n      dup3\n        /* \"#utility.yul\":17881:17900   */\n      mstore\n        /* \"#utility.yul\":17933:17937   */\n      0x20\n        /* \"#utility.yul\":17928:17931   */\n      dup3\n        /* \"#utility.yul\":17924:17938   */\n      add\n        /* \"#utility.yul\":17909:17938   */\n      swap1\n      pop\n        /* \"#utility.yul\":17775:17944   */\n      swap3\n      swap2\n      pop\n      pop\n      jump\t// out\n        /* \"#utility.yul\":17950:18255   */\n    tag_128:\n        /* \"#utility.yul\":17990:17993   */\n      0x00\n        /* \"#utility.yul\":18009:18029   */\n      tag_480\n        /* \"#utility.yul\":18027:18028   */\n      dup3\n        /* \"#utility.yul\":18009:18029   */\n      tag_428\n      jump\t// in\n    tag_480:\n        /* \"#utility.yul\":18004:18029   */\n      swap2\n      pop\n        /* \"#utility.yul\":18043:18063   */\n      tag_481\n        /* \"#utility.yul\":18061:18062   */\n      dup4\n        /* \"#utility.yul\":18043:18063   */\n      tag_428\n      jump\t// in\n    tag_481:\n        /* \"#utility.yul\":18038:18063   */\n      swap3\n      pop\n        /* \"#utility.yul\":18197:18198   */\n      dup3\n        /* \"#utility.yul\":18129:18195   */\n      0xffffffffffffffffffffffffffffffffffffffffffffffffffffffffffffffff\n        /* \"#utility.yul\":18125:18199   */\n      sub\n        /* \"#utility.yul\":18122:18123   */\n      dup3\n        /* \"#utility.yul\":18119:18200   */\n      gt\n        /* \"#utility.yul\":18116:18223   */\n      iszero\n      tag_482\n      jumpi\n        /* \"#utility.yul\":18203:18221   */\n      tag_483\n      tag_484\n      jump\t// in\n    tag_483:\n        /* \"#utility.yul\":18116:18223   */\n    tag_482:\n        /* \"#utility.yul\":18247:18248   */\n      dup3\n        /* \"#utility.yul\":18244:18245   */\n      dup3\n        /* \"#utility.yul\":18240:18249   */\n      add\n        /* \"#utility.yul\":18233:18249   */\n      swap1\n      pop\n        /* \"#utility.yul\":17950:18255   */\n      swap3\n      swap2\n      pop\n      pop\n      jump\t// out\n        /* \"#utility.yul\":18261:18452   */\n    tag_95:\n        /* \"#utility.yul\":18301:18305   */\n      0x00\n        /* \"#utility.yul\":18321:18341   */\n      tag_486\n        /* \"#utility.yul\":18339:18340   */\n      dup3\n        /* \"#utility.yul\":18321:18341   */\n      tag_428\n      jump\t// in\n    tag_486:\n        /* \"#utility.yul\":18316:18341   */\n      swap2\n      pop\n        /* \"#utility.yul\":18355:18375   */\n      tag_487\n        /* \"#utility.yul\":18373:18374   */\n      dup4\n        /* \"#utility.yul\":18355:18375   */\n      tag_428\n      jump\t// in\n    tag_487:\n        /* \"#utility.yul\":18350:18375   */\n      swap3\n      pop\n        /* \"#utility.yul\":18394:18395   */\n      dup3\n        /* \"#utility.yul\":18391:18392   */\n      dup3\n        /* \"#utility.yul\":18388:18396   */\n      lt\n        /* \"#utility.yul\":18385:18419   */\n      iszero\n      tag_488\n      jumpi\n        /* \"#utility.yul\":18399:18417   */\n      tag_489\n      tag_484\n      jump\t// in\n    tag_489:\n        /* \"#utility.yul\":18385:18419   */\n    tag_488:\n        /* \"#utility.yul\":18444:18445   */\n      dup3\n        /* \"#utility.yul\":18441:18442   */\n      dup3\n        /* \"#utility.yul\":18437:18446   */\n      sub\n        /* \"#utility.yul\":18429:18446   */\n      swap1\n      pop\n        /* \"#utility.yul\":18261:18452   */\n      swap3\n      swap2\n      pop\n      pop\n      jump\t// out\n        /* \"#utility.yul\":18458:18554   */\n    tag_363:\n        /* \"#utility.yul\":18495:18502   */\n      0x00\n        /* \"#utility.yul\":18524:18548   */\n      tag_491\n        /* \"#utility.yul\":18542:18547   */\n      dup3\n        /* \"#utility.yul\":18524:18548   */\n      tag_492\n      jump\t// in\n    tag_491:\n        /* \"#utility.yul\":18513:18548   */\n      swap1\n      pop\n        /* \"#utility.yul\":18458:18554   */\n      swap2\n      swap1\n      pop\n      jump\t// out\n        /* \"#utility.yul\":18560:18650   */\n    tag_384:\n        /* \"#utility.yul\":18594:18601   */\n      0x00\n        /* \"#utility.yul\":18637:18642   */\n      dup2\n        /* \"#utility.yul\":18630:18643   */\n      iszero\n        /* \"#utility.yul\":18623:18644   */\n      iszero\n        /* \"#utility.yul\":18612:18644   */\n      swap1\n      pop\n        /* \"#utility.yul\":18560:18650   */\n      swap2\n      swap1\n      pop\n      jump\t// out\n        /* \"#utility.yul\":18656:18782   */\n    tag_492:\n        /* \"#utility.yul\":18693:18700   */\n      0x00\n        /* \"#utility.yul\":18733:18775   */\n      0xffffffffffffffffffffffffffffffffffffffff\n        /* \"#utility.yul\":18726:18731   */\n      dup3\n        /* \"#utility.yul\":18722:18776   */\n      and\n        /* \"#utility.yul\":18711:18776   */\n      swap1\n      pop\n        /* \"#utility.yul\":18656:18782   */\n      swap2\n      swap1\n      pop\n      jump\t// out\n        /* \"#utility.yul\":18788:18865   */\n    tag_428:\n        /* \"#utility.yul\":18825:18832   */\n      0x00\n        /* \"#utility.yul\":18854:18859   */\n      dup2\n        /* \"#utility.yul\":18843:18859   */\n      swap1\n      pop\n        /* \"#utility.yul\":18788:18865   */\n      swap2\n      swap1\n      pop\n      jump\t// out\n        /* \"#utility.yul\":18871:19025   */\n    tag_286:\n        /* \"#utility.yul\":18955:18961   */\n      dup3\n        /* \"#utility.yul\":18950:18953   */\n      dup2\n        /* \"#utility.yul\":18945:18948   */\n      dup4\n        /* \"#utility.yul\":18932:18962   */\n      calldatacopy\n        /* \"#utility.yul\":19017:19018   */\n      0x00\n        /* \"#utility.yul\":19008:19014   */\n      dup4\n        /* \"#utility.yul\":19003:19006   */\n      dup4\n        /* \"#utility.yul\":18999:19015   */\n      add\n        /* \"#utility.yul\":18992:19019   */\n      mstore\n        /* \"#utility.yul\":18871:19025   */\n      pop\n      pop\n      pop\n      jump\t// out\n        /* \"#utility.yul\":19031:19338   */\n    tag_395:\n        /* \"#utility.yul\":19099:19100   */\n      0x00\n        /* \"#utility.yul\":19109:19222   */\n    tag_498:\n        /* \"#utility.yul\":19123:19129   */\n      dup4\n        /* \"#utility.yul\":19120:19121   */\n      dup2\n        /* \"#utility.yul\":19117:19130   */\n      lt\n        /* \"#utility.yul\":19109:19222   */\n      iszero\n      tag_500\n      jumpi\n        /* \"#utility.yul\":19208:19209   */\n      dup1\n        /* \"#utility.yul\":19203:19206   */\n      dup3\n        /* \"#utility.yul\":19199:19210   */\n      add\n        /* \"#utility.yul\":19193:19211   */\n      mload\n        /* \"#utility.yul\":19189:19190   */\n      dup2\n        /* \"#utility.yul\":19184:19187   */\n      dup5\n        /* \"#utility.yul\":19180:19191   */\n      add\n        /* \"#utility.yul\":19173:19212   */\n      mstore\n        /* \"#utility.yul\":19145:19147   */\n      0x20\n        /* \"#utility.yul\":19142:19143   */\n      dup2\n        /* \"#utility.yul\":19138:19148   */\n      add\n        /* \"#utility.yul\":19133:19148   */\n      swap1\n      pop\n        /* \"#utility.yul\":19109:19222   */\n      jump(tag_498)\n    tag_500:\n        /* \"#utility.yul\":19240:19246   */\n      dup4\n        /* \"#utility.yul\":19237:19238   */\n      dup2\n        /* \"#utility.yul\":19234:19247   */\n      gt\n        /* \"#utility.yul\":19231:19332   */\n      iszero\n      tag_501\n      jumpi\n        /* \"#utility.yul\":19320:19321   */\n      0x00\n        /* \"#utility.yul\":19311:19317   */\n      dup5\n        /* \"#utility.yul\":19306:19309   */\n      dup5\n        /* \"#utility.yul\":19302:19318   */\n      add\n        /* \"#utility.yul\":19295:19322   */\n      mstore\n        /* \"#utility.yul\":19231:19332   */\n    tag_501:\n        /* \"#utility.yul\":19080:19338   */\n      pop\n        /* \"#utility.yul\":19031:19338   */\n      pop\n      pop\n      pop\n      jump\t// out\n        /* \"#utility.yul\":19344:19664   */\n    tag_101:\n        /* \"#utility.yul\":19388:19394   */\n      0x00\n        /* \"#utility.yul\":19425:19426   */\n      0x02\n        /* \"#utility.yul\":19419:19423   */\n      dup3\n        /* \"#utility.yul\":19415:19427   */\n      div\n        /* \"#utility.yul\":19405:19427   */\n      swap1\n      pop\n        /* \"#utility.yul\":19472:19473   */\n      0x01\n        /* \"#utility.yul\":19466:19470   */\n      dup3\n        /* \"#utility.yul\":19462:19474   */\n      and\n        /* \"#utility.yul\":19493:19511   */\n      dup1\n        /* \"#utility.yul\":19483:19564   */\n      tag_503\n      jumpi\n        /* \"#utility.yul\":19549:19553   */\n      0x7f\n        /* \"#utility.yul\":19541:19547   */\n      dup3\n        /* \"#utility.yul\":19537:19554   */\n      and\n        /* \"#utility.yul\":19527:19554   */\n      swap2\n      pop\n        /* \"#utility.yul\":19483:19564   */\n    tag_503:\n        /* \"#utility.yul\":19611:19613   */\n      0x20\n        /* \"#utility.yul\":19603:19609   */\n      dup3\n        /* \"#utility.yul\":19600:19614   */\n      lt\n        /* \"#utility.yul\":19580:19598   */\n      dup2\n        /* \"#utility.yul\":19577:19615   */\n      eq\n        /* \"#utility.yul\":19574:19658   */\n      iszero\n      tag_504\n      jumpi\n        /* \"#utility.yul\":19630:19648   */\n      tag_505\n      tag_506\n      jump\t// in\n    tag_505:\n        /* \"#utility.yul\":19574:19658   */\n    tag_504:\n        /* \"#utility.yul\":19395:19664   */\n      pop\n        /* \"#utility.yul\":19344:19664   */\n      swap2\n      swap1\n      pop\n      jump\t// out\n        /* \"#utility.yul\":19670:19951   */\n    tag_465:\n        /* \"#utility.yul\":19753:19780   */\n      tag_508\n        /* \"#utility.yul\":19775:19779   */\n      dup3\n        /* \"#utility.yul\":19753:19780   */\n      tag_397\n      jump\t// in\n    tag_508:\n        /* \"#utility.yul\":19745:19751   */\n      dup2\n        /* \"#utility.yul\":19741:19781   */\n      add\n        /* \"#utility.yul\":19883:19889   */\n      dup2\n        /* \"#utility.yul\":19871:19881   */\n      dup2\n        /* \"#utility.yul\":19868:19890   */\n      lt\n        /* \"#utility.yul\":19847:19865   */\n      0xffffffffffffffff\n        /* \"#utility.yul\":19835:19845   */\n      dup3\n        /* \"#utility.yul\":19832:19866   */\n      gt\n        /* \"#utility.yul\":19829:19891   */\n      or\n        /* \"#utility.yul\":19826:19914   */\n      iszero\n      tag_509\n      jumpi\n        /* \"#utility.yul\":19894:19912   */\n      tag_510\n      tag_470\n      jump\t// in\n    tag_510:\n        /* \"#utility.yul\":19826:19914   */\n    tag_509:\n        /* \"#utility.yul\":19934:19944   */\n      dup1\n        /* \"#utility.yul\":19930:19932   */\n      0x40\n        /* \"#utility.yul\":19923:19945   */\n      mstore\n        /* \"#utility.yul\":19713:19951   */\n      pop\n        /* \"#utility.yul\":19670:19951   */\n      pop\n      pop\n      jump\t// out\n        /* \"#utility.yul\":19957:20137   */\n    tag_484:\n        /* \"#utility.yul\":20005:20082   */\n      0x4e487b7100000000000000000000000000000000000000000000000000000000\n        /* \"#utility.yul\":20002:20003   */\n      0x00\n        /* \"#utility.yul\":19995:20083   */\n      mstore\n        /* \"#utility.yul\":20102:20106   */\n      0x11\n        /* \"#utility.yul\":20099:20100   */\n      0x04\n        /* \"#utility.yul\":20092:20107   */\n      mstore\n        /* \"#utility.yul\":20126:20130   */\n      0x24\n        /* \"#utility.yul\":20123:20124   */\n      0x00\n        /* \"#utility.yul\":20116:20131   */\n      revert\n        /* \"#utility.yul\":20143:20323   */\n    tag_506:\n        /* \"#utility.yul\":20191:20268   */\n      0x4e487b7100000000000000000000000000000000000000000000000000000000\n        /* \"#utility.yul\":20188:20189   */\n      0x00\n        /* \"#utility.yul\":20181:20269   */\n      mstore\n        /* \"#utility.yul\":20288:20292   */\n      0x22\n        /* \"#utility.yul\":20285:20286   */\n      0x04\n        /* \"#utility.yul\":20278:20293   */\n      mstore\n        /* \"#utility.yul\":20312:20316   */\n      0x24\n        /* \"#utility.yul\":20309:20310   */\n      0x00\n        /* \"#utility.yul\":20302:20317   */\n      revert\n        /* \"#utility.yul\":20329:20509   */\n    tag_98:\n        /* \"#utility.yul\":20377:20454   */\n      0x4e487b7100000000000000000000000000000000000000000000000000000000\n        /* \"#utility.yul\":20374:20375   */\n      0x00\n        /* \"#utility.yul\":20367:20455   */\n      mstore\n        /* \"#utility.yul\":20474:20478   */\n      0x32\n        /* \"#utility.yul\":20471:20472   */\n      0x04\n        /* \"#utility.yul\":20464:20479   */\n      mstore\n        /* \"#utility.yul\":20498:20502   */\n      0x24\n        /* \"#utility.yul\":20495:20496   */\n      0x00\n        /* \"#utility.yul\":20488:20503   */\n      revert\n        /* \"#utility.yul\":20515:20695   */\n    tag_470:\n        /* \"#utility.yul\":20563:20640   */\n      0x4e487b7100000000000000000000000000000000000000000000000000000000\n        /* \"#utility.yul\":20560:20561   */\n      0x00\n        /* \"#utility.yul\":20553:20641   */\n      mstore\n        /* \"#utility.yul\":20660:20664   */\n      0x41\n        /* \"#utility.yul\":20657:20658   */\n      0x04\n        /* \"#utility.yul\":20650:20665   */\n      mstore\n        /* \"#utility.yul\":20684:20688   */\n      0x24\n        /* \"#utility.yul\":20681:20682   */\n      0x00\n        /* \"#utility.yul\":20674:20689   */\n      revert\n        /* \"#utility.yul\":20701:20818   */\n    tag_299:\n        /* \"#utility.yul\":20810:20811   */\n      0x00\n        /* \"#utility.yul\":20807:20808   */\n      dup1\n        /* \"#utility.yul\":20800:20812   */\n      revert\n        /* \"#utility.yul\":20824:20941   */\n    tag_284:\n        /* \"#utility.yul\":20933:20934   */\n      0x00\n        /* \"#utility.yul\":20930:20931   */\n      dup1\n        /* \"#utility.yul\":20923:20935   */\n      revert\n        /* \"#utility.yul\":20947:21064   */\n    tag_324:\n        /* \"#utility.yul\":21056:21057   */\n      0x00\n        /* \"#utility.yul\":21053:21054   */\n      dup1\n        /* \"#utility.yul\":21046:21058   */\n      revert\n        /* \"#utility.yul\":21070:21187   */\n    tag_308:\n        /* \"#utility.yul\":21179:21180   */\n      0x00\n        /* \"#utility.yul\":21176:21177   */\n      dup1\n        /* \"#utility.yul\":21169:21181   */\n      revert\n        /* \"#utility.yul\":21193:21295   */\n    tag_397:\n        /* \"#utility.yul\":21234:21240   */\n      0x00\n        /* \"#utility.yul\":21285:21287   */\n      0x1f\n        /* \"#utility.yul\":21281:21288   */\n      not\n        /* \"#utility.yul\":21276:21278   */\n      0x1f\n        /* \"#utility.yul\":21269:21274   */\n      dup4\n        /* \"#utility.yul\":21265:21279   */\n      add\n        /* \"#utility.yul\":21261:21289   */\n      and\n        /* \"#utility.yul\":21251:21289   */\n      swap1\n      pop\n        /* \"#utility.yul\":21193:21295   */\n      swap2\n      swap1\n      pop\n      jump\t// out\n        /* \"#utility.yul\":21301:21423   */\n    tag_290:\n        /* \"#utility.yul\":21374:21398   */\n      tag_521\n        /* \"#utility.yul\":21392:21397   */\n      dup2\n        /* \"#utility.yul\":21374:21398   */\n      tag_363\n      jump\t// in\n    tag_521:\n        /* \"#utility.yul\":21367:21372   */\n      dup2\n        /* \"#utility.yul\":21364:21399   */\n      eq\n        /* \"#utility.yul\":21354:21417   */\n      tag_522\n      jumpi\n        /* \"#utility.yul\":21413:21414   */\n      0x00\n        /* \"#utility.yul\":21410:21411   */\n      dup1\n        /* \"#utility.yul\":21403:21415   */\n      revert\n        /* \"#utility.yul\":21354:21417   */\n    tag_522:\n        /* \"#utility.yul\":21301:21423   */\n      pop\n      jump\t// out\n        /* \"#utility.yul\":21429:21545   */\n    tag_294:\n        /* \"#utility.yul\":21499:21520   */\n      tag_524\n        /* \"#utility.yul\":21514:21519   */\n      dup2\n        /* \"#utility.yul\":21499:21520   */\n      tag_384\n      jump\t// in\n    tag_524:\n        /* \"#utility.yul\":21492:21497   */\n      dup2\n        /* \"#utility.yul\":21489:21521   */\n      eq\n        /* \"#utility.yul\":21479:21539   */\n      tag_525\n      jumpi\n        /* \"#utility.yul\":21535:21536   */\n      0x00\n        /* \"#utility.yul\":21532:21533   */\n      dup1\n        /* \"#utility.yul\":21525:21537   */\n      revert\n        /* \"#utility.yul\":21479:21539   */\n    tag_525:\n        /* \"#utility.yul\":21429:21545   */\n      pop\n      jump\t// out\n        /* \"#utility.yul\":21551:21673   */\n    tag_304:\n        /* \"#utility.yul\":21624:21648   */\n      tag_527\n        /* \"#utility.yul\":21642:21647   */\n      dup2\n        /* \"#utility.yul\":21624:21648   */\n      tag_428\n      jump\t// in\n    tag_527:\n        /* \"#utility.yul\":21617:21622   */\n      dup2\n        /* \"#utility.yul\":21614:21649   */\n      eq\n        /* \"#utility.yul\":21604:21667   */\n      tag_528\n      jumpi\n        /* \"#utility.yul\":21663:21664   */\n      0x00\n        /* \"#utility.yul\":21660:21661   */\n      dup1\n        /* \"#utility.yul\":21653:21665   */\n      revert\n        /* \"#utility.yul\":21604:21667   */\n    tag_528:\n        /* \"#utility.yul\":21551:21673   */\n      pop\n      jump\t// out\n\n    auxdata: 0xa264697066735822122063049808403bca62a2781e68cbcc0c3b9954db038a8c6cf6daf2ebd687d82fa064736f6c63430008070033\n}\n",
				"bytecode": {
					"linkReferences": {},
					"object": "608060405234801561001057600080fd5b50336000806101000a81548173ffffffffffffffffffffffffffffffffffffffff021916908373ffffffffffffffffffffffffffffffffffffffff160217905550612b86806100606000396000f3fe608060405234801561001057600080fd5b50600436106100f55760003560e01c80637298def011610097578063e4649d9911610066578063e4649d99146102a0578063e93b7b7d146102d1578063edf538861461030a578063f37420d21461033f576100f5565b80637298def0146102195780637c8e7bfe1461024a578063845c930614610268578063d7da3c4614610284576100f5565b80631cc2ee61116100d35780631cc2ee61146101765780633cf11fda146101af5780635d8d1585146101cb5780636e5c0a09146101e9576100f5565b8063085566fe146100fa578063127f14981461012a5780631bcde54f1461015a575b600080fd5b610114600480360381019061010f91906120c0565b61036f565b60405161012191906126f4565b60405180910390f35b610144600480360381019061013f91906120c0565b6103bb565b60405161015191906126b0565b60405180910390f35b610174600480360381019061016f91906121a3565b6107c9565b005b610190600480360381019061018b91906120ed565b610b8f565b6040516101a69a9998979695949392919061270f565b60405180910390f35b6101c960048036038101906101c4919061212d565b610ee2565b005b6101d361127e565b6040516101e091906126d2565b60405180910390f35b61020360048036038101906101fe9190612312565b61143d565b604051610210919061262d565b60405180910390f35b610233600480360381019061022e91906120ed565b61148b565b6040516102419291906127ce565b60405180910390f35b6102526114d9565b60405161025f91906126f4565b60405180910390f35b610282600480360381019061027d91906122e5565b6114e3565b005b61029e6004803603810190610299919061215a565b6115c3565b005b6102ba60048036038101906102b591906120ed565b61169e565b6040516102c89291906127ce565b60405180910390f35b6102eb60048036038101906102e691906122e5565b6116ec565b6040516103019a9998979695949392919061270f565b60405180910390f35b610324600480360381019061031f91906120c0565b611a22565b60405161033696959493929190612648565b60405180910390f35b610359600480360381019061035491906122e5565b611b06565b60405161036691906126b0565b60405180910390f35b6000600960008373ffffffffffffffffffffffffffffffffffffffff1673ffffffffffffffffffffffffffffffffffffffff168152602001908152602001600020805490509050919050565b6103c3611eae565b60006103ce8361036f565b9050600960008473ffffffffffffffffffffffffffffffffffffffff1673ffffffffffffffffffffffffffffffffffffffff16815260200190815260200160002060018261041c9190612909565b8154811061042d5761042c612a88565b5b906000526020600020906009020160405180610140016040529081600082015481526020016001820160009054906101000a900473ffffffffffffffffffffffffffffffffffffffff1673ffffffffffffffffffffffffffffffffffffffff1673ffffffffffffffffffffffffffffffffffffffff1681526020016002820180546104b7906129c7565b80601f01602080910402602001604051908101604052809291908181526020018280546104e3906129c7565b80156105305780601f1061050557610100808354040283529160200191610530565b820191906000526020600020905b81548152906001019060200180831161051357829003601f168201915b50505050508152602001600382018054610549906129c7565b80601f0160208091040260200160405190810160405280929190818152602001828054610575906129c7565b80156105c25780601f10610597576101008083540402835291602001916105c2565b820191906000526020600020905b8154815290600101906020018083116105a557829003601f168201915b505050505081526020016004820180546105db906129c7565b80601f0160208091040260200160405190810160405280929190818152602001828054610607906129c7565b80156106545780601f1061062957610100808354040283529160200191610654565b820191906000526020600020905b81548152906001019060200180831161063757829003601f168201915b5050505050815260200160058201805461066d906129c7565b80601f0160208091040260200160405190810160405280929190818152602001828054610699906129c7565b80156106e65780601f106106bb576101008083540402835291602001916106e6565b820191906000526020600020905b8154815290600101906020018083116106c957829003601f168201915b505050505081526020016006820180546106ff906129c7565b80601f016020809104026020016040519081016040528092919081815260200182805461072b906129c7565b80156107785780601f1061074d57610100808354040283529160200191610778565b820191906000526020600020905b81548152906001019060200180831161075b57829003601f168201915b505050505081526020016007820160009054906101000a900460ff161515151581526020016007820160019054906101000a900460ff16151515158152602001600882015481525050915050919050565b6001600560008282546107dc91906128b3565b92505081905550600960003373ffffffffffffffffffffffffffffffffffffffff1673ffffffffffffffffffffffffffffffffffffffff16815260200190815260200160002060405180610140016040528060055481526020013373ffffffffffffffffffffffffffffffffffffffff1681526020018a8152602001898152602001888152602001878152602001868152602001851515815260200184151581526020018381525090806001815401808255809150506001900390600052602060002090600902016000909190919091506000820151816000015560208201518160010160006101000a81548173ffffffffffffffffffffffffffffffffffffffff021916908373ffffffffffffffffffffffffffffffffffffffff160217905550604082015181600201908051906020019061091a929190611f1b565b506060820151816003019080519060200190610937929190611f1b565b506080820151816004019080519060200190610954929190611f1b565b5060a0820151816005019080519060200190610971929190611f1b565b5060c082015181600601908051906020019061098e929190611f1b565b5060e08201518160070160006101000a81548160ff0219169083151502179055506101008201518160070160016101000a81548160ff0219169083151502179055506101208201518160080155505060405180610140016040528060055481526020013373ffffffffffffffffffffffffffffffffffffffff1681526020018981526020018881526020018781526020018681526020018581526020018415158152602001831515815260200182815250600a600060055481526020019081526020016000206000820151816000015560208201518160010160006101000a81548173ffffffffffffffffffffffffffffffffffffffff021916908373ffffffffffffffffffffffffffffffffffffffff1602179055506040820151816002019080519060200190610ac1929190611f1b565b506060820151816003019080519060200190610ade929190611f1b565b506080820151816004019080519060200190610afb929190611f1b565b5060a0820151816005019080519060200190610b18929190611f1b565b5060c0820151816006019080519060200190610b35929190611f1b565b5060e08201518160070160006101000a81548160ff0219169083151502179055506101008201518160070160016101000a81548160ff02191690831515021790555061012082015181600801559050505050505050505050565b60096020528160005260406000208181548110610bab57600080fd5b9060005260206000209060090201600091509150508060000154908060010160009054906101000a900473ffffffffffffffffffffffffffffffffffffffff1690806002018054610bfb906129c7565b80601f0160208091040260200160405190810160405280929190818152602001828054610c27906129c7565b8015610c745780601f10610c4957610100808354040283529160200191610c74565b820191906000526020600020905b815481529060010190602001808311610c5757829003601f168201915b505050505090806003018054610c89906129c7565b80601f0160208091040260200160405190810160405280929190818152602001828054610cb5906129c7565b8015610d025780601f10610cd757610100808354040283529160200191610d02565b820191906000526020600020905b815481529060010190602001808311610ce557829003601f168201915b505050505090806004018054610d17906129c7565b80601f0160208091040260200160405190810160405280929190818152602001828054610d43906129c7565b8015610d905780601f10610d6557610100808354040283529160200191610d90565b820191906000526020600020905b815481529060010190602001808311610d7357829003601f168201915b505050505090806005018054610da5906129c7565b80601f0160208091040260200160405190810160405280929190818152602001828054610dd1906129c7565b8015610e1e5780601f10610df357610100808354040283529160200191610e1e565b820191906000526020600020905b815481529060010190602001808311610e0157829003601f168201915b505050505090806006018054610e33906129c7565b80601f0160208091040260200160405190810160405280929190818152602001828054610e5f906129c7565b8015610eac5780601f10610e8157610100808354040283529160200191610eac565b820191906000526020600020905b815481529060010190602001808311610e8f57829003601f168201915b5050505050908060070160009054906101000a900460ff16908060070160019054906101000a900460ff1690806008015490508a565b6000610eed3361036f565b9050600960003373ffffffffffffffffffffffffffffffffffffffff1673ffffffffffffffffffffffffffffffffffffffff168152602001908152602001600020600182610f3b9190612909565b81548110610f4c57610f4b612a88565b5b906000526020600020906009020160070160009054906101000a900460ff16156110f757600160036000828254610f8391906128b3565b92505081905550600760003373ffffffffffffffffffffffffffffffffffffffff1673ffffffffffffffffffffffffffffffffffffffff1681526020019081526020016000206040518060400160405280600354815260200184151581525090806001815401808255809150506001900390600052602060002090600202016000909190919091506000820151816000015560208201518160010160006101000a81548160ff02191690831515021790555050506001600660003373ffffffffffffffffffffffffffffffffffffffff1673ffffffffffffffffffffffffffffffffffffffff168152602001908152602001600020600301600082825461108a91906128b3565b9250508190555081156110f2576001600660003373ffffffffffffffffffffffffffffffffffffffff1673ffffffffffffffffffffffffffffffffffffffff16815260200190815260200160002060050160008282546110ea91906128b3565b925050819055505b61127a565b60016004600082825461110a91906128b3565b92505081905550600760003373ffffffffffffffffffffffffffffffffffffffff1673ffffffffffffffffffffffffffffffffffffffff1681526020019081526020016000206040518060400160405280600454815260200184151581525090806001815401808255809150506001900390600052602060002090600202016000909190919091506000820151816000015560208201518160010160006101000a81548160ff02191690831515021790555050506001600660003373ffffffffffffffffffffffffffffffffffffffff1673ffffffffffffffffffffffffffffffffffffffff168152602001908152602001600020600401600082825461121191906128b3565b925050819055508115611279576001600660003373ffffffffffffffffffffffffffffffffffffffff1673ffffffffffffffffffffffffffffffffffffffff168152602001908152602001600020600601600082825461127191906128b3565b925050819055505b5b5050565b611286611fa1565b600660003373ffffffffffffffffffffffffffffffffffffffff1673ffffffffffffffffffffffffffffffffffffffff1681526020019081526020016000206040518060e00160405290816000820160009054906101000a900473ffffffffffffffffffffffffffffffffffffffff1673ffffffffffffffffffffffffffffffffffffffff1673ffffffffffffffffffffffffffffffffffffffff168152602001600182018054611336906129c7565b80601f0160208091040260200160405190810160405280929190818152602001828054611362906129c7565b80156113af5780601f10611384576101008083540402835291602001916113af565b820191906000526020600020905b81548152906001019060200180831161139257829003601f168201915b505050505081526020016002820180548060200260200160405190810160405280929190818152602001828054801561140757602002820191906000526020600020905b8154815260200190600101908083116113f3575b50505050508152602001600382015481526020016004820154815260200160058201548152602001600682015481525050905090565b600b602052816000526040600020818154811061145957600080fd5b906000526020600020016000915091509054906101000a900473ffffffffffffffffffffffffffffffffffffffff1681565b600760205281600052604060002081815481106114a757600080fd5b9060005260206000209060020201600091509150508060000154908060010160009054906101000a900460ff16905082565b6000600554905090565b600660003373ffffffffffffffffffffffffffffffffffffffff1673ffffffffffffffffffffffffffffffffffffffff168152602001908152602001600020600201819080600181540180825580915050600190039060005260206000200160009091909190915055600b6000828152602001908152602001600020339080600181540180825580915050600190039060005260206000200160009091909190916101000a81548173ffffffffffffffffffffffffffffffffffffffff021916908373ffffffffffffffffffffffffffffffffffffffff16021790555050565b33600660003373ffffffffffffffffffffffffffffffffffffffff1673ffffffffffffffffffffffffffffffffffffffff16815260200190815260200160002060000160006101000a81548173ffffffffffffffffffffffffffffffffffffffff021916908373ffffffffffffffffffffffffffffffffffffffff16021790555080600660003373ffffffffffffffffffffffffffffffffffffffff1673ffffffffffffffffffffffffffffffffffffffff168152602001908152602001600020600101908051906020019061169a929190611f1b565b5050565b600860205281600052604060002081815481106116ba57600080fd5b9060005260206000209060020201600091509150508060000154908060010160009054906101000a900460ff16905082565b600a6020528060005260406000206000915090508060000154908060010160009054906101000a900473ffffffffffffffffffffffffffffffffffffffff169080600201805461173b906129c7565b80601f0160208091040260200160405190810160405280929190818152602001828054611767906129c7565b80156117b45780601f10611789576101008083540402835291602001916117b4565b820191906000526020600020905b81548152906001019060200180831161179757829003601f168201915b5050505050908060030180546117c9906129c7565b80601f01602080910402602001604051908101604052809291908181526020018280546117f5906129c7565b80156118425780601f1061181757610100808354040283529160200191611842565b820191906000526020600020905b81548152906001019060200180831161182557829003601f168201915b505050505090806004018054611857906129c7565b80601f0160208091040260200160405190810160405280929190818152602001828054611883906129c7565b80156118d05780601f106118a5576101008083540402835291602001916118d0565b820191906000526020600020905b8154815290600101906020018083116118b357829003601f168201915b5050505050908060050180546118e5906129c7565b80601f0160208091040260200160405190810160405280929190818152602001828054611911906129c7565b801561195e5780601f106119335761010080835404028352916020019161195e565b820191906000526020600020905b81548152906001019060200180831161194157829003601f168201915b505050505090806006018054611973906129c7565b80601f016020809104026020016040519081016040528092919081815260200182805461199f906129c7565b80156119ec5780601f106119c1576101008083540402835291602001916119ec565b820191906000526020600020905b8154815290600101906020018083116119cf57829003601f168201915b5050505050908060070160009054906101000a900460ff16908060070160019054906101000a900460ff1690806008015490508a565b60066020528060005260406000206000915090508060000160009054906101000a900473ffffffffffffffffffffffffffffffffffffffff1690806001018054611a6b906129c7565b80601f0160208091040260200160405190810160405280929190818152602001828054611a97906129c7565b8015611ae45780601f10611ab957610100808354040283529160200191611ae4565b820191906000526020600020905b815481529060010190602001808311611ac757829003601f168201915b5050505050908060030154908060040154908060050154908060060154905086565b611b0e611eae565b600a600083815260200190815260200160002060405180610140016040529081600082015481526020016001820160009054906101000a900473ffffffffffffffffffffffffffffffffffffffff1673ffffffffffffffffffffffffffffffffffffffff1673ffffffffffffffffffffffffffffffffffffffff168152602001600282018054611b9d906129c7565b80601f0160208091040260200160405190810160405280929190818152602001828054611bc9906129c7565b8015611c165780601f10611beb57610100808354040283529160200191611c16565b820191906000526020600020905b815481529060010190602001808311611bf957829003601f168201915b50505050508152602001600382018054611c2f906129c7565b80601f0160208091040260200160405190810160405280929190818152602001828054611c5b906129c7565b8015611ca85780601f10611c7d57610100808354040283529160200191611ca8565b820191906000526020600020905b815481529060010190602001808311611c8b57829003601f168201915b50505050508152602001600482018054611cc1906129c7565b80601f0160208091040260200160405190810160405280929190818152602001828054611ced906129c7565b8015611d3a5780601f10611d0f57610100808354040283529160200191611d3a565b820191906000526020600020905b815481529060010190602001808311611d1d57829003601f168201915b50505050508152602001600582018054611d53906129c7565b80601f0160208091040260200160405190810160405280929190818152602001828054611d7f906129c7565b8015611dcc5780601f10611da157610100808354040283529160200191611dcc565b820191906000526020600020905b815481529060010190602001808311611daf57829003601f168201915b50505050508152602001600682018054611de5906129c7565b80601f0160208091040260200160405190810160405280929190818152602001828054611e11906129c7565b8015611e5e5780601f10611e3357610100808354040283529160200191611e5e565b820191906000526020600020905b815481529060010190602001808311611e4157829003601f168201915b505050505081526020016007820160009054906101000a900460ff161515151581526020016007820160019054906101000a900460ff161515151581526020016008820154815250509050919050565b60405180610140016040528060008152602001600073ffffffffffffffffffffffffffffffffffffffff1681526020016060815260200160608152602001606081526020016060815260200160608152602001600015158152602001600015158152602001600081525090565b828054611f27906129c7565b90600052602060002090601f016020900481019282611f495760008555611f90565b82601f10611f6257805160ff1916838001178555611f90565b82800160010185558215611f90579182015b82811115611f8f578251825591602001919060010190611f74565b5b509050611f9d9190611ff4565b5090565b6040518060e00160405280600073ffffffffffffffffffffffffffffffffffffffff1681526020016060815260200160608152602001600081526020016000815260200160008152602001600081525090565b5b8082111561200d576000816000905550600101611ff5565b5090565b600061202461201f8461281c565b6127f7565b9050828152602081018484840111156120405761203f612aeb565b5b61204b848285612985565b509392505050565b60008135905061206281612b0b565b92915050565b60008135905061207781612b22565b92915050565b600082601f83011261209257612091612ae6565b5b81356120a2848260208601612011565b91505092915050565b6000813590506120ba81612b39565b92915050565b6000602082840312156120d6576120d5612af5565b5b60006120e484828501612053565b91505092915050565b6000806040838503121561210457612103612af5565b5b600061211285828601612053565b9250506020612123858286016120ab565b9150509250929050565b60006020828403121561214357612142612af5565b5b600061215184828501612068565b91505092915050565b6000602082840312156121705761216f612af5565b5b600082013567ffffffffffffffff81111561218e5761218d612af0565b5b61219a8482850161207d565b91505092915050565b600080600080600080600080610100898b0312156121c4576121c3612af5565b5b600089013567ffffffffffffffff8111156121e2576121e1612af0565b5b6121ee8b828c0161207d565b985050602089013567ffffffffffffffff81111561220f5761220e612af0565b5b61221b8b828c0161207d565b975050604089013567ffffffffffffffff81111561223c5761223b612af0565b5b6122488b828c0161207d565b965050606089013567ffffffffffffffff81111561226957612268612af0565b5b6122758b828c0161207d565b955050608089013567ffffffffffffffff81111561229657612295612af0565b5b6122a28b828c0161207d565b94505060a06122b38b828c01612068565b93505060c06122c48b828c01612068565b92505060e06122d58b828c016120ab565b9150509295985092959890939650565b6000602082840312156122fb576122fa612af5565b5b6000612309848285016120ab565b91505092915050565b6000806040838503121561232957612328612af5565b5b6000612337858286016120ab565b9250506020612348858286016120ab565b9150509250929050565b600061235e838361260f565b60208301905092915050565b6123738161293d565b82525050565b6123828161293d565b82525050565b60006123938261285d565b61239d8185612880565b93506123a88361284d565b8060005b838110156123d95781516123c08882612352565b97506123cb83612873565b9250506001810190506123ac565b5085935050505092915050565b6123ef8161294f565b82525050565b6123fe8161294f565b82525050565b600061240f82612868565b6124198185612891565b9350612429818560208601612994565b61243281612afa565b840191505092915050565b600061244882612868565b61245281856128a2565b9350612462818560208601612994565b61246b81612afa565b840191505092915050565b60006101408301600083015161248f600086018261260f565b5060208301516124a2602086018261236a565b50604083015184820360408601526124ba8282612404565b915050606083015184820360608601526124d48282612404565b915050608083015184820360808601526124ee8282612404565b91505060a083015184820360a08601526125088282612404565b91505060c083015184820360c08601526125228282612404565b91505060e083015161253760e08601826123e6565b5061010083015161254c6101008601826123e6565b5061012083015161256161012086018261260f565b508091505092915050565b600060e083016000830151612584600086018261236a565b506020830151848203602086015261259c8282612404565b915050604083015184820360408601526125b68282612388565b91505060608301516125cb606086018261260f565b5060808301516125de608086018261260f565b5060a08301516125f160a086018261260f565b5060c083015161260460c086018261260f565b508091505092915050565b6126188161297b565b82525050565b6126278161297b565b82525050565b60006020820190506126426000830184612379565b92915050565b600060c08201905061265d6000830189612379565b818103602083015261266f818861243d565b905061267e604083018761261e565b61268b606083018661261e565b612698608083018561261e565b6126a560a083018461261e565b979650505050505050565b600060208201905081810360008301526126ca8184612476565b905092915050565b600060208201905081810360008301526126ec818461256c565b905092915050565b6000602082019050612709600083018461261e565b92915050565b600061014082019050612725600083018d61261e565b612732602083018c612379565b8181036040830152612744818b61243d565b90508181036060830152612758818a61243d565b9050818103608083015261276c818961243d565b905081810360a0830152612780818861243d565b905081810360c0830152612794818761243d565b90506127a360e08301866123f5565b6127b16101008301856123f5565b6127bf61012083018461261e565b9b9a5050505050505050505050565b60006040820190506127e3600083018561261e565b6127f060208301846123f5565b9392505050565b6000612801612812565b905061280d82826129f9565b919050565b6000604051905090565b600067ffffffffffffffff82111561283757612836612ab7565b5b61284082612afa565b9050602081019050919050565b6000819050602082019050919050565b600081519050919050565b600081519050919050565b6000602082019050919050565b600082825260208201905092915050565b600082825260208201905092915050565b600082825260208201905092915050565b60006128be8261297b565b91506128c98361297b565b9250827fffffffffffffffffffffffffffffffffffffffffffffffffffffffffffffffff038211156128fe576128fd612a2a565b5b828201905092915050565b60006129148261297b565b915061291f8361297b565b92508282101561293257612931612a2a565b5b828203905092915050565b60006129488261295b565b9050919050565b60008115159050919050565b600073ffffffffffffffffffffffffffffffffffffffff82169050919050565b6000819050919050565b82818337600083830152505050565b60005b838110156129b2578082015181840152602081019050612997565b838111156129c1576000848401525b50505050565b600060028204905060018216806129df57607f821691505b602082108114156129f3576129f2612a59565b5b50919050565b612a0282612afa565b810181811067ffffffffffffffff82111715612a2157612a20612ab7565b5b80604052505050565b7f4e487b7100000000000000000000000000000000000000000000000000000000600052601160045260246000fd5b7f4e487b7100000000000000000000000000000000000000000000000000000000600052602260045260246000fd5b7f4e487b7100000000000000000000000000000000000000000000000000000000600052603260045260246000fd5b7f4e487b7100000000000000000000000000000000000000000000000000000000600052604160045260246000fd5b600080fd5b600080fd5b600080fd5b600080fd5b6000601f19601f8301169050919050565b612b148161293d565b8114612b1f57600080fd5b50565b612b2b8161294f565b8114612b3657600080fd5b50565b612b428161297b565b8114612b4d57600080fd5b5056fea264697066735822122063049808403bca62a2781e68cbcc0c3b9954db038a8c6cf6daf2ebd687d82fa064736f6c63430008070033",
					"opcodes": "PUSH1 0x80 PUSH1 0x40 MSTORE CALLVALUE DUP1 ISZERO PUSH2 0x10 JUMPI PUSH1 0x0 DUP1 REVERT JUMPDEST POP CALLER PUSH1 0x0 DUP1 PUSH2 0x100 EXP DUP2 SLOAD DUP2 PUSH20 0xFFFFFFFFFFFFFFFFFFFFFFFFFFFFFFFFFFFFFFFF MUL NOT AND SWAP1 DUP4 PUSH20 0xFFFFFFFFFFFFFFFFFFFFFFFFFFFFFFFFFFFFFFFF AND MUL OR SWAP1 SSTORE POP PUSH2 0x2B86 DUP1 PUSH2 0x60 PUSH1 0x0 CODECOPY PUSH1 0x0 RETURN INVALID PUSH1 0x80 PUSH1 0x40 MSTORE CALLVALUE DUP1 ISZERO PUSH2 0x10 JUMPI PUSH1 0x0 DUP1 REVERT JUMPDEST POP PUSH1 0x4 CALLDATASIZE LT PUSH2 0xF5 JUMPI PUSH1 0x0 CALLDATALOAD PUSH1 0xE0 SHR DUP1 PUSH4 0x7298DEF0 GT PUSH2 0x97 JUMPI DUP1 PUSH4 0xE4649D99 GT PUSH2 0x66 JUMPI DUP1 PUSH4 0xE4649D99 EQ PUSH2 0x2A0 JUMPI DUP1 PUSH4 0xE93B7B7D EQ PUSH2 0x2D1 JUMPI DUP1 PUSH4 0xEDF53886 EQ PUSH2 0x30A JUMPI DUP1 PUSH4 0xF37420D2 EQ PUSH2 0x33F JUMPI PUSH2 0xF5 JUMP JUMPDEST DUP1 PUSH4 0x7298DEF0 EQ PUSH2 0x219 JUMPI DUP1 PUSH4 0x7C8E7BFE EQ PUSH2 0x24A JUMPI DUP1 PUSH4 0x845C9306 EQ PUSH2 0x268 JUMPI DUP1 PUSH4 0xD7DA3C46 EQ PUSH2 0x284 JUMPI PUSH2 0xF5 JUMP JUMPDEST DUP1 PUSH4 0x1CC2EE61 GT PUSH2 0xD3 JUMPI DUP1 PUSH4 0x1CC2EE61 EQ PUSH2 0x176 JUMPI DUP1 PUSH4 0x3CF11FDA EQ PUSH2 0x1AF JUMPI DUP1 PUSH4 0x5D8D1585 EQ PUSH2 0x1CB JUMPI DUP1 PUSH4 0x6E5C0A09 EQ PUSH2 0x1E9 JUMPI PUSH2 0xF5 JUMP JUMPDEST DUP1 PUSH4 0x85566FE EQ PUSH2 0xFA JUMPI DUP1 PUSH4 0x127F1498 EQ PUSH2 0x12A JUMPI DUP1 PUSH4 0x1BCDE54F EQ PUSH2 0x15A JUMPI JUMPDEST PUSH1 0x0 DUP1 REVERT JUMPDEST PUSH2 0x114 PUSH1 0x4 DUP1 CALLDATASIZE SUB DUP2 ADD SWAP1 PUSH2 0x10F SWAP2 SWAP1 PUSH2 0x20C0 JUMP JUMPDEST PUSH2 0x36F JUMP JUMPDEST PUSH1 0x40 MLOAD PUSH2 0x121 SWAP2 SWAP1 PUSH2 0x26F4 JUMP JUMPDEST PUSH1 0x40 MLOAD DUP1 SWAP2 SUB SWAP1 RETURN JUMPDEST PUSH2 0x144 PUSH1 0x4 DUP1 CALLDATASIZE SUB DUP2 ADD SWAP1 PUSH2 0x13F SWAP2 SWAP1 PUSH2 0x20C0 JUMP JUMPDEST PUSH2 0x3BB JUMP JUMPDEST PUSH1 0x40 MLOAD PUSH2 0x151 SWAP2 SWAP1 PUSH2 0x26B0 JUMP JUMPDEST PUSH1 0x40 MLOAD DUP1 SWAP2 SUB SWAP1 RETURN JUMPDEST PUSH2 0x174 PUSH1 0x4 DUP1 CALLDATASIZE SUB DUP2 ADD SWAP1 PUSH2 0x16F SWAP2 SWAP1 PUSH2 0x21A3 JUMP JUMPDEST PUSH2 0x7C9 JUMP JUMPDEST STOP JUMPDEST PUSH2 0x190 PUSH1 0x4 DUP1 CALLDATASIZE SUB DUP2 ADD SWAP1 PUSH2 0x18B SWAP2 SWAP1 PUSH2 0x20ED JUMP JUMPDEST PUSH2 0xB8F JUMP JUMPDEST PUSH1 0x40 MLOAD PUSH2 0x1A6 SWAP11 SWAP10 SWAP9 SWAP8 SWAP7 SWAP6 SWAP5 SWAP4 SWAP3 SWAP2 SWAP1 PUSH2 0x270F JUMP JUMPDEST PUSH1 0x40 MLOAD DUP1 SWAP2 SUB SWAP1 RETURN JUMPDEST PUSH2 0x1C9 PUSH1 0x4 DUP1 CALLDATASIZE SUB DUP2 ADD SWAP1 PUSH2 0x1C4 SWAP2 SWAP1 PUSH2 0x212D JUMP JUMPDEST PUSH2 0xEE2 JUMP JUMPDEST STOP JUMPDEST PUSH2 0x1D3 PUSH2 0x127E JUMP JUMPDEST PUSH1 0x40 MLOAD PUSH2 0x1E0 SWAP2 SWAP1 PUSH2 0x26D2 JUMP JUMPDEST PUSH1 0x40 MLOAD DUP1 SWAP2 SUB SWAP1 RETURN JUMPDEST PUSH2 0x203 PUSH1 0x4 DUP1 CALLDATASIZE SUB DUP2 ADD SWAP1 PUSH2 0x1FE SWAP2 SWAP1 PUSH2 0x2312 JUMP JUMPDEST PUSH2 0x143D JUMP JUMPDEST PUSH1 0x40 MLOAD PUSH2 0x210 SWAP2 SWAP1 PUSH2 0x262D JUMP JUMPDEST PUSH1 0x40 MLOAD DUP1 SWAP2 SUB SWAP1 RETURN JUMPDEST PUSH2 0x233 PUSH1 0x4 DUP1 CALLDATASIZE SUB DUP2 ADD SWAP1 PUSH2 0x22E SWAP2 SWAP1 PUSH2 0x20ED JUMP JUMPDEST PUSH2 0x148B JUMP JUMPDEST PUSH1 0x40 MLOAD PUSH2 0x241 SWAP3 SWAP2 SWAP1 PUSH2 0x27CE JUMP JUMPDEST PUSH1 0x40 MLOAD DUP1 SWAP2 SUB SWAP1 RETURN JUMPDEST PUSH2 0x252 PUSH2 0x14D9 JUMP JUMPDEST PUSH1 0x40 MLOAD PUSH2 0x25F SWAP2 SWAP1 PUSH2 0x26F4 JUMP JUMPDEST PUSH1 0x40 MLOAD DUP1 SWAP2 SUB SWAP1 RETURN JUMPDEST PUSH2 0x282 PUSH1 0x4 DUP1 CALLDATASIZE SUB DUP2 ADD SWAP1 PUSH2 0x27D SWAP2 SWAP1 PUSH2 0x22E5 JUMP JUMPDEST PUSH2 0x14E3 JUMP JUMPDEST STOP JUMPDEST PUSH2 0x29E PUSH1 0x4 DUP1 CALLDATASIZE SUB DUP2 ADD SWAP1 PUSH2 0x299 SWAP2 SWAP1 PUSH2 0x215A JUMP JUMPDEST PUSH2 0x15C3 JUMP JUMPDEST STOP JUMPDEST PUSH2 0x2BA PUSH1 0x4 DUP1 CALLDATASIZE SUB DUP2 ADD SWAP1 PUSH2 0x2B5 SWAP2 SWAP1 PUSH2 0x20ED JUMP JUMPDEST PUSH2 0x169E JUMP JUMPDEST PUSH1 0x40 MLOAD PUSH2 0x2C8 SWAP3 SWAP2 SWAP1 PUSH2 0x27CE JUMP JUMPDEST PUSH1 0x40 MLOAD DUP1 SWAP2 SUB SWAP1 RETURN JUMPDEST PUSH2 0x2EB PUSH1 0x4 DUP1 CALLDATASIZE SUB DUP2 ADD SWAP1 PUSH2 0x2E6 SWAP2 SWAP1 PUSH2 0x22E5 JUMP JUMPDEST PUSH2 0x16EC JUMP JUMPDEST PUSH1 0x40 MLOAD PUSH2 0x301 SWAP11 SWAP10 SWAP9 SWAP8 SWAP7 SWAP6 SWAP5 SWAP4 SWAP3 SWAP2 SWAP1 PUSH2 0x270F JUMP JUMPDEST PUSH1 0x40 MLOAD DUP1 SWAP2 SUB SWAP1 RETURN JUMPDEST PUSH2 0x324 PUSH1 0x4 DUP1 CALLDATASIZE SUB DUP2 ADD SWAP1 PUSH2 0x31F SWAP2 SWAP1 PUSH2 0x20C0 JUMP JUMPDEST PUSH2 0x1A22 JUMP JUMPDEST PUSH1 0x40 MLOAD PUSH2 0x336 SWAP7 SWAP6 SWAP5 SWAP4 SWAP3 SWAP2 SWAP1 PUSH2 0x2648 JUMP JUMPDEST PUSH1 0x40 MLOAD DUP1 SWAP2 SUB SWAP1 RETURN JUMPDEST PUSH2 0x359 PUSH1 0x4 DUP1 CALLDATASIZE SUB DUP2 ADD SWAP1 PUSH2 0x354 SWAP2 SWAP1 PUSH2 0x22E5 JUMP JUMPDEST PUSH2 0x1B06 JUMP JUMPDEST PUSH1 0x40 MLOAD PUSH2 0x366 SWAP2 SWAP1 PUSH2 0x26B0 JUMP JUMPDEST PUSH1 0x40 MLOAD DUP1 SWAP2 SUB SWAP1 RETURN JUMPDEST PUSH1 0x0 PUSH1 0x9 PUSH1 0x0 DUP4 PUSH20 0xFFFFFFFFFFFFFFFFFFFFFFFFFFFFFFFFFFFFFFFF AND PUSH20 0xFFFFFFFFFFFFFFFFFFFFFFFFFFFFFFFFFFFFFFFF AND DUP2 MSTORE PUSH1 0x20 ADD SWAP1 DUP2 MSTORE PUSH1 0x20 ADD PUSH1 0x0 KECCAK256 DUP1 SLOAD SWAP1 POP SWAP1 POP SWAP2 SWAP1 POP JUMP JUMPDEST PUSH2 0x3C3 PUSH2 0x1EAE JUMP JUMPDEST PUSH1 0x0 PUSH2 0x3CE DUP4 PUSH2 0x36F JUMP JUMPDEST SWAP1 POP PUSH1 0x9 PUSH1 0x0 DUP5 PUSH20 0xFFFFFFFFFFFFFFFFFFFFFFFFFFFFFFFFFFFFFFFF AND PUSH20 0xFFFFFFFFFFFFFFFFFFFFFFFFFFFFFFFFFFFFFFFF AND DUP2 MSTORE PUSH1 0x20 ADD SWAP1 DUP2 MSTORE PUSH1 0x20 ADD PUSH1 0x0 KECCAK256 PUSH1 0x1 DUP3 PUSH2 0x41C SWAP2 SWAP1 PUSH2 0x2909 JUMP JUMPDEST DUP2 SLOAD DUP2 LT PUSH2 0x42D JUMPI PUSH2 0x42C PUSH2 0x2A88 JUMP JUMPDEST JUMPDEST SWAP1 PUSH1 0x0 MSTORE PUSH1 0x20 PUSH1 0x0 KECCAK256 SWAP1 PUSH1 0x9 MUL ADD PUSH1 0x40 MLOAD DUP1 PUSH2 0x140 ADD PUSH1 0x40 MSTORE SWAP1 DUP2 PUSH1 0x0 DUP3 ADD SLOAD DUP2 MSTORE PUSH1 0x20 ADD PUSH1 0x1 DUP3 ADD PUSH1 0x0 SWAP1 SLOAD SWAP1 PUSH2 0x100 EXP SWAP1 DIV PUSH20 0xFFFFFFFFFFFFFFFFFFFFFFFFFFFFFFFFFFFFFFFF AND PUSH20 0xFFFFFFFFFFFFFFFFFFFFFFFFFFFFFFFFFFFFFFFF AND PUSH20 0xFFFFFFFFFFFFFFFFFFFFFFFFFFFFFFFFFFFFFFFF AND DUP2 MSTORE PUSH1 0x20 ADD PUSH1 0x2 DUP3 ADD DUP1 SLOAD PUSH2 0x4B7 SWAP1 PUSH2 0x29C7 JUMP JUMPDEST DUP1 PUSH1 0x1F ADD PUSH1 0x20 DUP1 SWAP2 DIV MUL PUSH1 0x20 ADD PUSH1 0x40 MLOAD SWAP1 DUP2 ADD PUSH1 0x40 MSTORE DUP1 SWAP3 SWAP2 SWAP1 DUP2 DUP2 MSTORE PUSH1 0x20 ADD DUP3 DUP1 SLOAD PUSH2 0x4E3 SWAP1 PUSH2 0x29C7 JUMP JUMPDEST DUP1 ISZERO PUSH2 0x530 JUMPI DUP1 PUSH1 0x1F LT PUSH2 0x505 JUMPI PUSH2 0x100 DUP1 DUP4 SLOAD DIV MUL DUP4 MSTORE SWAP2 PUSH1 0x20 ADD SWAP2 PUSH2 0x530 JUMP JUMPDEST DUP3 ADD SWAP2 SWAP1 PUSH1 0x0 MSTORE PUSH1 0x20 PUSH1 0x0 KECCAK256 SWAP1 JUMPDEST DUP2 SLOAD DUP2 MSTORE SWAP1 PUSH1 0x1 ADD SWAP1 PUSH1 0x20 ADD DUP1 DUP4 GT PUSH2 0x513 JUMPI DUP3 SWAP1 SUB PUSH1 0x1F AND DUP3 ADD SWAP2 JUMPDEST POP POP POP POP POP DUP2 MSTORE PUSH1 0x20 ADD PUSH1 0x3 DUP3 ADD DUP1 SLOAD PUSH2 0x549 SWAP1 PUSH2 0x29C7 JUMP JUMPDEST DUP1 PUSH1 0x1F ADD PUSH1 0x20 DUP1 SWAP2 DIV MUL PUSH1 0x20 ADD PUSH1 0x40 MLOAD SWAP1 DUP2 ADD PUSH1 0x40 MSTORE DUP1 SWAP3 SWAP2 SWAP1 DUP2 DUP2 MSTORE PUSH1 0x20 ADD DUP3 DUP1 SLOAD PUSH2 0x575 SWAP1 PUSH2 0x29C7 JUMP JUMPDEST DUP1 ISZERO PUSH2 0x5C2 JUMPI DUP1 PUSH1 0x1F LT PUSH2 0x597 JUMPI PUSH2 0x100 DUP1 DUP4 SLOAD DIV MUL DUP4 MSTORE SWAP2 PUSH1 0x20 ADD SWAP2 PUSH2 0x5C2 JUMP JUMPDEST DUP3 ADD SWAP2 SWAP1 PUSH1 0x0 MSTORE PUSH1 0x20 PUSH1 0x0 KECCAK256 SWAP1 JUMPDEST DUP2 SLOAD DUP2 MSTORE SWAP1 PUSH1 0x1 ADD SWAP1 PUSH1 0x20 ADD DUP1 DUP4 GT PUSH2 0x5A5 JUMPI DUP3 SWAP1 SUB PUSH1 0x1F AND DUP3 ADD SWAP2 JUMPDEST POP POP POP POP POP DUP2 MSTORE PUSH1 0x20 ADD PUSH1 0x4 DUP3 ADD DUP1 SLOAD PUSH2 0x5DB SWAP1 PUSH2 0x29C7 JUMP JUMPDEST DUP1 PUSH1 0x1F ADD PUSH1 0x20 DUP1 SWAP2 DIV MUL PUSH1 0x20 ADD PUSH1 0x40 MLOAD SWAP1 DUP2 ADD PUSH1 0x40 MSTORE DUP1 SWAP3 SWAP2 SWAP1 DUP2 DUP2 MSTORE PUSH1 0x20 ADD DUP3 DUP1 SLOAD PUSH2 0x607 SWAP1 PUSH2 0x29C7 JUMP JUMPDEST DUP1 ISZERO PUSH2 0x654 JUMPI DUP1 PUSH1 0x1F LT PUSH2 0x629 JUMPI PUSH2 0x100 DUP1 DUP4 SLOAD DIV MUL DUP4 MSTORE SWAP2 PUSH1 0x20 ADD SWAP2 PUSH2 0x654 JUMP JUMPDEST DUP3 ADD SWAP2 SWAP1 PUSH1 0x0 MSTORE PUSH1 0x20 PUSH1 0x0 KECCAK256 SWAP1 JUMPDEST DUP2 SLOAD DUP2 MSTORE SWAP1 PUSH1 0x1 ADD SWAP1 PUSH1 0x20 ADD DUP1 DUP4 GT PUSH2 0x637 JUMPI DUP3 SWAP1 SUB PUSH1 0x1F AND DUP3 ADD SWAP2 JUMPDEST POP POP POP POP POP DUP2 MSTORE PUSH1 0x20 ADD PUSH1 0x5 DUP3 ADD DUP1 SLOAD PUSH2 0x66D SWAP1 PUSH2 0x29C7 JUMP JUMPDEST DUP1 PUSH1 0x1F ADD PUSH1 0x20 DUP1 SWAP2 DIV MUL PUSH1 0x20 ADD PUSH1 0x40 MLOAD SWAP1 DUP2 ADD PUSH1 0x40 MSTORE DUP1 SWAP3 SWAP2 SWAP1 DUP2 DUP2 MSTORE PUSH1 0x20 ADD DUP3 DUP1 SLOAD PUSH2 0x699 SWAP1 PUSH2 0x29C7 JUMP JUMPDEST DUP1 ISZERO PUSH2 0x6E6 JUMPI DUP1 PUSH1 0x1F LT PUSH2 0x6BB JUMPI PUSH2 0x100 DUP1 DUP4 SLOAD DIV MUL DUP4 MSTORE SWAP2 PUSH1 0x20 ADD SWAP2 PUSH2 0x6E6 JUMP JUMPDEST DUP3 ADD SWAP2 SWAP1 PUSH1 0x0 MSTORE PUSH1 0x20 PUSH1 0x0 KECCAK256 SWAP1 JUMPDEST DUP2 SLOAD DUP2 MSTORE SWAP1 PUSH1 0x1 ADD SWAP1 PUSH1 0x20 ADD DUP1 DUP4 GT PUSH2 0x6C9 JUMPI DUP3 SWAP1 SUB PUSH1 0x1F AND DUP3 ADD SWAP2 JUMPDEST POP POP POP POP POP DUP2 MSTORE PUSH1 0x20 ADD PUSH1 0x6 DUP3 ADD DUP1 SLOAD PUSH2 0x6FF SWAP1 PUSH2 0x29C7 JUMP JUMPDEST DUP1 PUSH1 0x1F ADD PUSH1 0x20 DUP1 SWAP2 DIV MUL PUSH1 0x20 ADD PUSH1 0x40 MLOAD SWAP1 DUP2 ADD PUSH1 0x40 MSTORE DUP1 SWAP3 SWAP2 SWAP1 DUP2 DUP2 MSTORE PUSH1 0x20 ADD DUP3 DUP1 SLOAD PUSH2 0x72B SWAP1 PUSH2 0x29C7 JUMP JUMPDEST DUP1 ISZERO PUSH2 0x778 JUMPI DUP1 PUSH1 0x1F LT PUSH2 0x74D JUMPI PUSH2 0x100 DUP1 DUP4 SLOAD DIV MUL DUP4 MSTORE SWAP2 PUSH1 0x20 ADD SWAP2 PUSH2 0x778 JUMP JUMPDEST DUP3 ADD SWAP2 SWAP1 PUSH1 0x0 MSTORE PUSH1 0x20 PUSH1 0x0 KECCAK256 SWAP1 JUMPDEST DUP2 SLOAD DUP2 MSTORE SWAP1 PUSH1 0x1 ADD SWAP1 PUSH1 0x20 ADD DUP1 DUP4 GT PUSH2 0x75B JUMPI DUP3 SWAP1 SUB PUSH1 0x1F AND DUP3 ADD SWAP2 JUMPDEST POP POP POP POP POP DUP2 MSTORE PUSH1 0x20 ADD PUSH1 0x7 DUP3 ADD PUSH1 0x0 SWAP1 SLOAD SWAP1 PUSH2 0x100 EXP SWAP1 DIV PUSH1 0xFF AND ISZERO ISZERO ISZERO ISZERO DUP2 MSTORE PUSH1 0x20 ADD PUSH1 0x7 DUP3 ADD PUSH1 0x1 SWAP1 SLOAD SWAP1 PUSH2 0x100 EXP SWAP1 DIV PUSH1 0xFF AND ISZERO ISZERO ISZERO ISZERO DUP2 MSTORE PUSH1 0x20 ADD PUSH1 0x8 DUP3 ADD SLOAD DUP2 MSTORE POP POP SWAP2 POP POP SWAP2 SWAP1 POP JUMP JUMPDEST PUSH1 0x1 PUSH1 0x5 PUSH1 0x0 DUP3 DUP3 SLOAD PUSH2 0x7DC SWAP2 SWAP1 PUSH2 0x28B3 JUMP JUMPDEST SWAP3 POP POP DUP2 SWAP1 SSTORE POP PUSH1 0x9 PUSH1 0x0 CALLER PUSH20 0xFFFFFFFFFFFFFFFFFFFFFFFFFFFFFFFFFFFFFFFF AND PUSH20 0xFFFFFFFFFFFFFFFFFFFFFFFFFFFFFFFFFFFFFFFF AND DUP2 MSTORE PUSH1 0x20 ADD SWAP1 DUP2 MSTORE PUSH1 0x20 ADD PUSH1 0x0 KECCAK256 PUSH1 0x40 MLOAD DUP1 PUSH2 0x140 ADD PUSH1 0x40 MSTORE DUP1 PUSH1 0x5 SLOAD DUP2 MSTORE PUSH1 0x20 ADD CALLER PUSH20 0xFFFFFFFFFFFFFFFFFFFFFFFFFFFFFFFFFFFFFFFF AND DUP2 MSTORE PUSH1 0x20 ADD DUP11 DUP2 MSTORE PUSH1 0x20 ADD DUP10 DUP2 MSTORE PUSH1 0x20 ADD DUP9 DUP2 MSTORE PUSH1 0x20 ADD DUP8 DUP2 MSTORE PUSH1 0x20 ADD DUP7 DUP2 MSTORE PUSH1 0x20 ADD DUP6 ISZERO ISZERO DUP2 MSTORE PUSH1 0x20 ADD DUP5 ISZERO ISZERO DUP2 MSTORE PUSH1 0x20 ADD DUP4 DUP2 MSTORE POP SWAP1 DUP1 PUSH1 0x1 DUP2 SLOAD ADD DUP1 DUP3 SSTORE DUP1 SWAP2 POP POP PUSH1 0x1 SWAP1 SUB SWAP1 PUSH1 0x0 MSTORE PUSH1 0x20 PUSH1 0x0 KECCAK256 SWAP1 PUSH1 0x9 MUL ADD PUSH1 0x0 SWAP1 SWAP2 SWAP1 SWAP2 SWAP1 SWAP2 POP PUSH1 0x0 DUP3 ADD MLOAD DUP2 PUSH1 0x0 ADD SSTORE PUSH1 0x20 DUP3 ADD MLOAD DUP2 PUSH1 0x1 ADD PUSH1 0x0 PUSH2 0x100 EXP DUP2 SLOAD DUP2 PUSH20 0xFFFFFFFFFFFFFFFFFFFFFFFFFFFFFFFFFFFFFFFF MUL NOT AND SWAP1 DUP4 PUSH20 0xFFFFFFFFFFFFFFFFFFFFFFFFFFFFFFFFFFFFFFFF AND MUL OR SWAP1 SSTORE POP PUSH1 0x40 DUP3 ADD MLOAD DUP2 PUSH1 0x2 ADD SWAP1 DUP1 MLOAD SWAP1 PUSH1 0x20 ADD SWAP1 PUSH2 0x91A SWAP3 SWAP2 SWAP1 PUSH2 0x1F1B JUMP JUMPDEST POP PUSH1 0x60 DUP3 ADD MLOAD DUP2 PUSH1 0x3 ADD SWAP1 DUP1 MLOAD SWAP1 PUSH1 0x20 ADD SWAP1 PUSH2 0x937 SWAP3 SWAP2 SWAP1 PUSH2 0x1F1B JUMP JUMPDEST POP PUSH1 0x80 DUP3 ADD MLOAD DUP2 PUSH1 0x4 ADD SWAP1 DUP1 MLOAD SWAP1 PUSH1 0x20 ADD SWAP1 PUSH2 0x954 SWAP3 SWAP2 SWAP1 PUSH2 0x1F1B JUMP JUMPDEST POP PUSH1 0xA0 DUP3 ADD MLOAD DUP2 PUSH1 0x5 ADD SWAP1 DUP1 MLOAD SWAP1 PUSH1 0x20 ADD SWAP1 PUSH2 0x971 SWAP3 SWAP2 SWAP1 PUSH2 0x1F1B JUMP JUMPDEST POP PUSH1 0xC0 DUP3 ADD MLOAD DUP2 PUSH1 0x6 ADD SWAP1 DUP1 MLOAD SWAP1 PUSH1 0x20 ADD SWAP1 PUSH2 0x98E SWAP3 SWAP2 SWAP1 PUSH2 0x1F1B JUMP JUMPDEST POP PUSH1 0xE0 DUP3 ADD MLOAD DUP2 PUSH1 0x7 ADD PUSH1 0x0 PUSH2 0x100 EXP DUP2 SLOAD DUP2 PUSH1 0xFF MUL NOT AND SWAP1 DUP4 ISZERO ISZERO MUL OR SWAP1 SSTORE POP PUSH2 0x100 DUP3 ADD MLOAD DUP2 PUSH1 0x7 ADD PUSH1 0x1 PUSH2 0x100 EXP DUP2 SLOAD DUP2 PUSH1 0xFF MUL NOT AND SWAP1 DUP4 ISZERO ISZERO MUL OR SWAP1 SSTORE POP PUSH2 0x120 DUP3 ADD MLOAD DUP2 PUSH1 0x8 ADD SSTORE POP POP PUSH1 0x40 MLOAD DUP1 PUSH2 0x140 ADD PUSH1 0x40 MSTORE DUP1 PUSH1 0x5 SLOAD DUP2 MSTORE PUSH1 0x20 ADD CALLER PUSH20 0xFFFFFFFFFFFFFFFFFFFFFFFFFFFFFFFFFFFFFFFF AND DUP2 MSTORE PUSH1 0x20 ADD DUP10 DUP2 MSTORE PUSH1 0x20 ADD DUP9 DUP2 MSTORE PUSH1 0x20 ADD DUP8 DUP2 MSTORE PUSH1 0x20 ADD DUP7 DUP2 MSTORE PUSH1 0x20 ADD DUP6 DUP2 MSTORE PUSH1 0x20 ADD DUP5 ISZERO ISZERO DUP2 MSTORE PUSH1 0x20 ADD DUP4 ISZERO ISZERO DUP2 MSTORE PUSH1 0x20 ADD DUP3 DUP2 MSTORE POP PUSH1 0xA PUSH1 0x0 PUSH1 0x5 SLOAD DUP2 MSTORE PUSH1 0x20 ADD SWAP1 DUP2 MSTORE PUSH1 0x20 ADD PUSH1 0x0 KECCAK256 PUSH1 0x0 DUP3 ADD MLOAD DUP2 PUSH1 0x0 ADD SSTORE PUSH1 0x20 DUP3 ADD MLOAD DUP2 PUSH1 0x1 ADD PUSH1 0x0 PUSH2 0x100 EXP DUP2 SLOAD DUP2 PUSH20 0xFFFFFFFFFFFFFFFFFFFFFFFFFFFFFFFFFFFFFFFF MUL NOT AND SWAP1 DUP4 PUSH20 0xFFFFFFFFFFFFFFFFFFFFFFFFFFFFFFFFFFFFFFFF AND MUL OR SWAP1 SSTORE POP PUSH1 0x40 DUP3 ADD MLOAD DUP2 PUSH1 0x2 ADD SWAP1 DUP1 MLOAD SWAP1 PUSH1 0x20 ADD SWAP1 PUSH2 0xAC1 SWAP3 SWAP2 SWAP1 PUSH2 0x1F1B JUMP JUMPDEST POP PUSH1 0x60 DUP3 ADD MLOAD DUP2 PUSH1 0x3 ADD SWAP1 DUP1 MLOAD SWAP1 PUSH1 0x20 ADD SWAP1 PUSH2 0xADE SWAP3 SWAP2 SWAP1 PUSH2 0x1F1B JUMP JUMPDEST POP PUSH1 0x80 DUP3 ADD MLOAD DUP2 PUSH1 0x4 ADD SWAP1 DUP1 MLOAD SWAP1 PUSH1 0x20 ADD SWAP1 PUSH2 0xAFB SWAP3 SWAP2 SWAP1 PUSH2 0x1F1B JUMP JUMPDEST POP PUSH1 0xA0 DUP3 ADD MLOAD DUP2 PUSH1 0x5 ADD SWAP1 DUP1 MLOAD SWAP1 PUSH1 0x20 ADD SWAP1 PUSH2 0xB18 SWAP3 SWAP2 SWAP1 PUSH2 0x1F1B JUMP JUMPDEST POP PUSH1 0xC0 DUP3 ADD MLOAD DUP2 PUSH1 0x6 ADD SWAP1 DUP1 MLOAD SWAP1 PUSH1 0x20 ADD SWAP1 PUSH2 0xB35 SWAP3 SWAP2 SWAP1 PUSH2 0x1F1B JUMP JUMPDEST POP PUSH1 0xE0 DUP3 ADD MLOAD DUP2 PUSH1 0x7 ADD PUSH1 0x0 PUSH2 0x100 EXP DUP2 SLOAD DUP2 PUSH1 0xFF MUL NOT AND SWAP1 DUP4 ISZERO ISZERO MUL OR SWAP1 SSTORE POP PUSH2 0x100 DUP3 ADD MLOAD DUP2 PUSH1 0x7 ADD PUSH1 0x1 PUSH2 0x100 EXP DUP2 SLOAD DUP2 PUSH1 0xFF MUL NOT AND SWAP1 DUP4 ISZERO ISZERO MUL OR SWAP1 SSTORE POP PUSH2 0x120 DUP3 ADD MLOAD DUP2 PUSH1 0x8 ADD SSTORE SWAP1 POP POP POP POP POP POP POP POP POP POP JUMP JUMPDEST PUSH1 0x9 PUSH1 0x20 MSTORE DUP2 PUSH1 0x0 MSTORE PUSH1 0x40 PUSH1 0x0 KECCAK256 DUP2 DUP2 SLOAD DUP2 LT PUSH2 0xBAB JUMPI PUSH1 0x0 DUP1 REVERT JUMPDEST SWAP1 PUSH1 0x0 MSTORE PUSH1 0x20 PUSH1 0x0 KECCAK256 SWAP1 PUSH1 0x9 MUL ADD PUSH1 0x0 SWAP2 POP SWAP2 POP POP DUP1 PUSH1 0x0 ADD SLOAD SWAP1 DUP1 PUSH1 0x1 ADD PUSH1 0x0 SWAP1 SLOAD SWAP1 PUSH2 0x100 EXP SWAP1 DIV PUSH20 0xFFFFFFFFFFFFFFFFFFFFFFFFFFFFFFFFFFFFFFFF AND SWAP1 DUP1 PUSH1 0x2 ADD DUP1 SLOAD PUSH2 0xBFB SWAP1 PUSH2 0x29C7 JUMP JUMPDEST DUP1 PUSH1 0x1F ADD PUSH1 0x20 DUP1 SWAP2 DIV MUL PUSH1 0x20 ADD PUSH1 0x40 MLOAD SWAP1 DUP2 ADD PUSH1 0x40 MSTORE DUP1 SWAP3 SWAP2 SWAP1 DUP2 DUP2 MSTORE PUSH1 0x20 ADD DUP3 DUP1 SLOAD PUSH2 0xC27 SWAP1 PUSH2 0x29C7 JUMP JUMPDEST DUP1 ISZERO PUSH2 0xC74 JUMPI DUP1 PUSH1 0x1F LT PUSH2 0xC49 JUMPI PUSH2 0x100 DUP1 DUP4 SLOAD DIV MUL DUP4 MSTORE SWAP2 PUSH1 0x20 ADD SWAP2 PUSH2 0xC74 JUMP JUMPDEST DUP3 ADD SWAP2 SWAP1 PUSH1 0x0 MSTORE PUSH1 0x20 PUSH1 0x0 KECCAK256 SWAP1 JUMPDEST DUP2 SLOAD DUP2 MSTORE SWAP1 PUSH1 0x1 ADD SWAP1 PUSH1 0x20 ADD DUP1 DUP4 GT PUSH2 0xC57 JUMPI DUP3 SWAP1 SUB PUSH1 0x1F AND DUP3 ADD SWAP2 JUMPDEST POP POP POP POP POP SWAP1 DUP1 PUSH1 0x3 ADD DUP1 SLOAD PUSH2 0xC89 SWAP1 PUSH2 0x29C7 JUMP JUMPDEST DUP1 PUSH1 0x1F ADD PUSH1 0x20 DUP1 SWAP2 DIV MUL PUSH1 0x20 ADD PUSH1 0x40 MLOAD SWAP1 DUP2 ADD PUSH1 0x40 MSTORE DUP1 SWAP3 SWAP2 SWAP1 DUP2 DUP2 MSTORE PUSH1 0x20 ADD DUP3 DUP1 SLOAD PUSH2 0xCB5 SWAP1 PUSH2 0x29C7 JUMP JUMPDEST DUP1 ISZERO PUSH2 0xD02 JUMPI DUP1 PUSH1 0x1F LT PUSH2 0xCD7 JUMPI PUSH2 0x100 DUP1 DUP4 SLOAD DIV MUL DUP4 MSTORE SWAP2 PUSH1 0x20 ADD SWAP2 PUSH2 0xD02 JUMP JUMPDEST DUP3 ADD SWAP2 SWAP1 PUSH1 0x0 MSTORE PUSH1 0x20 PUSH1 0x0 KECCAK256 SWAP1 JUMPDEST DUP2 SLOAD DUP2 MSTORE SWAP1 PUSH1 0x1 ADD SWAP1 PUSH1 0x20 ADD DUP1 DUP4 GT PUSH2 0xCE5 JUMPI DUP3 SWAP1 SUB PUSH1 0x1F AND DUP3 ADD SWAP2 JUMPDEST POP POP POP POP POP SWAP1 DUP1 PUSH1 0x4 ADD DUP1 SLOAD PUSH2 0xD17 SWAP1 PUSH2 0x29C7 JUMP JUMPDEST DUP1 PUSH1 0x1F ADD PUSH1 0x20 DUP1 SWAP2 DIV MUL PUSH1 0x20 ADD PUSH1 0x40 MLOAD SWAP1 DUP2 ADD PUSH1 0x40 MSTORE DUP1 SWAP3 SWAP2 SWAP1 DUP2 DUP2 MSTORE PUSH1 0x20 ADD DUP3 DUP1 SLOAD PUSH2 0xD43 SWAP1 PUSH2 0x29C7 JUMP JUMPDEST DUP1 ISZERO PUSH2 0xD90 JUMPI DUP1 PUSH1 0x1F LT PUSH2 0xD65 JUMPI PUSH2 0x100 DUP1 DUP4 SLOAD DIV MUL DUP4 MSTORE SWAP2 PUSH1 0x20 ADD SWAP2 PUSH2 0xD90 JUMP JUMPDEST DUP3 ADD SWAP2 SWAP1 PUSH1 0x0 MSTORE PUSH1 0x20 PUSH1 0x0 KECCAK256 SWAP1 JUMPDEST DUP2 SLOAD DUP2 MSTORE SWAP1 PUSH1 0x1 ADD SWAP1 PUSH1 0x20 ADD DUP1 DUP4 GT PUSH2 0xD73 JUMPI DUP3 SWAP1 SUB PUSH1 0x1F AND DUP3 ADD SWAP2 JUMPDEST POP POP POP POP POP SWAP1 DUP1 PUSH1 0x5 ADD DUP1 SLOAD PUSH2 0xDA5 SWAP1 PUSH2 0x29C7 JUMP JUMPDEST DUP1 PUSH1 0x1F ADD PUSH1 0x20 DUP1 SWAP2 DIV MUL PUSH1 0x20 ADD PUSH1 0x40 MLOAD SWAP1 DUP2 ADD PUSH1 0x40 MSTORE DUP1 SWAP3 SWAP2 SWAP1 DUP2 DUP2 MSTORE PUSH1 0x20 ADD DUP3 DUP1 SLOAD PUSH2 0xDD1 SWAP1 PUSH2 0x29C7 JUMP JUMPDEST DUP1 ISZERO PUSH2 0xE1E JUMPI DUP1 PUSH1 0x1F LT PUSH2 0xDF3 JUMPI PUSH2 0x100 DUP1 DUP4 SLOAD DIV MUL DUP4 MSTORE SWAP2 PUSH1 0x20 ADD SWAP2 PUSH2 0xE1E JUMP JUMPDEST DUP3 ADD SWAP2 SWAP1 PUSH1 0x0 MSTORE PUSH1 0x20 PUSH1 0x0 KECCAK256 SWAP1 JUMPDEST DUP2 SLOAD DUP2 MSTORE SWAP1 PUSH1 0x1 ADD SWAP1 PUSH1 0x20 ADD DUP1 DUP4 GT PUSH2 0xE01 JUMPI DUP3 SWAP1 SUB PUSH1 0x1F AND DUP3 ADD SWAP2 JUMPDEST POP POP POP POP POP SWAP1 DUP1 PUSH1 0x6 ADD DUP1 SLOAD PUSH2 0xE33 SWAP1 PUSH2 0x29C7 JUMP JUMPDEST DUP1 PUSH1 0x1F ADD PUSH1 0x20 DUP1 SWAP2 DIV MUL PUSH1 0x20 ADD PUSH1 0x40 MLOAD SWAP1 DUP2 ADD PUSH1 0x40 MSTORE DUP1 SWAP3 SWAP2 SWAP1 DUP2 DUP2 MSTORE PUSH1 0x20 ADD DUP3 DUP1 SLOAD PUSH2 0xE5F SWAP1 PUSH2 0x29C7 JUMP JUMPDEST DUP1 ISZERO PUSH2 0xEAC JUMPI DUP1 PUSH1 0x1F LT PUSH2 0xE81 JUMPI PUSH2 0x100 DUP1 DUP4 SLOAD DIV MUL DUP4 MSTORE SWAP2 PUSH1 0x20 ADD SWAP2 PUSH2 0xEAC JUMP JUMPDEST DUP3 ADD SWAP2 SWAP1 PUSH1 0x0 MSTORE PUSH1 0x20 PUSH1 0x0 KECCAK256 SWAP1 JUMPDEST DUP2 SLOAD DUP2 MSTORE SWAP1 PUSH1 0x1 ADD SWAP1 PUSH1 0x20 ADD DUP1 DUP4 GT PUSH2 0xE8F JUMPI DUP3 SWAP1 SUB PUSH1 0x1F AND DUP3 ADD SWAP2 JUMPDEST POP POP POP POP POP SWAP1 DUP1 PUSH1 0x7 ADD PUSH1 0x0 SWAP1 SLOAD SWAP1 PUSH2 0x100 EXP SWAP1 DIV PUSH1 0xFF AND SWAP1 DUP1 PUSH1 0x7 ADD PUSH1 0x1 SWAP1 SLOAD SWAP1 PUSH2 0x100 EXP SWAP1 DIV PUSH1 0xFF AND SWAP1 DUP1 PUSH1 0x8 ADD SLOAD SWAP1 POP DUP11 JUMP JUMPDEST PUSH1 0x0 PUSH2 0xEED CALLER PUSH2 0x36F JUMP JUMPDEST SWAP1 POP PUSH1 0x9 PUSH1 0x0 CALLER PUSH20 0xFFFFFFFFFFFFFFFFFFFFFFFFFFFFFFFFFFFFFFFF AND PUSH20 0xFFFFFFFFFFFFFFFFFFFFFFFFFFFFFFFFFFFFFFFF AND DUP2 MSTORE PUSH1 0x20 ADD SWAP1 DUP2 MSTORE PUSH1 0x20 ADD PUSH1 0x0 KECCAK256 PUSH1 0x1 DUP3 PUSH2 0xF3B SWAP2 SWAP1 PUSH2 0x2909 JUMP JUMPDEST DUP2 SLOAD DUP2 LT PUSH2 0xF4C JUMPI PUSH2 0xF4B PUSH2 0x2A88 JUMP JUMPDEST JUMPDEST SWAP1 PUSH1 0x0 MSTORE PUSH1 0x20 PUSH1 0x0 KECCAK256 SWAP1 PUSH1 0x9 MUL ADD PUSH1 0x7 ADD PUSH1 0x0 SWAP1 SLOAD SWAP1 PUSH2 0x100 EXP SWAP1 DIV PUSH1 0xFF AND ISZERO PUSH2 0x10F7 JUMPI PUSH1 0x1 PUSH1 0x3 PUSH1 0x0 DUP3 DUP3 SLOAD PUSH2 0xF83 SWAP2 SWAP1 PUSH2 0x28B3 JUMP JUMPDEST SWAP3 POP POP DUP2 SWAP1 SSTORE POP PUSH1 0x7 PUSH1 0x0 CALLER PUSH20 0xFFFFFFFFFFFFFFFFFFFFFFFFFFFFFFFFFFFFFFFF AND PUSH20 0xFFFFFFFFFFFFFFFFFFFFFFFFFFFFFFFFFFFFFFFF AND DUP2 MSTORE PUSH1 0x20 ADD SWAP1 DUP2 MSTORE PUSH1 0x20 ADD PUSH1 0x0 KECCAK256 PUSH1 0x40 MLOAD DUP1 PUSH1 0x40 ADD PUSH1 0x40 MSTORE DUP1 PUSH1 0x3 SLOAD DUP2 MSTORE PUSH1 0x20 ADD DUP5 ISZERO ISZERO DUP2 MSTORE POP SWAP1 DUP1 PUSH1 0x1 DUP2 SLOAD ADD DUP1 DUP3 SSTORE DUP1 SWAP2 POP POP PUSH1 0x1 SWAP1 SUB SWAP1 PUSH1 0x0 MSTORE PUSH1 0x20 PUSH1 0x0 KECCAK256 SWAP1 PUSH1 0x2 MUL ADD PUSH1 0x0 SWAP1 SWAP2 SWAP1 SWAP2 SWAP1 SWAP2 POP PUSH1 0x0 DUP3 ADD MLOAD DUP2 PUSH1 0x0 ADD SSTORE PUSH1 0x20 DUP3 ADD MLOAD DUP2 PUSH1 0x1 ADD PUSH1 0x0 PUSH2 0x100 EXP DUP2 SLOAD DUP2 PUSH1 0xFF MUL NOT AND SWAP1 DUP4 ISZERO ISZERO MUL OR SWAP1 SSTORE POP POP POP PUSH1 0x1 PUSH1 0x6 PUSH1 0x0 CALLER PUSH20 0xFFFFFFFFFFFFFFFFFFFFFFFFFFFFFFFFFFFFFFFF AND PUSH20 0xFFFFFFFFFFFFFFFFFFFFFFFFFFFFFFFFFFFFFFFF AND DUP2 MSTORE PUSH1 0x20 ADD SWAP1 DUP2 MSTORE PUSH1 0x20 ADD PUSH1 0x0 KECCAK256 PUSH1 0x3 ADD PUSH1 0x0 DUP3 DUP3 SLOAD PUSH2 0x108A SWAP2 SWAP1 PUSH2 0x28B3 JUMP JUMPDEST SWAP3 POP POP DUP2 SWAP1 SSTORE POP DUP2 ISZERO PUSH2 0x10F2 JUMPI PUSH1 0x1 PUSH1 0x6 PUSH1 0x0 CALLER PUSH20 0xFFFFFFFFFFFFFFFFFFFFFFFFFFFFFFFFFFFFFFFF AND PUSH20 0xFFFFFFFFFFFFFFFFFFFFFFFFFFFFFFFFFFFFFFFF AND DUP2 MSTORE PUSH1 0x20 ADD SWAP1 DUP2 MSTORE PUSH1 0x20 ADD PUSH1 0x0 KECCAK256 PUSH1 0x5 ADD PUSH1 0x0 DUP3 DUP3 SLOAD PUSH2 0x10EA SWAP2 SWAP1 PUSH2 0x28B3 JUMP JUMPDEST SWAP3 POP POP DUP2 SWAP1 SSTORE POP JUMPDEST PUSH2 0x127A JUMP JUMPDEST PUSH1 0x1 PUSH1 0x4 PUSH1 0x0 DUP3 DUP3 SLOAD PUSH2 0x110A SWAP2 SWAP1 PUSH2 0x28B3 JUMP JUMPDEST SWAP3 POP POP DUP2 SWAP1 SSTORE POP PUSH1 0x7 PUSH1 0x0 CALLER PUSH20 0xFFFFFFFFFFFFFFFFFFFFFFFFFFFFFFFFFFFFFFFF AND PUSH20 0xFFFFFFFFFFFFFFFFFFFFFFFFFFFFFFFFFFFFFFFF AND DUP2 MSTORE PUSH1 0x20 ADD SWAP1 DUP2 MSTORE PUSH1 0x20 ADD PUSH1 0x0 KECCAK256 PUSH1 0x40 MLOAD DUP1 PUSH1 0x40 ADD PUSH1 0x40 MSTORE DUP1 PUSH1 0x4 SLOAD DUP2 MSTORE PUSH1 0x20 ADD DUP5 ISZERO ISZERO DUP2 MSTORE POP SWAP1 DUP1 PUSH1 0x1 DUP2 SLOAD ADD DUP1 DUP3 SSTORE DUP1 SWAP2 POP POP PUSH1 0x1 SWAP1 SUB SWAP1 PUSH1 0x0 MSTORE PUSH1 0x20 PUSH1 0x0 KECCAK256 SWAP1 PUSH1 0x2 MUL ADD PUSH1 0x0 SWAP1 SWAP2 SWAP1 SWAP2 SWAP1 SWAP2 POP PUSH1 0x0 DUP3 ADD MLOAD DUP2 PUSH1 0x0 ADD SSTORE PUSH1 0x20 DUP3 ADD MLOAD DUP2 PUSH1 0x1 ADD PUSH1 0x0 PUSH2 0x100 EXP DUP2 SLOAD DUP2 PUSH1 0xFF MUL NOT AND SWAP1 DUP4 ISZERO ISZERO MUL OR SWAP1 SSTORE POP POP POP PUSH1 0x1 PUSH1 0x6 PUSH1 0x0 CALLER PUSH20 0xFFFFFFFFFFFFFFFFFFFFFFFFFFFFFFFFFFFFFFFF AND PUSH20 0xFFFFFFFFFFFFFFFFFFFFFFFFFFFFFFFFFFFFFFFF AND DUP2 MSTORE PUSH1 0x20 ADD SWAP1 DUP2 MSTORE PUSH1 0x20 ADD PUSH1 0x0 KECCAK256 PUSH1 0x4 ADD PUSH1 0x0 DUP3 DUP3 SLOAD PUSH2 0x1211 SWAP2 SWAP1 PUSH2 0x28B3 JUMP JUMPDEST SWAP3 POP POP DUP2 SWAP1 SSTORE POP DUP2 ISZERO PUSH2 0x1279 JUMPI PUSH1 0x1 PUSH1 0x6 PUSH1 0x0 CALLER PUSH20 0xFFFFFFFFFFFFFFFFFFFFFFFFFFFFFFFFFFFFFFFF AND PUSH20 0xFFFFFFFFFFFFFFFFFFFFFFFFFFFFFFFFFFFFFFFF AND DUP2 MSTORE PUSH1 0x20 ADD SWAP1 DUP2 MSTORE PUSH1 0x20 ADD PUSH1 0x0 KECCAK256 PUSH1 0x6 ADD PUSH1 0x0 DUP3 DUP3 SLOAD PUSH2 0x1271 SWAP2 SWAP1 PUSH2 0x28B3 JUMP JUMPDEST SWAP3 POP POP DUP2 SWAP1 SSTORE POP JUMPDEST JUMPDEST POP POP JUMP JUMPDEST PUSH2 0x1286 PUSH2 0x1FA1 JUMP JUMPDEST PUSH1 0x6 PUSH1 0x0 CALLER PUSH20 0xFFFFFFFFFFFFFFFFFFFFFFFFFFFFFFFFFFFFFFFF AND PUSH20 0xFFFFFFFFFFFFFFFFFFFFFFFFFFFFFFFFFFFFFFFF AND DUP2 MSTORE PUSH1 0x20 ADD SWAP1 DUP2 MSTORE PUSH1 0x20 ADD PUSH1 0x0 KECCAK256 PUSH1 0x40 MLOAD DUP1 PUSH1 0xE0 ADD PUSH1 0x40 MSTORE SWAP1 DUP2 PUSH1 0x0 DUP3 ADD PUSH1 0x0 SWAP1 SLOAD SWAP1 PUSH2 0x100 EXP SWAP1 DIV PUSH20 0xFFFFFFFFFFFFFFFFFFFFFFFFFFFFFFFFFFFFFFFF AND PUSH20 0xFFFFFFFFFFFFFFFFFFFFFFFFFFFFFFFFFFFFFFFF AND PUSH20 0xFFFFFFFFFFFFFFFFFFFFFFFFFFFFFFFFFFFFFFFF AND DUP2 MSTORE PUSH1 0x20 ADD PUSH1 0x1 DUP3 ADD DUP1 SLOAD PUSH2 0x1336 SWAP1 PUSH2 0x29C7 JUMP JUMPDEST DUP1 PUSH1 0x1F ADD PUSH1 0x20 DUP1 SWAP2 DIV MUL PUSH1 0x20 ADD PUSH1 0x40 MLOAD SWAP1 DUP2 ADD PUSH1 0x40 MSTORE DUP1 SWAP3 SWAP2 SWAP1 DUP2 DUP2 MSTORE PUSH1 0x20 ADD DUP3 DUP1 SLOAD PUSH2 0x1362 SWAP1 PUSH2 0x29C7 JUMP JUMPDEST DUP1 ISZERO PUSH2 0x13AF JUMPI DUP1 PUSH1 0x1F LT PUSH2 0x1384 JUMPI PUSH2 0x100 DUP1 DUP4 SLOAD DIV MUL DUP4 MSTORE SWAP2 PUSH1 0x20 ADD SWAP2 PUSH2 0x13AF JUMP JUMPDEST DUP3 ADD SWAP2 SWAP1 PUSH1 0x0 MSTORE PUSH1 0x20 PUSH1 0x0 KECCAK256 SWAP1 JUMPDEST DUP2 SLOAD DUP2 MSTORE SWAP1 PUSH1 0x1 ADD SWAP1 PUSH1 0x20 ADD DUP1 DUP4 GT PUSH2 0x1392 JUMPI DUP3 SWAP1 SUB PUSH1 0x1F AND DUP3 ADD SWAP2 JUMPDEST POP POP POP POP POP DUP2 MSTORE PUSH1 0x20 ADD PUSH1 0x2 DUP3 ADD DUP1 SLOAD DUP1 PUSH1 0x20 MUL PUSH1 0x20 ADD PUSH1 0x40 MLOAD SWAP1 DUP2 ADD PUSH1 0x40 MSTORE DUP1 SWAP3 SWAP2 SWAP1 DUP2 DUP2 MSTORE PUSH1 0x20 ADD DUP3 DUP1 SLOAD DUP1 ISZERO PUSH2 0x1407 JUMPI PUSH1 0x20 MUL DUP3 ADD SWAP2 SWAP1 PUSH1 0x0 MSTORE PUSH1 0x20 PUSH1 0x0 KECCAK256 SWAP1 JUMPDEST DUP2 SLOAD DUP2 MSTORE PUSH1 0x20 ADD SWAP1 PUSH1 0x1 ADD SWAP1 DUP1 DUP4 GT PUSH2 0x13F3 JUMPI JUMPDEST POP POP POP POP POP DUP2 MSTORE PUSH1 0x20 ADD PUSH1 0x3 DUP3 ADD SLOAD DUP2 MSTORE PUSH1 0x20 ADD PUSH1 0x4 DUP3 ADD SLOAD DUP2 MSTORE PUSH1 0x20 ADD PUSH1 0x5 DUP3 ADD SLOAD DUP2 MSTORE PUSH1 0x20 ADD PUSH1 0x6 DUP3 ADD SLOAD DUP2 MSTORE POP POP SWAP1 POP SWAP1 JUMP JUMPDEST PUSH1 0xB PUSH1 0x20 MSTORE DUP2 PUSH1 0x0 MSTORE PUSH1 0x40 PUSH1 0x0 KECCAK256 DUP2 DUP2 SLOAD DUP2 LT PUSH2 0x1459 JUMPI PUSH1 0x0 DUP1 REVERT JUMPDEST SWAP1 PUSH1 0x0 MSTORE PUSH1 0x20 PUSH1 0x0 KECCAK256 ADD PUSH1 0x0 SWAP2 POP SWAP2 POP SWAP1 SLOAD SWAP1 PUSH2 0x100 EXP SWAP1 DIV PUSH20 0xFFFFFFFFFFFFFFFFFFFFFFFFFFFFFFFFFFFFFFFF AND DUP2 JUMP JUMPDEST PUSH1 0x7 PUSH1 0x20 MSTORE DUP2 PUSH1 0x0 MSTORE PUSH1 0x40 PUSH1 0x0 KECCAK256 DUP2 DUP2 SLOAD DUP2 LT PUSH2 0x14A7 JUMPI PUSH1 0x0 DUP1 REVERT JUMPDEST SWAP1 PUSH1 0x0 MSTORE PUSH1 0x20 PUSH1 0x0 KECCAK256 SWAP1 PUSH1 0x2 MUL ADD PUSH1 0x0 SWAP2 POP SWAP2 POP POP DUP1 PUSH1 0x0 ADD SLOAD SWAP1 DUP1 PUSH1 0x1 ADD PUSH1 0x0 SWAP1 SLOAD SWAP1 PUSH2 0x100 EXP SWAP1 DIV PUSH1 0xFF AND SWAP1 POP DUP3 JUMP JUMPDEST PUSH1 0x0 PUSH1 0x5 SLOAD SWAP1 POP SWAP1 JUMP JUMPDEST PUSH1 0x6 PUSH1 0x0 CALLER PUSH20 0xFFFFFFFFFFFFFFFFFFFFFFFFFFFFFFFFFFFFFFFF AND PUSH20 0xFFFFFFFFFFFFFFFFFFFFFFFFFFFFFFFFFFFFFFFF AND DUP2 MSTORE PUSH1 0x20 ADD SWAP1 DUP2 MSTORE PUSH1 0x20 ADD PUSH1 0x0 KECCAK256 PUSH1 0x2 ADD DUP2 SWAP1 DUP1 PUSH1 0x1 DUP2 SLOAD ADD DUP1 DUP3 SSTORE DUP1 SWAP2 POP POP PUSH1 0x1 SWAP1 SUB SWAP1 PUSH1 0x0 MSTORE PUSH1 0x20 PUSH1 0x0 KECCAK256 ADD PUSH1 0x0 SWAP1 SWAP2 SWAP1 SWAP2 SWAP1 SWAP2 POP SSTORE PUSH1 0xB PUSH1 0x0 DUP3 DUP2 MSTORE PUSH1 0x20 ADD SWAP1 DUP2 MSTORE PUSH1 0x20 ADD PUSH1 0x0 KECCAK256 CALLER SWAP1 DUP1 PUSH1 0x1 DUP2 SLOAD ADD DUP1 DUP3 SSTORE DUP1 SWAP2 POP POP PUSH1 0x1 SWAP1 SUB SWAP1 PUSH1 0x0 MSTORE PUSH1 0x20 PUSH1 0x0 KECCAK256 ADD PUSH1 0x0 SWAP1 SWAP2 SWAP1 SWAP2 SWAP1 SWAP2 PUSH2 0x100 EXP DUP2 SLOAD DUP2 PUSH20 0xFFFFFFFFFFFFFFFFFFFFFFFFFFFFFFFFFFFFFFFF MUL NOT AND SWAP1 DUP4 PUSH20 0xFFFFFFFFFFFFFFFFFFFFFFFFFFFFFFFFFFFFFFFF AND MUL OR SWAP1 SSTORE POP POP JUMP JUMPDEST CALLER PUSH1 0x6 PUSH1 0x0 CALLER PUSH20 0xFFFFFFFFFFFFFFFFFFFFFFFFFFFFFFFFFFFFFFFF AND PUSH20 0xFFFFFFFFFFFFFFFFFFFFFFFFFFFFFFFFFFFFFFFF AND DUP2 MSTORE PUSH1 0x20 ADD SWAP1 DUP2 MSTORE PUSH1 0x20 ADD PUSH1 0x0 KECCAK256 PUSH1 0x0 ADD PUSH1 0x0 PUSH2 0x100 EXP DUP2 SLOAD DUP2 PUSH20 0xFFFFFFFFFFFFFFFFFFFFFFFFFFFFFFFFFFFFFFFF MUL NOT AND SWAP1 DUP4 PUSH20 0xFFFFFFFFFFFFFFFFFFFFFFFFFFFFFFFFFFFFFFFF AND MUL OR SWAP1 SSTORE POP DUP1 PUSH1 0x6 PUSH1 0x0 CALLER PUSH20 0xFFFFFFFFFFFFFFFFFFFFFFFFFFFFFFFFFFFFFFFF AND PUSH20 0xFFFFFFFFFFFFFFFFFFFFFFFFFFFFFFFFFFFFFFFF AND DUP2 MSTORE PUSH1 0x20 ADD SWAP1 DUP2 MSTORE PUSH1 0x20 ADD PUSH1 0x0 KECCAK256 PUSH1 0x1 ADD SWAP1 DUP1 MLOAD SWAP1 PUSH1 0x20 ADD SWAP1 PUSH2 0x169A SWAP3 SWAP2 SWAP1 PUSH2 0x1F1B JUMP JUMPDEST POP POP JUMP JUMPDEST PUSH1 0x8 PUSH1 0x20 MSTORE DUP2 PUSH1 0x0 MSTORE PUSH1 0x40 PUSH1 0x0 KECCAK256 DUP2 DUP2 SLOAD DUP2 LT PUSH2 0x16BA JUMPI PUSH1 0x0 DUP1 REVERT JUMPDEST SWAP1 PUSH1 0x0 MSTORE PUSH1 0x20 PUSH1 0x0 KECCAK256 SWAP1 PUSH1 0x2 MUL ADD PUSH1 0x0 SWAP2 POP SWAP2 POP POP DUP1 PUSH1 0x0 ADD SLOAD SWAP1 DUP1 PUSH1 0x1 ADD PUSH1 0x0 SWAP1 SLOAD SWAP1 PUSH2 0x100 EXP SWAP1 DIV PUSH1 0xFF AND SWAP1 POP DUP3 JUMP JUMPDEST PUSH1 0xA PUSH1 0x20 MSTORE DUP1 PUSH1 0x0 MSTORE PUSH1 0x40 PUSH1 0x0 KECCAK256 PUSH1 0x0 SWAP2 POP SWAP1 POP DUP1 PUSH1 0x0 ADD SLOAD SWAP1 DUP1 PUSH1 0x1 ADD PUSH1 0x0 SWAP1 SLOAD SWAP1 PUSH2 0x100 EXP SWAP1 DIV PUSH20 0xFFFFFFFFFFFFFFFFFFFFFFFFFFFFFFFFFFFFFFFF AND SWAP1 DUP1 PUSH1 0x2 ADD DUP1 SLOAD PUSH2 0x173B SWAP1 PUSH2 0x29C7 JUMP JUMPDEST DUP1 PUSH1 0x1F ADD PUSH1 0x20 DUP1 SWAP2 DIV MUL PUSH1 0x20 ADD PUSH1 0x40 MLOAD SWAP1 DUP2 ADD PUSH1 0x40 MSTORE DUP1 SWAP3 SWAP2 SWAP1 DUP2 DUP2 MSTORE PUSH1 0x20 ADD DUP3 DUP1 SLOAD PUSH2 0x1767 SWAP1 PUSH2 0x29C7 JUMP JUMPDEST DUP1 ISZERO PUSH2 0x17B4 JUMPI DUP1 PUSH1 0x1F LT PUSH2 0x1789 JUMPI PUSH2 0x100 DUP1 DUP4 SLOAD DIV MUL DUP4 MSTORE SWAP2 PUSH1 0x20 ADD SWAP2 PUSH2 0x17B4 JUMP JUMPDEST DUP3 ADD SWAP2 SWAP1 PUSH1 0x0 MSTORE PUSH1 0x20 PUSH1 0x0 KECCAK256 SWAP1 JUMPDEST DUP2 SLOAD DUP2 MSTORE SWAP1 PUSH1 0x1 ADD SWAP1 PUSH1 0x20 ADD DUP1 DUP4 GT PUSH2 0x1797 JUMPI DUP3 SWAP1 SUB PUSH1 0x1F AND DUP3 ADD SWAP2 JUMPDEST POP POP POP POP POP SWAP1 DUP1 PUSH1 0x3 ADD DUP1 SLOAD PUSH2 0x17C9 SWAP1 PUSH2 0x29C7 JUMP JUMPDEST DUP1 PUSH1 0x1F ADD PUSH1 0x20 DUP1 SWAP2 DIV MUL PUSH1 0x20 ADD PUSH1 0x40 MLOAD SWAP1 DUP2 ADD PUSH1 0x40 MSTORE DUP1 SWAP3 SWAP2 SWAP1 DUP2 DUP2 MSTORE PUSH1 0x20 ADD DUP3 DUP1 SLOAD PUSH2 0x17F5 SWAP1 PUSH2 0x29C7 JUMP JUMPDEST DUP1 ISZERO PUSH2 0x1842 JUMPI DUP1 PUSH1 0x1F LT PUSH2 0x1817 JUMPI PUSH2 0x100 DUP1 DUP4 SLOAD DIV MUL DUP4 MSTORE SWAP2 PUSH1 0x20 ADD SWAP2 PUSH2 0x1842 JUMP JUMPDEST DUP3 ADD SWAP2 SWAP1 PUSH1 0x0 MSTORE PUSH1 0x20 PUSH1 0x0 KECCAK256 SWAP1 JUMPDEST DUP2 SLOAD DUP2 MSTORE SWAP1 PUSH1 0x1 ADD SWAP1 PUSH1 0x20 ADD DUP1 DUP4 GT PUSH2 0x1825 JUMPI DUP3 SWAP1 SUB PUSH1 0x1F AND DUP3 ADD SWAP2 JUMPDEST POP POP POP POP POP SWAP1 DUP1 PUSH1 0x4 ADD DUP1 SLOAD PUSH2 0x1857 SWAP1 PUSH2 0x29C7 JUMP JUMPDEST DUP1 PUSH1 0x1F ADD PUSH1 0x20 DUP1 SWAP2 DIV MUL PUSH1 0x20 ADD PUSH1 0x40 MLOAD SWAP1 DUP2 ADD PUSH1 0x40 MSTORE DUP1 SWAP3 SWAP2 SWAP1 DUP2 DUP2 MSTORE PUSH1 0x20 ADD DUP3 DUP1 SLOAD PUSH2 0x1883 SWAP1 PUSH2 0x29C7 JUMP JUMPDEST DUP1 ISZERO PUSH2 0x18D0 JUMPI DUP1 PUSH1 0x1F LT PUSH2 0x18A5 JUMPI PUSH2 0x100 DUP1 DUP4 SLOAD DIV MUL DUP4 MSTORE SWAP2 PUSH1 0x20 ADD SWAP2 PUSH2 0x18D0 JUMP JUMPDEST DUP3 ADD SWAP2 SWAP1 PUSH1 0x0 MSTORE PUSH1 0x20 PUSH1 0x0 KECCAK256 SWAP1 JUMPDEST DUP2 SLOAD DUP2 MSTORE SWAP1 PUSH1 0x1 ADD SWAP1 PUSH1 0x20 ADD DUP1 DUP4 GT PUSH2 0x18B3 JUMPI DUP3 SWAP1 SUB PUSH1 0x1F AND DUP3 ADD SWAP2 JUMPDEST POP POP POP POP POP SWAP1 DUP1 PUSH1 0x5 ADD DUP1 SLOAD PUSH2 0x18E5 SWAP1 PUSH2 0x29C7 JUMP JUMPDEST DUP1 PUSH1 0x1F ADD PUSH1 0x20 DUP1 SWAP2 DIV MUL PUSH1 0x20 ADD PUSH1 0x40 MLOAD SWAP1 DUP2 ADD PUSH1 0x40 MSTORE DUP1 SWAP3 SWAP2 SWAP1 DUP2 DUP2 MSTORE PUSH1 0x20 ADD DUP3 DUP1 SLOAD PUSH2 0x1911 SWAP1 PUSH2 0x29C7 JUMP JUMPDEST DUP1 ISZERO PUSH2 0x195E JUMPI DUP1 PUSH1 0x1F LT PUSH2 0x1933 JUMPI PUSH2 0x100 DUP1 DUP4 SLOAD DIV MUL DUP4 MSTORE SWAP2 PUSH1 0x20 ADD SWAP2 PUSH2 0x195E JUMP JUMPDEST DUP3 ADD SWAP2 SWAP1 PUSH1 0x0 MSTORE PUSH1 0x20 PUSH1 0x0 KECCAK256 SWAP1 JUMPDEST DUP2 SLOAD DUP2 MSTORE SWAP1 PUSH1 0x1 ADD SWAP1 PUSH1 0x20 ADD DUP1 DUP4 GT PUSH2 0x1941 JUMPI DUP3 SWAP1 SUB PUSH1 0x1F AND DUP3 ADD SWAP2 JUMPDEST POP POP POP POP POP SWAP1 DUP1 PUSH1 0x6 ADD DUP1 SLOAD PUSH2 0x1973 SWAP1 PUSH2 0x29C7 JUMP JUMPDEST DUP1 PUSH1 0x1F ADD PUSH1 0x20 DUP1 SWAP2 DIV MUL PUSH1 0x20 ADD PUSH1 0x40 MLOAD SWAP1 DUP2 ADD PUSH1 0x40 MSTORE DUP1 SWAP3 SWAP2 SWAP1 DUP2 DUP2 MSTORE PUSH1 0x20 ADD DUP3 DUP1 SLOAD PUSH2 0x199F SWAP1 PUSH2 0x29C7 JUMP JUMPDEST DUP1 ISZERO PUSH2 0x19EC JUMPI DUP1 PUSH1 0x1F LT PUSH2 0x19C1 JUMPI PUSH2 0x100 DUP1 DUP4 SLOAD DIV MUL DUP4 MSTORE SWAP2 PUSH1 0x20 ADD SWAP2 PUSH2 0x19EC JUMP JUMPDEST DUP3 ADD SWAP2 SWAP1 PUSH1 0x0 MSTORE PUSH1 0x20 PUSH1 0x0 KECCAK256 SWAP1 JUMPDEST DUP2 SLOAD DUP2 MSTORE SWAP1 PUSH1 0x1 ADD SWAP1 PUSH1 0x20 ADD DUP1 DUP4 GT PUSH2 0x19CF JUMPI DUP3 SWAP1 SUB PUSH1 0x1F AND DUP3 ADD SWAP2 JUMPDEST POP POP POP POP POP SWAP1 DUP1 PUSH1 0x7 ADD PUSH1 0x0 SWAP1 SLOAD SWAP1 PUSH2 0x100 EXP SWAP1 DIV PUSH1 0xFF AND SWAP1 DUP1 PUSH1 0x7 ADD PUSH1 0x1 SWAP1 SLOAD SWAP1 PUSH2 0x100 EXP SWAP1 DIV PUSH1 0xFF AND SWAP1 DUP1 PUSH1 0x8 ADD SLOAD SWAP1 POP DUP11 JUMP JUMPDEST PUSH1 0x6 PUSH1 0x20 MSTORE DUP1 PUSH1 0x0 MSTORE PUSH1 0x40 PUSH1 0x0 KECCAK256 PUSH1 0x0 SWAP2 POP SWAP1 POP DUP1 PUSH1 0x0 ADD PUSH1 0x0 SWAP1 SLOAD SWAP1 PUSH2 0x100 EXP SWAP1 DIV PUSH20 0xFFFFFFFFFFFFFFFFFFFFFFFFFFFFFFFFFFFFFFFF AND SWAP1 DUP1 PUSH1 0x1 ADD DUP1 SLOAD PUSH2 0x1A6B SWAP1 PUSH2 0x29C7 JUMP JUMPDEST DUP1 PUSH1 0x1F ADD PUSH1 0x20 DUP1 SWAP2 DIV MUL PUSH1 0x20 ADD PUSH1 0x40 MLOAD SWAP1 DUP2 ADD PUSH1 0x40 MSTORE DUP1 SWAP3 SWAP2 SWAP1 DUP2 DUP2 MSTORE PUSH1 0x20 ADD DUP3 DUP1 SLOAD PUSH2 0x1A97 SWAP1 PUSH2 0x29C7 JUMP JUMPDEST DUP1 ISZERO PUSH2 0x1AE4 JUMPI DUP1 PUSH1 0x1F LT PUSH2 0x1AB9 JUMPI PUSH2 0x100 DUP1 DUP4 SLOAD DIV MUL DUP4 MSTORE SWAP2 PUSH1 0x20 ADD SWAP2 PUSH2 0x1AE4 JUMP JUMPDEST DUP3 ADD SWAP2 SWAP1 PUSH1 0x0 MSTORE PUSH1 0x20 PUSH1 0x0 KECCAK256 SWAP1 JUMPDEST DUP2 SLOAD DUP2 MSTORE SWAP1 PUSH1 0x1 ADD SWAP1 PUSH1 0x20 ADD DUP1 DUP4 GT PUSH2 0x1AC7 JUMPI DUP3 SWAP1 SUB PUSH1 0x1F AND DUP3 ADD SWAP2 JUMPDEST POP POP POP POP POP SWAP1 DUP1 PUSH1 0x3 ADD SLOAD SWAP1 DUP1 PUSH1 0x4 ADD SLOAD SWAP1 DUP1 PUSH1 0x5 ADD SLOAD SWAP1 DUP1 PUSH1 0x6 ADD SLOAD SWAP1 POP DUP7 JUMP JUMPDEST PUSH2 0x1B0E PUSH2 0x1EAE JUMP JUMPDEST PUSH1 0xA PUSH1 0x0 DUP4 DUP2 MSTORE PUSH1 0x20 ADD SWAP1 DUP2 MSTORE PUSH1 0x20 ADD PUSH1 0x0 KECCAK256 PUSH1 0x40 MLOAD DUP1 PUSH2 0x140 ADD PUSH1 0x40 MSTORE SWAP1 DUP2 PUSH1 0x0 DUP3 ADD SLOAD DUP2 MSTORE PUSH1 0x20 ADD PUSH1 0x1 DUP3 ADD PUSH1 0x0 SWAP1 SLOAD SWAP1 PUSH2 0x100 EXP SWAP1 DIV PUSH20 0xFFFFFFFFFFFFFFFFFFFFFFFFFFFFFFFFFFFFFFFF AND PUSH20 0xFFFFFFFFFFFFFFFFFFFFFFFFFFFFFFFFFFFFFFFF AND PUSH20 0xFFFFFFFFFFFFFFFFFFFFFFFFFFFFFFFFFFFFFFFF AND DUP2 MSTORE PUSH1 0x20 ADD PUSH1 0x2 DUP3 ADD DUP1 SLOAD PUSH2 0x1B9D SWAP1 PUSH2 0x29C7 JUMP JUMPDEST DUP1 PUSH1 0x1F ADD PUSH1 0x20 DUP1 SWAP2 DIV MUL PUSH1 0x20 ADD PUSH1 0x40 MLOAD SWAP1 DUP2 ADD PUSH1 0x40 MSTORE DUP1 SWAP3 SWAP2 SWAP1 DUP2 DUP2 MSTORE PUSH1 0x20 ADD DUP3 DUP1 SLOAD PUSH2 0x1BC9 SWAP1 PUSH2 0x29C7 JUMP JUMPDEST DUP1 ISZERO PUSH2 0x1C16 JUMPI DUP1 PUSH1 0x1F LT PUSH2 0x1BEB JUMPI PUSH2 0x100 DUP1 DUP4 SLOAD DIV MUL DUP4 MSTORE SWAP2 PUSH1 0x20 ADD SWAP2 PUSH2 0x1C16 JUMP JUMPDEST DUP3 ADD SWAP2 SWAP1 PUSH1 0x0 MSTORE PUSH1 0x20 PUSH1 0x0 KECCAK256 SWAP1 JUMPDEST DUP2 SLOAD DUP2 MSTORE SWAP1 PUSH1 0x1 ADD SWAP1 PUSH1 0x20 ADD DUP1 DUP4 GT PUSH2 0x1BF9 JUMPI DUP3 SWAP1 SUB PUSH1 0x1F AND DUP3 ADD SWAP2 JUMPDEST POP POP POP POP POP DUP2 MSTORE PUSH1 0x20 ADD PUSH1 0x3 DUP3 ADD DUP1 SLOAD PUSH2 0x1C2F SWAP1 PUSH2 0x29C7 JUMP JUMPDEST DUP1 PUSH1 0x1F ADD PUSH1 0x20 DUP1 SWAP2 DIV MUL PUSH1 0x20 ADD PUSH1 0x40 MLOAD SWAP1 DUP2 ADD PUSH1 0x40 MSTORE DUP1 SWAP3 SWAP2 SWAP1 DUP2 DUP2 MSTORE PUSH1 0x20 ADD DUP3 DUP1 SLOAD PUSH2 0x1C5B SWAP1 PUSH2 0x29C7 JUMP JUMPDEST DUP1 ISZERO PUSH2 0x1CA8 JUMPI DUP1 PUSH1 0x1F LT PUSH2 0x1C7D JUMPI PUSH2 0x100 DUP1 DUP4 SLOAD DIV MUL DUP4 MSTORE SWAP2 PUSH1 0x20 ADD SWAP2 PUSH2 0x1CA8 JUMP JUMPDEST DUP3 ADD SWAP2 SWAP1 PUSH1 0x0 MSTORE PUSH1 0x20 PUSH1 0x0 KECCAK256 SWAP1 JUMPDEST DUP2 SLOAD DUP2 MSTORE SWAP1 PUSH1 0x1 ADD SWAP1 PUSH1 0x20 ADD DUP1 DUP4 GT PUSH2 0x1C8B JUMPI DUP3 SWAP1 SUB PUSH1 0x1F AND DUP3 ADD SWAP2 JUMPDEST POP POP POP POP POP DUP2 MSTORE PUSH1 0x20 ADD PUSH1 0x4 DUP3 ADD DUP1 SLOAD PUSH2 0x1CC1 SWAP1 PUSH2 0x29C7 JUMP JUMPDEST DUP1 PUSH1 0x1F ADD PUSH1 0x20 DUP1 SWAP2 DIV MUL PUSH1 0x20 ADD PUSH1 0x40 MLOAD SWAP1 DUP2 ADD PUSH1 0x40 MSTORE DUP1 SWAP3 SWAP2 SWAP1 DUP2 DUP2 MSTORE PUSH1 0x20 ADD DUP3 DUP1 SLOAD PUSH2 0x1CED SWAP1 PUSH2 0x29C7 JUMP JUMPDEST DUP1 ISZERO PUSH2 0x1D3A JUMPI DUP1 PUSH1 0x1F LT PUSH2 0x1D0F JUMPI PUSH2 0x100 DUP1 DUP4 SLOAD DIV MUL DUP4 MSTORE SWAP2 PUSH1 0x20 ADD SWAP2 PUSH2 0x1D3A JUMP JUMPDEST DUP3 ADD SWAP2 SWAP1 PUSH1 0x0 MSTORE PUSH1 0x20 PUSH1 0x0 KECCAK256 SWAP1 JUMPDEST DUP2 SLOAD DUP2 MSTORE SWAP1 PUSH1 0x1 ADD SWAP1 PUSH1 0x20 ADD DUP1 DUP4 GT PUSH2 0x1D1D JUMPI DUP3 SWAP1 SUB PUSH1 0x1F AND DUP3 ADD SWAP2 JUMPDEST POP POP POP POP POP DUP2 MSTORE PUSH1 0x20 ADD PUSH1 0x5 DUP3 ADD DUP1 SLOAD PUSH2 0x1D53 SWAP1 PUSH2 0x29C7 JUMP JUMPDEST DUP1 PUSH1 0x1F ADD PUSH1 0x20 DUP1 SWAP2 DIV MUL PUSH1 0x20 ADD PUSH1 0x40 MLOAD SWAP1 DUP2 ADD PUSH1 0x40 MSTORE DUP1 SWAP3 SWAP2 SWAP1 DUP2 DUP2 MSTORE PUSH1 0x20 ADD DUP3 DUP1 SLOAD PUSH2 0x1D7F SWAP1 PUSH2 0x29C7 JUMP JUMPDEST DUP1 ISZERO PUSH2 0x1DCC JUMPI DUP1 PUSH1 0x1F LT PUSH2 0x1DA1 JUMPI PUSH2 0x100 DUP1 DUP4 SLOAD DIV MUL DUP4 MSTORE SWAP2 PUSH1 0x20 ADD SWAP2 PUSH2 0x1DCC JUMP JUMPDEST DUP3 ADD SWAP2 SWAP1 PUSH1 0x0 MSTORE PUSH1 0x20 PUSH1 0x0 KECCAK256 SWAP1 JUMPDEST DUP2 SLOAD DUP2 MSTORE SWAP1 PUSH1 0x1 ADD SWAP1 PUSH1 0x20 ADD DUP1 DUP4 GT PUSH2 0x1DAF JUMPI DUP3 SWAP1 SUB PUSH1 0x1F AND DUP3 ADD SWAP2 JUMPDEST POP POP POP POP POP DUP2 MSTORE PUSH1 0x20 ADD PUSH1 0x6 DUP3 ADD DUP1 SLOAD PUSH2 0x1DE5 SWAP1 PUSH2 0x29C7 JUMP JUMPDEST DUP1 PUSH1 0x1F ADD PUSH1 0x20 DUP1 SWAP2 DIV MUL PUSH1 0x20 ADD PUSH1 0x40 MLOAD SWAP1 DUP2 ADD PUSH1 0x40 MSTORE DUP1 SWAP3 SWAP2 SWAP1 DUP2 DUP2 MSTORE PUSH1 0x20 ADD DUP3 DUP1 SLOAD PUSH2 0x1E11 SWAP1 PUSH2 0x29C7 JUMP JUMPDEST DUP1 ISZERO PUSH2 0x1E5E JUMPI DUP1 PUSH1 0x1F LT PUSH2 0x1E33 JUMPI PUSH2 0x100 DUP1 DUP4 SLOAD DIV MUL DUP4 MSTORE SWAP2 PUSH1 0x20 ADD SWAP2 PUSH2 0x1E5E JUMP JUMPDEST DUP3 ADD SWAP2 SWAP1 PUSH1 0x0 MSTORE PUSH1 0x20 PUSH1 0x0 KECCAK256 SWAP1 JUMPDEST DUP2 SLOAD DUP2 MSTORE SWAP1 PUSH1 0x1 ADD SWAP1 PUSH1 0x20 ADD DUP1 DUP4 GT PUSH2 0x1E41 JUMPI DUP3 SWAP1 SUB PUSH1 0x1F AND DUP3 ADD SWAP2 JUMPDEST POP POP POP POP POP DUP2 MSTORE PUSH1 0x20 ADD PUSH1 0x7 DUP3 ADD PUSH1 0x0 SWAP1 SLOAD SWAP1 PUSH2 0x100 EXP SWAP1 DIV PUSH1 0xFF AND ISZERO ISZERO ISZERO ISZERO DUP2 MSTORE PUSH1 0x20 ADD PUSH1 0x7 DUP3 ADD PUSH1 0x1 SWAP1 SLOAD SWAP1 PUSH2 0x100 EXP SWAP1 DIV PUSH1 0xFF AND ISZERO ISZERO ISZERO ISZERO DUP2 MSTORE PUSH1 0x20 ADD PUSH1 0x8 DUP3 ADD SLOAD DUP2 MSTORE POP POP SWAP1 POP SWAP2 SWAP1 POP JUMP JUMPDEST PUSH1 0x40 MLOAD DUP1 PUSH2 0x140 ADD PUSH1 0x40 MSTORE DUP1 PUSH1 0x0 DUP2 MSTORE PUSH1 0x20 ADD PUSH1 0x0 PUSH20 0xFFFFFFFFFFFFFFFFFFFFFFFFFFFFFFFFFFFFFFFF AND DUP2 MSTORE PUSH1 0x20 ADD PUSH1 0x60 DUP2 MSTORE PUSH1 0x20 ADD PUSH1 0x60 DUP2 MSTORE PUSH1 0x20 ADD PUSH1 0x60 DUP2 MSTORE PUSH1 0x20 ADD PUSH1 0x60 DUP2 MSTORE PUSH1 0x20 ADD PUSH1 0x60 DUP2 MSTORE PUSH1 0x20 ADD PUSH1 0x0 ISZERO ISZERO DUP2 MSTORE PUSH1 0x20 ADD PUSH1 0x0 ISZERO ISZERO DUP2 MSTORE PUSH1 0x20 ADD PUSH1 0x0 DUP2 MSTORE POP SWAP1 JUMP JUMPDEST DUP3 DUP1 SLOAD PUSH2 0x1F27 SWAP1 PUSH2 0x29C7 JUMP JUMPDEST SWAP1 PUSH1 0x0 MSTORE PUSH1 0x20 PUSH1 0x0 KECCAK256 SWAP1 PUSH1 0x1F ADD PUSH1 0x20 SWAP1 DIV DUP2 ADD SWAP3 DUP3 PUSH2 0x1F49 JUMPI PUSH1 0x0 DUP6 SSTORE PUSH2 0x1F90 JUMP JUMPDEST DUP3 PUSH1 0x1F LT PUSH2 0x1F62 JUMPI DUP1 MLOAD PUSH1 0xFF NOT AND DUP4 DUP1 ADD OR DUP6 SSTORE PUSH2 0x1F90 JUMP JUMPDEST DUP3 DUP1 ADD PUSH1 0x1 ADD DUP6 SSTORE DUP3 ISZERO PUSH2 0x1F90 JUMPI SWAP2 DUP3 ADD JUMPDEST DUP3 DUP2 GT ISZERO PUSH2 0x1F8F JUMPI DUP3 MLOAD DUP3 SSTORE SWAP2 PUSH1 0x20 ADD SWAP2 SWAP1 PUSH1 0x1 ADD SWAP1 PUSH2 0x1F74 JUMP JUMPDEST JUMPDEST POP SWAP1 POP PUSH2 0x1F9D SWAP2 SWAP1 PUSH2 0x1FF4 JUMP JUMPDEST POP SWAP1 JUMP JUMPDEST PUSH1 0x40 MLOAD DUP1 PUSH1 0xE0 ADD PUSH1 0x40 MSTORE DUP1 PUSH1 0x0 PUSH20 0xFFFFFFFFFFFFFFFFFFFFFFFFFFFFFFFFFFFFFFFF AND DUP2 MSTORE PUSH1 0x20 ADD PUSH1 0x60 DUP2 MSTORE PUSH1 0x20 ADD PUSH1 0x60 DUP2 MSTORE PUSH1 0x20 ADD PUSH1 0x0 DUP2 MSTORE PUSH1 0x20 ADD PUSH1 0x0 DUP2 MSTORE PUSH1 0x20 ADD PUSH1 0x0 DUP2 MSTORE PUSH1 0x20 ADD PUSH1 0x0 DUP2 MSTORE POP SWAP1 JUMP JUMPDEST JUMPDEST DUP1 DUP3 GT ISZERO PUSH2 0x200D JUMPI PUSH1 0x0 DUP2 PUSH1 0x0 SWAP1 SSTORE POP PUSH1 0x1 ADD PUSH2 0x1FF5 JUMP JUMPDEST POP SWAP1 JUMP JUMPDEST PUSH1 0x0 PUSH2 0x2024 PUSH2 0x201F DUP5 PUSH2 0x281C JUMP JUMPDEST PUSH2 0x27F7 JUMP JUMPDEST SWAP1 POP DUP3 DUP2 MSTORE PUSH1 0x20 DUP2 ADD DUP5 DUP5 DUP5 ADD GT ISZERO PUSH2 0x2040 JUMPI PUSH2 0x203F PUSH2 0x2AEB JUMP JUMPDEST JUMPDEST PUSH2 0x204B DUP5 DUP3 DUP6 PUSH2 0x2985 JUMP JUMPDEST POP SWAP4 SWAP3 POP POP POP JUMP JUMPDEST PUSH1 0x0 DUP2 CALLDATALOAD SWAP1 POP PUSH2 0x2062 DUP2 PUSH2 0x2B0B JUMP JUMPDEST SWAP3 SWAP2 POP POP JUMP JUMPDEST PUSH1 0x0 DUP2 CALLDATALOAD SWAP1 POP PUSH2 0x2077 DUP2 PUSH2 0x2B22 JUMP JUMPDEST SWAP3 SWAP2 POP POP JUMP JUMPDEST PUSH1 0x0 DUP3 PUSH1 0x1F DUP4 ADD SLT PUSH2 0x2092 JUMPI PUSH2 0x2091 PUSH2 0x2AE6 JUMP JUMPDEST JUMPDEST DUP2 CALLDATALOAD PUSH2 0x20A2 DUP5 DUP3 PUSH1 0x20 DUP7 ADD PUSH2 0x2011 JUMP JUMPDEST SWAP2 POP POP SWAP3 SWAP2 POP POP JUMP JUMPDEST PUSH1 0x0 DUP2 CALLDATALOAD SWAP1 POP PUSH2 0x20BA DUP2 PUSH2 0x2B39 JUMP JUMPDEST SWAP3 SWAP2 POP POP JUMP JUMPDEST PUSH1 0x0 PUSH1 0x20 DUP3 DUP5 SUB SLT ISZERO PUSH2 0x20D6 JUMPI PUSH2 0x20D5 PUSH2 0x2AF5 JUMP JUMPDEST JUMPDEST PUSH1 0x0 PUSH2 0x20E4 DUP5 DUP3 DUP6 ADD PUSH2 0x2053 JUMP JUMPDEST SWAP2 POP POP SWAP3 SWAP2 POP POP JUMP JUMPDEST PUSH1 0x0 DUP1 PUSH1 0x40 DUP4 DUP6 SUB SLT ISZERO PUSH2 0x2104 JUMPI PUSH2 0x2103 PUSH2 0x2AF5 JUMP JUMPDEST JUMPDEST PUSH1 0x0 PUSH2 0x2112 DUP6 DUP3 DUP7 ADD PUSH2 0x2053 JUMP JUMPDEST SWAP3 POP POP PUSH1 0x20 PUSH2 0x2123 DUP6 DUP3 DUP7 ADD PUSH2 0x20AB JUMP JUMPDEST SWAP2 POP POP SWAP3 POP SWAP3 SWAP1 POP JUMP JUMPDEST PUSH1 0x0 PUSH1 0x20 DUP3 DUP5 SUB SLT ISZERO PUSH2 0x2143 JUMPI PUSH2 0x2142 PUSH2 0x2AF5 JUMP JUMPDEST JUMPDEST PUSH1 0x0 PUSH2 0x2151 DUP5 DUP3 DUP6 ADD PUSH2 0x2068 JUMP JUMPDEST SWAP2 POP POP SWAP3 SWAP2 POP POP JUMP JUMPDEST PUSH1 0x0 PUSH1 0x20 DUP3 DUP5 SUB SLT ISZERO PUSH2 0x2170 JUMPI PUSH2 0x216F PUSH2 0x2AF5 JUMP JUMPDEST JUMPDEST PUSH1 0x0 DUP3 ADD CALLDATALOAD PUSH8 0xFFFFFFFFFFFFFFFF DUP2 GT ISZERO PUSH2 0x218E JUMPI PUSH2 0x218D PUSH2 0x2AF0 JUMP JUMPDEST JUMPDEST PUSH2 0x219A DUP5 DUP3 DUP6 ADD PUSH2 0x207D JUMP JUMPDEST SWAP2 POP POP SWAP3 SWAP2 POP POP JUMP JUMPDEST PUSH1 0x0 DUP1 PUSH1 0x0 DUP1 PUSH1 0x0 DUP1 PUSH1 0x0 DUP1 PUSH2 0x100 DUP10 DUP12 SUB SLT ISZERO PUSH2 0x21C4 JUMPI PUSH2 0x21C3 PUSH2 0x2AF5 JUMP JUMPDEST JUMPDEST PUSH1 0x0 DUP10 ADD CALLDATALOAD PUSH8 0xFFFFFFFFFFFFFFFF DUP2 GT ISZERO PUSH2 0x21E2 JUMPI PUSH2 0x21E1 PUSH2 0x2AF0 JUMP JUMPDEST JUMPDEST PUSH2 0x21EE DUP12 DUP3 DUP13 ADD PUSH2 0x207D JUMP JUMPDEST SWAP9 POP POP PUSH1 0x20 DUP10 ADD CALLDATALOAD PUSH8 0xFFFFFFFFFFFFFFFF DUP2 GT ISZERO PUSH2 0x220F JUMPI PUSH2 0x220E PUSH2 0x2AF0 JUMP JUMPDEST JUMPDEST PUSH2 0x221B DUP12 DUP3 DUP13 ADD PUSH2 0x207D JUMP JUMPDEST SWAP8 POP POP PUSH1 0x40 DUP10 ADD CALLDATALOAD PUSH8 0xFFFFFFFFFFFFFFFF DUP2 GT ISZERO PUSH2 0x223C JUMPI PUSH2 0x223B PUSH2 0x2AF0 JUMP JUMPDEST JUMPDEST PUSH2 0x2248 DUP12 DUP3 DUP13 ADD PUSH2 0x207D JUMP JUMPDEST SWAP7 POP POP PUSH1 0x60 DUP10 ADD CALLDATALOAD PUSH8 0xFFFFFFFFFFFFFFFF DUP2 GT ISZERO PUSH2 0x2269 JUMPI PUSH2 0x2268 PUSH2 0x2AF0 JUMP JUMPDEST JUMPDEST PUSH2 0x2275 DUP12 DUP3 DUP13 ADD PUSH2 0x207D JUMP JUMPDEST SWAP6 POP POP PUSH1 0x80 DUP10 ADD CALLDATALOAD PUSH8 0xFFFFFFFFFFFFFFFF DUP2 GT ISZERO PUSH2 0x2296 JUMPI PUSH2 0x2295 PUSH2 0x2AF0 JUMP JUMPDEST JUMPDEST PUSH2 0x22A2 DUP12 DUP3 DUP13 ADD PUSH2 0x207D JUMP JUMPDEST SWAP5 POP POP PUSH1 0xA0 PUSH2 0x22B3 DUP12 DUP3 DUP13 ADD PUSH2 0x2068 JUMP JUMPDEST SWAP4 POP POP PUSH1 0xC0 PUSH2 0x22C4 DUP12 DUP3 DUP13 ADD PUSH2 0x2068 JUMP JUMPDEST SWAP3 POP POP PUSH1 0xE0 PUSH2 0x22D5 DUP12 DUP3 DUP13 ADD PUSH2 0x20AB JUMP JUMPDEST SWAP2 POP POP SWAP3 SWAP6 SWAP9 POP SWAP3 SWAP6 SWAP9 SWAP1 SWAP4 SWAP7 POP JUMP JUMPDEST PUSH1 0x0 PUSH1 0x20 DUP3 DUP5 SUB SLT ISZERO PUSH2 0x22FB JUMPI PUSH2 0x22FA PUSH2 0x2AF5 JUMP JUMPDEST JUMPDEST PUSH1 0x0 PUSH2 0x2309 DUP5 DUP3 DUP6 ADD PUSH2 0x20AB JUMP JUMPDEST SWAP2 POP POP SWAP3 SWAP2 POP POP JUMP JUMPDEST PUSH1 0x0 DUP1 PUSH1 0x40 DUP4 DUP6 SUB SLT ISZERO PUSH2 0x2329 JUMPI PUSH2 0x2328 PUSH2 0x2AF5 JUMP JUMPDEST JUMPDEST PUSH1 0x0 PUSH2 0x2337 DUP6 DUP3 DUP7 ADD PUSH2 0x20AB JUMP JUMPDEST SWAP3 POP POP PUSH1 0x20 PUSH2 0x2348 DUP6 DUP3 DUP7 ADD PUSH2 0x20AB JUMP JUMPDEST SWAP2 POP POP SWAP3 POP SWAP3 SWAP1 POP JUMP JUMPDEST PUSH1 0x0 PUSH2 0x235E DUP4 DUP4 PUSH2 0x260F JUMP JUMPDEST PUSH1 0x20 DUP4 ADD SWAP1 POP SWAP3 SWAP2 POP POP JUMP JUMPDEST PUSH2 0x2373 DUP2 PUSH2 0x293D JUMP JUMPDEST DUP3 MSTORE POP POP JUMP JUMPDEST PUSH2 0x2382 DUP2 PUSH2 0x293D JUMP JUMPDEST DUP3 MSTORE POP POP JUMP JUMPDEST PUSH1 0x0 PUSH2 0x2393 DUP3 PUSH2 0x285D JUMP JUMPDEST PUSH2 0x239D DUP2 DUP6 PUSH2 0x2880 JUMP JUMPDEST SWAP4 POP PUSH2 0x23A8 DUP4 PUSH2 0x284D JUMP JUMPDEST DUP1 PUSH1 0x0 JUMPDEST DUP4 DUP2 LT ISZERO PUSH2 0x23D9 JUMPI DUP2 MLOAD PUSH2 0x23C0 DUP9 DUP3 PUSH2 0x2352 JUMP JUMPDEST SWAP8 POP PUSH2 0x23CB DUP4 PUSH2 0x2873 JUMP JUMPDEST SWAP3 POP POP PUSH1 0x1 DUP2 ADD SWAP1 POP PUSH2 0x23AC JUMP JUMPDEST POP DUP6 SWAP4 POP POP POP POP SWAP3 SWAP2 POP POP JUMP JUMPDEST PUSH2 0x23EF DUP2 PUSH2 0x294F JUMP JUMPDEST DUP3 MSTORE POP POP JUMP JUMPDEST PUSH2 0x23FE DUP2 PUSH2 0x294F JUMP JUMPDEST DUP3 MSTORE POP POP JUMP JUMPDEST PUSH1 0x0 PUSH2 0x240F DUP3 PUSH2 0x2868 JUMP JUMPDEST PUSH2 0x2419 DUP2 DUP6 PUSH2 0x2891 JUMP JUMPDEST SWAP4 POP PUSH2 0x2429 DUP2 DUP6 PUSH1 0x20 DUP7 ADD PUSH2 0x2994 JUMP JUMPDEST PUSH2 0x2432 DUP2 PUSH2 0x2AFA JUMP JUMPDEST DUP5 ADD SWAP2 POP POP SWAP3 SWAP2 POP POP JUMP JUMPDEST PUSH1 0x0 PUSH2 0x2448 DUP3 PUSH2 0x2868 JUMP JUMPDEST PUSH2 0x2452 DUP2 DUP6 PUSH2 0x28A2 JUMP JUMPDEST SWAP4 POP PUSH2 0x2462 DUP2 DUP6 PUSH1 0x20 DUP7 ADD PUSH2 0x2994 JUMP JUMPDEST PUSH2 0x246B DUP2 PUSH2 0x2AFA JUMP JUMPDEST DUP5 ADD SWAP2 POP POP SWAP3 SWAP2 POP POP JUMP JUMPDEST PUSH1 0x0 PUSH2 0x140 DUP4 ADD PUSH1 0x0 DUP4 ADD MLOAD PUSH2 0x248F PUSH1 0x0 DUP7 ADD DUP3 PUSH2 0x260F JUMP JUMPDEST POP PUSH1 0x20 DUP4 ADD MLOAD PUSH2 0x24A2 PUSH1 0x20 DUP7 ADD DUP3 PUSH2 0x236A JUMP JUMPDEST POP PUSH1 0x40 DUP4 ADD MLOAD DUP5 DUP3 SUB PUSH1 0x40 DUP7 ADD MSTORE PUSH2 0x24BA DUP3 DUP3 PUSH2 0x2404 JUMP JUMPDEST SWAP2 POP POP PUSH1 0x60 DUP4 ADD MLOAD DUP5 DUP3 SUB PUSH1 0x60 DUP7 ADD MSTORE PUSH2 0x24D4 DUP3 DUP3 PUSH2 0x2404 JUMP JUMPDEST SWAP2 POP POP PUSH1 0x80 DUP4 ADD MLOAD DUP5 DUP3 SUB PUSH1 0x80 DUP7 ADD MSTORE PUSH2 0x24EE DUP3 DUP3 PUSH2 0x2404 JUMP JUMPDEST SWAP2 POP POP PUSH1 0xA0 DUP4 ADD MLOAD DUP5 DUP3 SUB PUSH1 0xA0 DUP7 ADD MSTORE PUSH2 0x2508 DUP3 DUP3 PUSH2 0x2404 JUMP JUMPDEST SWAP2 POP POP PUSH1 0xC0 DUP4 ADD MLOAD DUP5 DUP3 SUB PUSH1 0xC0 DUP7 ADD MSTORE PUSH2 0x2522 DUP3 DUP3 PUSH2 0x2404 JUMP JUMPDEST SWAP2 POP POP PUSH1 0xE0 DUP4 ADD MLOAD PUSH2 0x2537 PUSH1 0xE0 DUP7 ADD DUP3 PUSH2 0x23E6 JUMP JUMPDEST POP PUSH2 0x100 DUP4 ADD MLOAD PUSH2 0x254C PUSH2 0x100 DUP7 ADD DUP3 PUSH2 0x23E6 JUMP JUMPDEST POP PUSH2 0x120 DUP4 ADD MLOAD PUSH2 0x2561 PUSH2 0x120 DUP7 ADD DUP3 PUSH2 0x260F JUMP JUMPDEST POP DUP1 SWAP2 POP POP SWAP3 SWAP2 POP POP JUMP JUMPDEST PUSH1 0x0 PUSH1 0xE0 DUP4 ADD PUSH1 0x0 DUP4 ADD MLOAD PUSH2 0x2584 PUSH1 0x0 DUP7 ADD DUP3 PUSH2 0x236A JUMP JUMPDEST POP PUSH1 0x20 DUP4 ADD MLOAD DUP5 DUP3 SUB PUSH1 0x20 DUP7 ADD MSTORE PUSH2 0x259C DUP3 DUP3 PUSH2 0x2404 JUMP JUMPDEST SWAP2 POP POP PUSH1 0x40 DUP4 ADD MLOAD DUP5 DUP3 SUB PUSH1 0x40 DUP7 ADD MSTORE PUSH2 0x25B6 DUP3 DUP3 PUSH2 0x2388 JUMP JUMPDEST SWAP2 POP POP PUSH1 0x60 DUP4 ADD MLOAD PUSH2 0x25CB PUSH1 0x60 DUP7 ADD DUP3 PUSH2 0x260F JUMP JUMPDEST POP PUSH1 0x80 DUP4 ADD MLOAD PUSH2 0x25DE PUSH1 0x80 DUP7 ADD DUP3 PUSH2 0x260F JUMP JUMPDEST POP PUSH1 0xA0 DUP4 ADD MLOAD PUSH2 0x25F1 PUSH1 0xA0 DUP7 ADD DUP3 PUSH2 0x260F JUMP JUMPDEST POP PUSH1 0xC0 DUP4 ADD MLOAD PUSH2 0x2604 PUSH1 0xC0 DUP7 ADD DUP3 PUSH2 0x260F JUMP JUMPDEST POP DUP1 SWAP2 POP POP SWAP3 SWAP2 POP POP JUMP JUMPDEST PUSH2 0x2618 DUP2 PUSH2 0x297B JUMP JUMPDEST DUP3 MSTORE POP POP JUMP JUMPDEST PUSH2 0x2627 DUP2 PUSH2 0x297B JUMP JUMPDEST DUP3 MSTORE POP POP JUMP JUMPDEST PUSH1 0x0 PUSH1 0x20 DUP3 ADD SWAP1 POP PUSH2 0x2642 PUSH1 0x0 DUP4 ADD DUP5 PUSH2 0x2379 JUMP JUMPDEST SWAP3 SWAP2 POP POP JUMP JUMPDEST PUSH1 0x0 PUSH1 0xC0 DUP3 ADD SWAP1 POP PUSH2 0x265D PUSH1 0x0 DUP4 ADD DUP10 PUSH2 0x2379 JUMP JUMPDEST DUP2 DUP2 SUB PUSH1 0x20 DUP4 ADD MSTORE PUSH2 0x266F DUP2 DUP9 PUSH2 0x243D JUMP JUMPDEST SWAP1 POP PUSH2 0x267E PUSH1 0x40 DUP4 ADD DUP8 PUSH2 0x261E JUMP JUMPDEST PUSH2 0x268B PUSH1 0x60 DUP4 ADD DUP7 PUSH2 0x261E JUMP JUMPDEST PUSH2 0x2698 PUSH1 0x80 DUP4 ADD DUP6 PUSH2 0x261E JUMP JUMPDEST PUSH2 0x26A5 PUSH1 0xA0 DUP4 ADD DUP5 PUSH2 0x261E JUMP JUMPDEST SWAP8 SWAP7 POP POP POP POP POP POP POP JUMP JUMPDEST PUSH1 0x0 PUSH1 0x20 DUP3 ADD SWAP1 POP DUP2 DUP2 SUB PUSH1 0x0 DUP4 ADD MSTORE PUSH2 0x26CA DUP2 DUP5 PUSH2 0x2476 JUMP JUMPDEST SWAP1 POP SWAP3 SWAP2 POP POP JUMP JUMPDEST PUSH1 0x0 PUSH1 0x20 DUP3 ADD SWAP1 POP DUP2 DUP2 SUB PUSH1 0x0 DUP4 ADD MSTORE PUSH2 0x26EC DUP2 DUP5 PUSH2 0x256C JUMP JUMPDEST SWAP1 POP SWAP3 SWAP2 POP POP JUMP JUMPDEST PUSH1 0x0 PUSH1 0x20 DUP3 ADD SWAP1 POP PUSH2 0x2709 PUSH1 0x0 DUP4 ADD DUP5 PUSH2 0x261E JUMP JUMPDEST SWAP3 SWAP2 POP POP JUMP JUMPDEST PUSH1 0x0 PUSH2 0x140 DUP3 ADD SWAP1 POP PUSH2 0x2725 PUSH1 0x0 DUP4 ADD DUP14 PUSH2 0x261E JUMP JUMPDEST PUSH2 0x2732 PUSH1 0x20 DUP4 ADD DUP13 PUSH2 0x2379 JUMP JUMPDEST DUP2 DUP2 SUB PUSH1 0x40 DUP4 ADD MSTORE PUSH2 0x2744 DUP2 DUP12 PUSH2 0x243D JUMP JUMPDEST SWAP1 POP DUP2 DUP2 SUB PUSH1 0x60 DUP4 ADD MSTORE PUSH2 0x2758 DUP2 DUP11 PUSH2 0x243D JUMP JUMPDEST SWAP1 POP DUP2 DUP2 SUB PUSH1 0x80 DUP4 ADD MSTORE PUSH2 0x276C DUP2 DUP10 PUSH2 0x243D JUMP JUMPDEST SWAP1 POP DUP2 DUP2 SUB PUSH1 0xA0 DUP4 ADD MSTORE PUSH2 0x2780 DUP2 DUP9 PUSH2 0x243D JUMP JUMPDEST SWAP1 POP DUP2 DUP2 SUB PUSH1 0xC0 DUP4 ADD MSTORE PUSH2 0x2794 DUP2 DUP8 PUSH2 0x243D JUMP JUMPDEST SWAP1 POP PUSH2 0x27A3 PUSH1 0xE0 DUP4 ADD DUP7 PUSH2 0x23F5 JUMP JUMPDEST PUSH2 0x27B1 PUSH2 0x100 DUP4 ADD DUP6 PUSH2 0x23F5 JUMP JUMPDEST PUSH2 0x27BF PUSH2 0x120 DUP4 ADD DUP5 PUSH2 0x261E JUMP JUMPDEST SWAP12 SWAP11 POP POP POP POP POP POP POP POP POP POP POP JUMP JUMPDEST PUSH1 0x0 PUSH1 0x40 DUP3 ADD SWAP1 POP PUSH2 0x27E3 PUSH1 0x0 DUP4 ADD DUP6 PUSH2 0x261E JUMP JUMPDEST PUSH2 0x27F0 PUSH1 0x20 DUP4 ADD DUP5 PUSH2 0x23F5 JUMP JUMPDEST SWAP4 SWAP3 POP POP POP JUMP JUMPDEST PUSH1 0x0 PUSH2 0x2801 PUSH2 0x2812 JUMP JUMPDEST SWAP1 POP PUSH2 0x280D DUP3 DUP3 PUSH2 0x29F9 JUMP JUMPDEST SWAP2 SWAP1 POP JUMP JUMPDEST PUSH1 0x0 PUSH1 0x40 MLOAD SWAP1 POP SWAP1 JUMP JUMPDEST PUSH1 0x0 PUSH8 0xFFFFFFFFFFFFFFFF DUP3 GT ISZERO PUSH2 0x2837 JUMPI PUSH2 0x2836 PUSH2 0x2AB7 JUMP JUMPDEST JUMPDEST PUSH2 0x2840 DUP3 PUSH2 0x2AFA JUMP JUMPDEST SWAP1 POP PUSH1 0x20 DUP2 ADD SWAP1 POP SWAP2 SWAP1 POP JUMP JUMPDEST PUSH1 0x0 DUP2 SWAP1 POP PUSH1 0x20 DUP3 ADD SWAP1 POP SWAP2 SWAP1 POP JUMP JUMPDEST PUSH1 0x0 DUP2 MLOAD SWAP1 POP SWAP2 SWAP1 POP JUMP JUMPDEST PUSH1 0x0 DUP2 MLOAD SWAP1 POP SWAP2 SWAP1 POP JUMP JUMPDEST PUSH1 0x0 PUSH1 0x20 DUP3 ADD SWAP1 POP SWAP2 SWAP1 POP JUMP JUMPDEST PUSH1 0x0 DUP3 DUP3 MSTORE PUSH1 0x20 DUP3 ADD SWAP1 POP SWAP3 SWAP2 POP POP JUMP JUMPDEST PUSH1 0x0 DUP3 DUP3 MSTORE PUSH1 0x20 DUP3 ADD SWAP1 POP SWAP3 SWAP2 POP POP JUMP JUMPDEST PUSH1 0x0 DUP3 DUP3 MSTORE PUSH1 0x20 DUP3 ADD SWAP1 POP SWAP3 SWAP2 POP POP JUMP JUMPDEST PUSH1 0x0 PUSH2 0x28BE DUP3 PUSH2 0x297B JUMP JUMPDEST SWAP2 POP PUSH2 0x28C9 DUP4 PUSH2 0x297B JUMP JUMPDEST SWAP3 POP DUP3 PUSH32 0xFFFFFFFFFFFFFFFFFFFFFFFFFFFFFFFFFFFFFFFFFFFFFFFFFFFFFFFFFFFFFFFF SUB DUP3 GT ISZERO PUSH2 0x28FE JUMPI PUSH2 0x28FD PUSH2 0x2A2A JUMP JUMPDEST JUMPDEST DUP3 DUP3 ADD SWAP1 POP SWAP3 SWAP2 POP POP JUMP JUMPDEST PUSH1 0x0 PUSH2 0x2914 DUP3 PUSH2 0x297B JUMP JUMPDEST SWAP2 POP PUSH2 0x291F DUP4 PUSH2 0x297B JUMP JUMPDEST SWAP3 POP DUP3 DUP3 LT ISZERO PUSH2 0x2932 JUMPI PUSH2 0x2931 PUSH2 0x2A2A JUMP JUMPDEST JUMPDEST DUP3 DUP3 SUB SWAP1 POP SWAP3 SWAP2 POP POP JUMP JUMPDEST PUSH1 0x0 PUSH2 0x2948 DUP3 PUSH2 0x295B JUMP JUMPDEST SWAP1 POP SWAP2 SWAP1 POP JUMP JUMPDEST PUSH1 0x0 DUP2 ISZERO ISZERO SWAP1 POP SWAP2 SWAP1 POP JUMP JUMPDEST PUSH1 0x0 PUSH20 0xFFFFFFFFFFFFFFFFFFFFFFFFFFFFFFFFFFFFFFFF DUP3 AND SWAP1 POP SWAP2 SWAP1 POP JUMP JUMPDEST PUSH1 0x0 DUP2 SWAP1 POP SWAP2 SWAP1 POP JUMP JUMPDEST DUP3 DUP2 DUP4 CALLDATACOPY PUSH1 0x0 DUP4 DUP4 ADD MSTORE POP POP POP JUMP JUMPDEST PUSH1 0x0 JUMPDEST DUP4 DUP2 LT ISZERO PUSH2 0x29B2 JUMPI DUP1 DUP3 ADD MLOAD DUP2 DUP5 ADD MSTORE PUSH1 0x20 DUP2 ADD SWAP1 POP PUSH2 0x2997 JUMP JUMPDEST DUP4 DUP2 GT ISZERO PUSH2 0x29C1 JUMPI PUSH1 0x0 DUP5 DUP5 ADD MSTORE JUMPDEST POP POP POP POP JUMP JUMPDEST PUSH1 0x0 PUSH1 0x2 DUP3 DIV SWAP1 POP PUSH1 0x1 DUP3 AND DUP1 PUSH2 0x29DF JUMPI PUSH1 0x7F DUP3 AND SWAP2 POP JUMPDEST PUSH1 0x20 DUP3 LT DUP2 EQ ISZERO PUSH2 0x29F3 JUMPI PUSH2 0x29F2 PUSH2 0x2A59 JUMP JUMPDEST JUMPDEST POP SWAP2 SWAP1 POP JUMP JUMPDEST PUSH2 0x2A02 DUP3 PUSH2 0x2AFA JUMP JUMPDEST DUP2 ADD DUP2 DUP2 LT PUSH8 0xFFFFFFFFFFFFFFFF DUP3 GT OR ISZERO PUSH2 0x2A21 JUMPI PUSH2 0x2A20 PUSH2 0x2AB7 JUMP JUMPDEST JUMPDEST DUP1 PUSH1 0x40 MSTORE POP POP POP JUMP JUMPDEST PUSH32 0x4E487B7100000000000000000000000000000000000000000000000000000000 PUSH1 0x0 MSTORE PUSH1 0x11 PUSH1 0x4 MSTORE PUSH1 0x24 PUSH1 0x0 REVERT JUMPDEST PUSH32 0x4E487B7100000000000000000000000000000000000000000000000000000000 PUSH1 0x0 MSTORE PUSH1 0x22 PUSH1 0x4 MSTORE PUSH1 0x24 PUSH1 0x0 REVERT JUMPDEST PUSH32 0x4E487B7100000000000000000000000000000000000000000000000000000000 PUSH1 0x0 MSTORE PUSH1 0x32 PUSH1 0x4 MSTORE PUSH1 0x24 PUSH1 0x0 REVERT JUMPDEST PUSH32 0x4E487B7100000000000000000000000000000000000000000000000000000000 PUSH1 0x0 MSTORE PUSH1 0x41 PUSH1 0x4 MSTORE PUSH1 0x24 PUSH1 0x0 REVERT JUMPDEST PUSH1 0x0 DUP1 REVERT JUMPDEST PUSH1 0x0 DUP1 REVERT JUMPDEST PUSH1 0x0 DUP1 REVERT JUMPDEST PUSH1 0x0 DUP1 REVERT JUMPDEST PUSH1 0x0 PUSH1 0x1F NOT PUSH1 0x1F DUP4 ADD AND SWAP1 POP SWAP2 SWAP1 POP JUMP JUMPDEST PUSH2 0x2B14 DUP2 PUSH2 0x293D JUMP JUMPDEST DUP2 EQ PUSH2 0x2B1F JUMPI PUSH1 0x0 DUP1 REVERT JUMPDEST POP JUMP JUMPDEST PUSH2 0x2B2B DUP2 PUSH2 0x294F JUMP JUMPDEST DUP2 EQ PUSH2 0x2B36 JUMPI PUSH1 0x0 DUP1 REVERT JUMPDEST POP JUMP JUMPDEST PUSH2 0x2B42 DUP2 PUSH2 0x297B JUMP JUMPDEST DUP2 EQ PUSH2 0x2B4D JUMPI PUSH1 0x0 DUP1 REVERT JUMPDEST POP JUMP INVALID LOG2 PUSH5 0x6970667358 0x22 SLT KECCAK256 PUSH4 0x4980840 EXTCODESIZE 0xCA PUSH3 0xA2781E PUSH9 0xCBCC0C3B9954DB038A DUP13 PUSH13 0xF6DAF2EBD687D82FA064736F6C PUSH4 0x43000807 STOP CALLER "
				},
				"gasEstimates": {
					"creation": {
						"codeDepositCost": "2228400",
						"executionCost": "26648",
						"totalCost": "2255048"
					},
					"external": {
						"CreateProfile(string)": "infinite",
						"InGame(bool)": "infinite",
						"addressToCollectionCreated(address,uint256)": "infinite",
						"addressToGame1(address,uint256)": "infinite",
						"addressToGame2(address,uint256)": "infinite",
						"addressToUser(address)": "infinite",
						"createCollection(string,string,string,string,string,bool,bool,uint256)": "infinite",
						"getAllCollection(uint256)": "infinite",
						"getCollectionId()": "2482",
						"getCollections(address)": "infinite",
						"getLengthOfUserCollections(address)": "2873",
						"getUserInfo()": "infinite",
						"idToCollection(uint256)": "infinite",
						"participate(uint256)": "95647",
						"usersInCollection(uint256,uint256)": "infinite"
					}
				},
				"methodIdentifiers": {
					"CreateProfile(string)": "d7da3c46",
					"InGame(bool)": "3cf11fda",
					"addressToCollectionCreated(address,uint256)": "1cc2ee61",
					"addressToGame1(address,uint256)": "7298def0",
					"addressToGame2(address,uint256)": "e4649d99",
					"addressToUser(address)": "edf53886",
					"createCollection(string,string,string,string,string,bool,bool,uint256)": "1bcde54f",
					"getAllCollection(uint256)": "f37420d2",
					"getCollectionId()": "7c8e7bfe",
					"getCollections(address)": "127f1498",
					"getLengthOfUserCollections(address)": "085566fe",
					"getUserInfo()": "5d8d1585",
					"idToCollection(uint256)": "e93b7b7d",
					"participate(uint256)": "845c9306",
					"usersInCollection(uint256,uint256)": "6e5c0a09"
				}
			},
			"storageLayout": {
				"storage": [
					{
						"astId": 3,
						"contract": "solidGames.sol:solidGames",
						"label": "owner",
						"offset": 0,
						"slot": "0",
						"type": "t_address"
					},
					{
						"astId": 31,
						"contract": "solidGames.sol:solidGames",
						"label": "users",
						"offset": 0,
						"slot": "1",
						"type": "t_array(t_address)dyn_storage"
					},
					{
						"astId": 35,
						"contract": "solidGames.sol:solidGames",
						"label": "isUserAdded",
						"offset": 0,
						"slot": "2",
						"type": "t_mapping(t_address,t_bool)"
					},
					{
						"astId": 47,
						"contract": "solidGames.sol:solidGames",
						"label": "g1_id",
						"offset": 0,
						"slot": "3",
						"type": "t_uint256"
					},
					{
						"astId": 49,
						"contract": "solidGames.sol:solidGames",
						"label": "g2_id",
						"offset": 0,
						"slot": "4",
						"type": "t_uint256"
					},
					{
						"astId": 72,
						"contract": "solidGames.sol:solidGames",
						"label": "c_id",
						"offset": 0,
						"slot": "5",
						"type": "t_uint256"
					},
					{
						"astId": 77,
						"contract": "solidGames.sol:solidGames",
						"label": "addressToUser",
						"offset": 0,
						"slot": "6",
						"type": "t_mapping(t_address,t_struct(UserInfo)28_storage)"
					},
					{
						"astId": 83,
						"contract": "solidGames.sol:solidGames",
						"label": "addressToGame1",
						"offset": 0,
						"slot": "7",
						"type": "t_mapping(t_address,t_array(t_struct(Game1)40_storage)dyn_storage)"
					},
					{
						"astId": 89,
						"contract": "solidGames.sol:solidGames",
						"label": "addressToGame2",
						"offset": 0,
						"slot": "8",
						"type": "t_mapping(t_address,t_array(t_struct(Game2)45_storage)dyn_storage)"
					},
					{
						"astId": 95,
						"contract": "solidGames.sol:solidGames",
						"label": "addressToCollectionCreated",
						"offset": 0,
						"slot": "9",
						"type": "t_mapping(t_address,t_array(t_struct(Collection)70_storage)dyn_storage)"
					},
					{
						"astId": 100,
						"contract": "solidGames.sol:solidGames",
						"label": "idToCollection",
						"offset": 0,
						"slot": "10",
						"type": "t_mapping(t_uint256,t_struct(Collection)70_storage)"
					},
					{
						"astId": 105,
						"contract": "solidGames.sol:solidGames",
						"label": "usersInCollection",
						"offset": 0,
						"slot": "11",
						"type": "t_mapping(t_uint256,t_array(t_address)dyn_storage)"
					}
				],
				"types": {
					"t_address": {
						"encoding": "inplace",
						"label": "address",
						"numberOfBytes": "20"
					},
					"t_array(t_address)dyn_storage": {
						"base": "t_address",
						"encoding": "dynamic_array",
						"label": "address[]",
						"numberOfBytes": "32"
					},
					"t_array(t_struct(Collection)70_storage)dyn_storage": {
						"base": "t_struct(Collection)70_storage",
						"encoding": "dynamic_array",
						"label": "struct solidGames.Collection[]",
						"numberOfBytes": "32"
					},
					"t_array(t_struct(Game1)40_storage)dyn_storage": {
						"base": "t_struct(Game1)40_storage",
						"encoding": "dynamic_array",
						"label": "struct solidGames.Game1[]",
						"numberOfBytes": "32"
					},
					"t_array(t_struct(Game2)45_storage)dyn_storage": {
						"base": "t_struct(Game2)45_storage",
						"encoding": "dynamic_array",
						"label": "struct solidGames.Game2[]",
						"numberOfBytes": "32"
					},
					"t_array(t_uint256)dyn_storage": {
						"base": "t_uint256",
						"encoding": "dynamic_array",
						"label": "uint256[]",
						"numberOfBytes": "32"
					},
					"t_bool": {
						"encoding": "inplace",
						"label": "bool",
						"numberOfBytes": "1"
					},
					"t_mapping(t_address,t_array(t_struct(Collection)70_storage)dyn_storage)": {
						"encoding": "mapping",
						"key": "t_address",
						"label": "mapping(address => struct solidGames.Collection[])",
						"numberOfBytes": "32",
						"value": "t_array(t_struct(Collection)70_storage)dyn_storage"
					},
					"t_mapping(t_address,t_array(t_struct(Game1)40_storage)dyn_storage)": {
						"encoding": "mapping",
						"key": "t_address",
						"label": "mapping(address => struct solidGames.Game1[])",
						"numberOfBytes": "32",
						"value": "t_array(t_struct(Game1)40_storage)dyn_storage"
					},
					"t_mapping(t_address,t_array(t_struct(Game2)45_storage)dyn_storage)": {
						"encoding": "mapping",
						"key": "t_address",
						"label": "mapping(address => struct solidGames.Game2[])",
						"numberOfBytes": "32",
						"value": "t_array(t_struct(Game2)45_storage)dyn_storage"
					},
					"t_mapping(t_address,t_bool)": {
						"encoding": "mapping",
						"key": "t_address",
						"label": "mapping(address => bool)",
						"numberOfBytes": "32",
						"value": "t_bool"
					},
					"t_mapping(t_address,t_struct(UserInfo)28_storage)": {
						"encoding": "mapping",
						"key": "t_address",
						"label": "mapping(address => struct solidGames.UserInfo)",
						"numberOfBytes": "32",
						"value": "t_struct(UserInfo)28_storage"
					},
					"t_mapping(t_uint256,t_array(t_address)dyn_storage)": {
						"encoding": "mapping",
						"key": "t_uint256",
						"label": "mapping(uint256 => address[])",
						"numberOfBytes": "32",
						"value": "t_array(t_address)dyn_storage"
					},
					"t_mapping(t_uint256,t_struct(Collection)70_storage)": {
						"encoding": "mapping",
						"key": "t_uint256",
						"label": "mapping(uint256 => struct solidGames.Collection)",
						"numberOfBytes": "32",
						"value": "t_struct(Collection)70_storage"
					},
					"t_string_storage": {
						"encoding": "bytes",
						"label": "string",
						"numberOfBytes": "32"
					},
					"t_struct(Collection)70_storage": {
						"encoding": "inplace",
						"label": "struct solidGames.Collection",
						"members": [
							{
								"astId": 51,
								"contract": "solidGames.sol:solidGames",
								"label": "id",
								"offset": 0,
								"slot": "0",
								"type": "t_uint256"
							},
							{
								"astId": 53,
								"contract": "solidGames.sol:solidGames",
								"label": "user",
								"offset": 0,
								"slot": "1",
								"type": "t_address"
							},
							{
								"astId": 55,
								"contract": "solidGames.sol:solidGames",
								"label": "cid",
								"offset": 0,
								"slot": "2",
								"type": "t_string_storage"
							},
							{
								"astId": 57,
								"contract": "solidGames.sol:solidGames",
								"label": "twitter",
								"offset": 0,
								"slot": "3",
								"type": "t_string_storage"
							},
							{
								"astId": 59,
								"contract": "solidGames.sol:solidGames",
								"label": "discord",
								"offset": 0,
								"slot": "4",
								"type": "t_string_storage"
							},
							{
								"astId": 61,
								"contract": "solidGames.sol:solidGames",
								"label": "mediumURL",
								"offset": 0,
								"slot": "5",
								"type": "t_string_storage"
							},
							{
								"astId": 63,
								"contract": "solidGames.sol:solidGames",
								"label": "collectionURL",
								"offset": 0,
								"slot": "6",
								"type": "t_string_storage"
							},
							{
								"astId": 65,
								"contract": "solidGames.sol:solidGames",
								"label": "isGame1",
								"offset": 0,
								"slot": "7",
								"type": "t_bool"
							},
							{
								"astId": 67,
								"contract": "solidGames.sol:solidGames",
								"label": "isGame2",
								"offset": 1,
								"slot": "7",
								"type": "t_bool"
							},
							{
								"astId": 69,
								"contract": "solidGames.sol:solidGames",
								"label": "giveAways",
								"offset": 0,
								"slot": "8",
								"type": "t_uint256"
							}
						],
						"numberOfBytes": "288"
					},
					"t_struct(Game1)40_storage": {
						"encoding": "inplace",
						"label": "struct solidGames.Game1",
						"members": [
							{
								"astId": 37,
								"contract": "solidGames.sol:solidGames",
								"label": "id",
								"offset": 0,
								"slot": "0",
								"type": "t_uint256"
							},
							{
								"astId": 39,
								"contract": "solidGames.sol:solidGames",
								"label": "isWinner",
								"offset": 0,
								"slot": "1",
								"type": "t_bool"
							}
						],
						"numberOfBytes": "64"
					},
					"t_struct(Game2)45_storage": {
						"encoding": "inplace",
						"label": "struct solidGames.Game2",
						"members": [
							{
								"astId": 42,
								"contract": "solidGames.sol:solidGames",
								"label": "id",
								"offset": 0,
								"slot": "0",
								"type": "t_uint256"
							},
							{
								"astId": 44,
								"contract": "solidGames.sol:solidGames",
								"label": "isWinner",
								"offset": 0,
								"slot": "1",
								"type": "t_bool"
							}
						],
						"numberOfBytes": "64"
					},
					"t_struct(UserInfo)28_storage": {
						"encoding": "inplace",
						"label": "struct solidGames.UserInfo",
						"members": [
							{
								"astId": 14,
								"contract": "solidGames.sol:solidGames",
								"label": "user",
								"offset": 0,
								"slot": "0",
								"type": "t_address"
							},
							{
								"astId": 16,
								"contract": "solidGames.sol:solidGames",
								"label": "name",
								"offset": 0,
								"slot": "1",
								"type": "t_string_storage"
							},
							{
								"astId": 19,
								"contract": "solidGames.sol:solidGames",
								"label": "collection_id",
								"offset": 0,
								"slot": "2",
								"type": "t_array(t_uint256)dyn_storage"
							},
							{
								"astId": 21,
								"contract": "solidGames.sol:solidGames",
								"label": "noGame1",
								"offset": 0,
								"slot": "3",
								"type": "t_uint256"
							},
							{
								"astId": 23,
								"contract": "solidGames.sol:solidGames",
								"label": "noGame2",
								"offset": 0,
								"slot": "4",
								"type": "t_uint256"
							},
							{
								"astId": 25,
								"contract": "solidGames.sol:solidGames",
								"label": "noOfWinnerInGame1",
								"offset": 0,
								"slot": "5",
								"type": "t_uint256"
							},
							{
								"astId": 27,
								"contract": "solidGames.sol:solidGames",
								"label": "noOfWinnerInGame2",
								"offset": 0,
								"slot": "6",
								"type": "t_uint256"
							}
						],
						"numberOfBytes": "224"
					},
					"t_uint256": {
						"encoding": "inplace",
						"label": "uint256",
						"numberOfBytes": "32"
					}
				}
			},
			"userdoc": {
				"kind": "user",
				"methods": {},
				"version": 1
			}
		}
	}
}